:1000000000308A0018280000213084008313000883
:10001000031917280630F800F701F70B0D28F80B25
:100020000C287B30F700F70B1328800B0A280800F8
:1000300003081F398300FF30A00081308316990028
:10004000A630980090308312980083161F149F14D6
:100050001F159F1107309C00831300308600860116
:100060008312860183168601FF3083128600643076
:10007000A100042083168601831286016430A1004A
:0600800004203228630099
:02400E00723FFF
:00000001FF
;PIC16F877A
;CRC=F339  CREATED="08-Apr-24 22:40"
