:1000000000308A0018280000223084008313000882
:10001000031917280630F800F701F70B0D28F80B25
:100020000C287B30F700F70B1328800B0A280800F8
:1000300003081F398300FF30A000A0152008831695
:100040008700831220162008831687003130930022
:10005000283083129400831694171413813099006A
:10006000A630980090308312980083161F149F14B6
:100070001F159F1107309C008313003086008800F5
:1000800083128612831686128312081383160813AE
:10009000831288138316881383128616831686129A
:1000A0008312081783160813831288138316881384
:1000B00004308312A100FA30A2000420A10B5B28B7
:1000C000861283168612831208138316081383126E
:1000D00088178316881304308312A100FA30A20017
:0A00E0000420A10B6E284D286300D8
:02400E00723FFF
:00000001FF
;PIC16F877A
;CRC=4FF2  CREATED="14-May-24 02:16"
