:1000000010308A0000280000FF00030E8301A100C9
:100010000A08A0008A010408A2007708A300780853
:10002000A4007908A5007A08A60003170D08031399
:10003000A70003170F080313A80003170C080313E6
:10004000A90003170E080313AA00831383128C3030
:100050008400001C2D280C184E2822088400230838
:10006000F7002408F8002508F9002608FA002708F8
:1000700003178D000313280803178F0003132908A3
:1000800003178C0003132A0803178E00031320089C
:100090008A00210E8300FF0E7F0E09008A110A12CA
:1000A0005128AE0A8E010B308F00DC308E00B21D5D
:1000B00061283608633C031C5F28B60A6128B60134
:1000C000B2110C108A110A122D28C437A0306E10FC
:1000D00031102D10C825C924000053284B2A2D2A81
:1000E0005024C32600002E002E002D002D00A01647
:1000F0002000EE3A74103000EE3A74103100EE3AFF
:1001000074103200EE3A7410330020272000472884
:1001100047004E2A4E00202A2000DF2F0000DF2F4C
:100120000000CE272022D318382132180000C32720
:100130002022D3183821321800004E223A10000134
:10014000A03743004E223A100001A0374300472455
:100150005F27441D2000A0374300E3306910E430DE
:100160007410E437EE3320346F00F41767106334F3
:100170006F10E330A0306E006334E5316B10E3376D
:100180006D10E5397000E8326C366F0500004937B4
:10019000E637F236613AE9376E00D632F239E9379E
:1001A0006E1D202B311730173000B53090008E01B6
:1001B0000B308F00DC308E00C0308B0483160C14A3
:1001C0000030F800063883129200F930831692004E
:1001D00083129B01AF01AE01B0013214B21432158B
:1001E000B2111930AC000930B3003430B400013022
:1001F000B500FF3083168500860000308800880136
:1002000083128801831609108910091109108910B9
:10021000091183128901831687008312AB00AB009A
:1002200083168701831287018A110A164328083032
:10023000F8000430F700F70B1B298711AB112B08CE
:10024000831687000330F700F70B2429A90D8312CA
:100250000712031C31292B162B088316870035291A
:1002600083122B122B088316870000008312AB1514
:100270002B08831687008312871D3C29F80B192948
:100280000430F700F70B42298711AB112B088316B6
:100290008700000083122B162B088316870003307B
:1002A000F700F70B51290330F700F70B552983129C
:1002B000AB152B08831687008312871D5D29F80173
:1002C0000330F700F70B6229071A78148711AB1176
:1002D0002B0883168700831207122B122B08831614
:1002E0008700831208005F3084008313000803191D
:1002F00086290630F800F701F70B7C29F80B7B29DB
:100300007B30F700F70B8229800B792908008316D0
:100310002308A600260883124F048316A700270887
:10032000A80083122B162B08831687000430F700D1
:10033000F70B98298312AB152B088316870003301F
:10034000F700F70BA1298312871DA42907122B128E
:100350002B08831687000430F700F70BAD298312B2
:100360008711AB112B08831687004E30A90083122A
:10037000172183162808A900831217212B122B0896
:100380008316870000008312AB152B0883168700A5
:100390008312871DC9290430F700F70BCD29D02916
:1003A00000002B162B08831687000430F700F70B8C
:1003B000D7292308A40024080438A5002508A6008E
:1003C000260883124F048316A7002708A80083126B
:1003D0002B162B08831687000430F700F70BEE2945
:1003E0008312AB152B08831687000330F700F70B39
:1003F000F7298312871DFA2907122B122B0883165F
:1004000087000430F700F70B032A83128711AB1122
:100410002B08831687004E30A900831217218316FC
:100420002808A900831217212B122B088316870096
:1004300000008312AB152B08831687008312871DDB
:100440001F2A0430F700F70B232A262A00002B1658
:100450002B08831687000430F700F70B2D2A302A6B
:10046000312A00002408FB39A5002508A60026082B
:1004700083124F048316A7002708A80083122B16A7
:100480002B08831687000430F700F70B452A8312E8
:10049000AB152B08831687000330F700F70B4E2AA5
:1004A0008312871D512A07122B122B0883168700EF
:1004B0000430F700F70B5A2A83128711AB112B086F
:1004C000831687004E30A90083121721831628084F
:1004D000A900831217212B122B0883168700000016
:1004E0008312AB152B08831687008312871D762A8B
:1004F0000430F700F70B7A2A7D2A00002B162B0810
:10050000831687000430F700F70B842A5230F70077
:10051000F70B882A8B2A0000831208007C08FD0054
:10052000FE017D08F0398316A0007D0EF700F03043
:10053000F7057708F039A10020087E04A200A30087
:1005400083128721831621087E04A200A300831250
:10055000872108001030CD000230CE00CF012B16CD
:100560002B08831687000430F700F70BB52A831297
:10057000AB152B08831687000330F700F70BBE2A54
:10058000831207122B122B08831687000430F70002
:10059000F70BC82A83128711AB112B08831687002B
:1005A0004E30A90083121721C901C9154E08CC008D
:1005B0002830DF0073214F088316A6002608831217
:1005C0004F048316A7002708A80083122B162B08B8
:1005D000831687000430F700F70BEC2A8312AB1563
:1005E0002B08831687000330F700F70BF52A8312D8
:1005F000871DF82A07122B122B0883168700043058
:10060000F700F70B012B83128711AB112B08831610
:1006100087004E30A9008312172183162808A900ED
:10062000831217212B122B088316870000008312D8
:10063000AB152B08831687008312871D1D2B0430F2
:10064000F700F70B212B242B00002B162B08831609
:1006500087000430F700F70B2B2B64308312DF0088
:10066000732130308316A300831287210530DF0009
:10067000732130308316A300831287210530DF00F9
:10068000732130308316A300831287210530DF00E9
:10069000732120308316A300831287214908203854
:1006A000DD00FC008E220430CA004A154A080838D2
:1006B000DD00FC008E220130FC008E221430DF00B1
:1006C00073210230CB004B080438DD00FC008E2281
:1006D0000230FC008E221430DF0073218A110A16CA
:1006E00046280830E2007708E3002B162B08831613
:1006F00087000330F700F70B7B2B8312AB152B0819
:10070000831687008312871D832B071A0314071E85
:100710000310F80D0430F700F70B8C2BAB112B08EE
:100720008316870083128711E20B752B2B162B087B
:10073000831687000330F700F70B9C2B83120712F8
:1007400063080319A82B2B122B088316870083122A
:100750000000AB152B08831687008312871DAE2B74
:100760000430F700F70BB22B8711AB112B0883165F
:1007700087000330F700F70BBB2B831207122B12F5
:100780002B0883168700831208002B162B0883166C
:1007900087000430F700F70BCB2B8312AB152B0827
:1007A000831687000330F700F70BD42B8312071250
:1007B0002B122B08831687000430F700F70BDE2B73
:1007C00083128711AB112B0883168700D030A90044
:1007D000831217218316A901831217212B162B08C8
:1007E000831687000430F700F70BF42B8312AB1548
:1007F0002B08831687000330F700F70BFD2B8312BD
:10080000871D002C07122B122B088316870004303B
:10081000F700F70B092C83128711AB112B088316F5
:100820008700D130A90083121721DE015D085E0226
:100830000318252C40305E07840083130130F70035
:10084000712378088000DE0A162CF70171237808DE
:10085000DE002B122B088316870000008312AB15D5
:100860002B08831687008312871D342C0430F70071
:10087000F70B382C3B2C00002B162B088316870017
:100880000430F700F70B422C831208000930DD001A
:10089000C52348083F020319B32C0130DD002B1695
:1008A0002B08831687000430F700F70B552C8312B2
:1008B000AB152B08831687000330F700F70B5E2C6F
:1008C000831207122B122B08831687000430F700BF
:1008D000F70B682C83128711AB112B088316870046
:1008E000D030A900831217218316A9018312172182
:1008F000DE015E08083C031C972CDD0803198B2CD5
:1009000037305E07840083130008DF008316A900D8
:1009100083121721952C40305E0784008313000852
:10092000DF008316A90083121721DE0A792C2B120F
:100930002B088316870000008312AB152B08831643
:1009400087008312871DA22C0430F700F70BA62C1A
:10095000A92C00002B162B08831687000430F70003
:10096000F70BB02C83128A110A1649280330E002D3
:10097000031CC42C60308400831300080319C42CAA
:10098000C22CC22C800BC12C080083160510051048
:10099000831205100230DE00F930E000B624DE0BD1
:1009A000CC2C831605140730F700F70BD52CD82C68
:1009B000000083120518DF2C0030F800EF2C6B309C
:1009C000F700F70BE12CE42C00005D10051C5D1412
:1009D000F030E000B62400305D180130F800080067
:1009E0000130DE005E08083C031C452D0310DD0CC1
:1009F000003003180130DF005F08E00083160510A7
:100A00000510831205101030F700F70B052D0000BC
:100A1000E00803191B2D8316051005108312051419
:100A20001030F700F70B122D000005181A2D0030BA
:100A3000F8003D2D2A2D8316051005108312051090
:100A40001030F700F70B222D0000051C2A2D003076
:100A5000F8003D2D5230F700F70B2C2D2F2D000004
:100A6000831605100510831205145230F700F70B9A
:100A7000372D3A2D00000130F800F808031D432DF2
:100A80000030F800472DDE0AF22C0130F800080093
:100A9000C524CC30DD00F0244E30DD00F024DD0133
:100AA000F024DD01F0247F30DD00F024C524CC30BB
:100AB000DD00F0244430DD00F0248A110A164C28B1
:100AC0008316051083120510831605100230831259
:100AD000DF00F930E000B624DF0B692D8316051422
:100AE000A630F700F70B722D0000051483120518CD
:100AF000832D0230DF00C730E000B624DF0B7B2DF2
:100B00000130F800852D0030F8000800E001600891
:100B1000073C031CC02D5F08F7006008F8000319AC
:100B2000952D0310F70CF80B912D0030771801303C
:100B3000E1006108E2008316051083120510831698
:100B400005100230F700F70BA32DA62D000083122D
:100B5000E208031DAD2D0510AE2D051483160510FA
:100B60008430F700F70BB22DB52D000005140230CC
:100B7000F700F70BB92DBC2D00008312E00A872D7A
:100B80000800E301E4016408073C031CF12D83160F
:100B9000051083120510831605100230F700F70BBD
:100BA000CF2DD22D000005140730F700F70BD62DFE
:100BB000D92D000005148312651005186514A630A0
:100BC000F700F70BE12D0000003065180130F80048
:100BD000F808031DED2D0310EE2D0314E30CE40AB9
:100BE000C32D6308F8000800F801F901F701FA01C4
:100BF0006B08031DFE2D6A080319182E1030EC0037
:100C00000310E80DE90DF70DFA0D6B087A02031DCC
:100C10000B2E6A087702031C142E6A08F702031CC5
:100C2000FA036B08FA020314F80DF90DEC0B002E11
:100C30000800DE015330DD006025F808031D232E77
:100C40000030F800712ECC30DF0086254430DF0004
:100C50008625C125F8080319292E6025F808031DEB
:100C6000342E0030F800712ECC30DF008625BE30E7
:100C7000DF0086255E08FA005D08DF005E08E00000
:100C8000C1255F088400831360188317840A8001DC
:100C90008403780880005E08FA005D08DF005E08C3
:100CA000E0005D08840083135E188317840A00083F
:100CB000E20084030008E100C125E4010030610482
:100CC000F70078086204FA005F0884008313601854
:100CD0008317840A7A088000840377088000013033
:100CE000F800F8080319802E540CFA00530CF90090
:100CF000FA0CF90CFA0CF90CFA0CF90C7908D5007D
:100D000053080F39F700FA017708D7007A08D8009E
:100D10005808DE005708DD000230E0007130DF00C7
:100D20001030E100F701FA01DE0CDD0C031C9E2EF1
:100D30005F08F7070318FA0A6008FA07FA0CF70CBD
:100D4000F90CF80CE10B942E7908DE007808DD0030
:100D50007908E9007808E800EB010A30EA00F42598
:100D60007908DC007808DB008A110A16542860082C
:100D70000739F700600CF800F80CF80C1F30F80584
:100D8000780862078400831363188317F801F80A50
:100D9000F70ACB2EF80DF70BCA2EE1080319D32E54
:100DA00078088004D62EF8097808800508006008C5
:100DB0000739F700600CF800F80CF80C1F30F80544
:100DC0007808610784008313621883170008F8000D
:100DD000F70AEB2EF80CF70BEA2E08005E08E0008D
:100DE0000130E100E3018030E200B7265E08E00058
:100DF000E201E101D7267818272F1430DF00732194
:100E00005E08E0000130E100E3018030E200B72637
:100E10005E08E000E201E101D7267818242FDD0802
:100E20000319212F5E08E0000130E100E30180306A
:100E3000E200B7265E08E000E201E101D726781C57
:100E4000122F0130F800292F0030F800292F003030
:100E5000F8000800F701F801630803106418F707A9
:100E6000F70CF80CE418F707F70CF80C6419F707FF
:100E7000F70CF80CE419F707F70CF80C641AF707ED
:100E8000F70CF80CE41AF707F70CF80C641BF707DB
:100E9000F70CF80CE41BF707F70CF80C08005F0ED2
:100EA000F7000F30F7057708E100E3000A30E400AF
:100EB0002A277808E0005F080F397807F800080053
:100EC0007208F80171020318682F7108F700742F77
:100ED000F7010830F300F10DF70D720877020318DF
:100EE000F700F80DF30B6B2F0800F3014030F4000E
:100EF0001430F5005430F60072084C020318832FAA
:100F000001304C02F2007330720784008313000832
:100F100071078038FB00FC008E2208007408FD0079
:100F20000130FE007D08F0398316A0007D0EF70029
:100F3000F030F7057708F039A10020087E04A20000
:100F4000A30083128721831621087E04A200A30038
:100F50008312872108000B08F1008B1383160317F7
:100F60008C170C1400000000F11FBB2F8312031319
:100F70008B178316031783120C087F390319F92F77
:100F8000F1000D08F2000F08F3007108F4000313DC
:100F90008E27720803178D0073088F0003130B0848
:100FA000F4008B13831603178C170C140000000039
:100FB000F41FDF2F831203138B178316031783127B
:100FC0000C0D0E0D7F390319F92FF1000D08F200F9
:100FD0000F08F3007108F40003138E27720803173B
:100FE0008D0073088F008D0A03198F0A0313AB2F2E
:060FF000031703130800C3
:10100000680B0C286508F1000A30F2008A1160278D
:101010008A15303078070D282030EB00680B1A282D
:101020006508F1000A30F2008A1160278A15303015
:1010300077071B282030EC00690B28286608F10090
:101040000A30F2008A1160278A1530307807292883
:101050002030ED00690B36286608F1000A30F200F6
:101060008A1160278A153030770737282030EE0044
:101070006A0B44286708F1000A30F2008A116027E1
:101080008A153030780745282030EF006A0B522847
:101090006708F1000A30F2008A1160278A153030A3
:1010A000770753282030F0006308F1006408F2004D
:1010B0008A1175278A156B08F4008A118E278A1504
:1010C0006C08F4008A118E278A15753003178D007D
:1010D00000308F008A110313AB278A156D08F400C6
:1010E0008A118E278A156E08F4008A118E278A15B8
:1010F000763003178D0000308F008A110313AB2761
:101100008A156F08F4008A118E278A157008F4007A
:101110008A118E278A1508005F08F1006008F20026
:101120008A1175278A155E08E9005D08E800EB0161
:101130000A30EA008A11F4258A1530307807E30076
:101140005E08E9005D08E800EB010A30EA008A1158
:10115000F4258A1530307707E400610BB528630861
:10116000303C031DB5282030E300620BC0287330EB
:1011700003178D0000308F008A110313AB278A15E7
:101180006308F4008A118E278A156408F4008A1116
:101190008E278A1508005F08F1006008F2008A11A6
:1011A00075278A155E08E9005D08E800EB016430E8
:1011B000EA008A11F4258A1530307807E3005E08CA
:1011C000E9005D08E800EB010A30EA008A11F42525
:1011D0008A157908E7007808E6007908E9007808B8
:1011E000E800EB010A30EA008A11F4258A15303054
:1011F0007707E4005E08E9005D08E800EB010A30CB
:10120000EA008A11F4258A1530307707E500610B72
:1012100015296308303C031D15292030E3006408BC
:10122000303C031D15292030E400620B2029743066
:1012300003178D0000308F008A110313AB278A1526
:101240006308F4008A118E278A156408F4008A1155
:101250008E278A156508F4008A118E278A150800E2
:101260005F08E0000130E100E3018030E2008A1114
:10127000B7268A155F08E000E201E1018A11D7264E
:101280008A15781858290130D0072930F700F70B54
:1012900047290000DE08031D55295D085002031C84
:1012A0005529D0010130F8005A290030F8005A2998
:1012B0000030F8000800B00803198829300B6129B4
:1012C00065293008043C031D6A290130B206B214B6
:1012D000321587293008023C031972293008053C71
:1012E000031D772932140230B206321587293008DF
:1012F000033C03197F293008063C031D842932145E
:10130000B2140430B20687293214B21432158B2974
:101310003214B214321508004208DF008A114F2738
:101320008A157808DD004108DF008A114F278A15E9
:101330007808DE004008DF008A114F278A157808F8
:10134000DF00003032190130E0000030B218013007
:10135000E100003032180130E2000430E3000130D7
:10136000E4005D08E5005E08E6007808E700600834
:10137000E8006108E9006208EA000020080044086B
:10138000DF008A114F278A157808DD004508DF0045
:101390008A114F278A157808DE004608DF008A1177
:1013A0004F278A157808DF00003032190130E0003D
:1013B0000030B2180130E100003032180130E20094
:1013C0000430E3000130E4005D08E5005E08E6005B
:1013D0007808E7006008E8006108E9006208EA00B0
:1013E000002008004308DF008A114F278A1578087B
:1013F000DD000030B2180130DE000430E3000130BF
:10140000E400E5017808E600E701E8015E08E9008C
:10141000EA0100200800B008031D1D2AAF080319C7
:10142000132A2F0B142A8C212F08023C0319BF21E9
:101430002F08033C0319F221312AB01B232A30085C
:10144000033C031C252A8C21312AB01B2B2A30088F
:10145000063C031C2D2ABF21312A3008073C031902
:10146000F22108005D0EE1000F30E1055D080F3943
:10147000E0006108E3000A30E4008A112A278A1597
:1014800060087807DF00DE08031D482ADF0A492AC2
:10149000DF035F08F1000A30F2008A1160278A1525
:1014A0007808E1005F08F1000A30F2008A11602735
:1014B0008A157708E000610EF700F030F70577082D
:1014C0006004E2006208F80008002B162B0883165F
:1014D00087000430F700F70B6B2A8312AB152B083B
:1014E000831687000330F700F70B742A8312071264
:1014F0002B122B08831687000430F700F70B7E2A87
:1015000083128711AB112B0883168700D030A900F6
:101510008A11831217218A155D088316A9008A1182
:10152000831217218A155E088316A9008A11831277
:1015300017218A152B122B088316870000008312AF
:10154000AB152B08831687008312871DA52A04304C
:10155000F700F70BA92AAC2A00002B162B088316DC
:1015600087000430F700F70BB32A831208005D08E8
:101570005E068039E000DD1FBF2ADD09DD0ADE1FBF
:10158000C32ADE09DE0A5E08F8015D020318CB2AD1
:101590005D08F700D72AF7010830DF00DD0DF70DF1
:1015A0005E0877020318F700F80DDF0BCE2AE01F64
:1015B000DB2AF809F80A08003308DF008A114F27F0
:1015C0008A157808DD003408DF008A114F278A1554
:1015D0007808DE003508DF008A114F278A15780861
:1015E000DF00003032190130E0000030B218013065
:1015F000E100003032180130E2000430E300013035
:10160000E4005D08E5005E08E6007808E700600891
:0E161000E8006108E9006208EA000020080016
:1020000003081F398300FF30AB008130831699002D
:10201000A63098009030831298001930AC00AF01C0
:10202000B001B101B601D1010130D20083161F14F5
:102030009F141F159F1107309C00831331308312AA
:10204000B7001530B800B9000430BA002530BB0025
:102050001030BC002330BD009030BE009230BF0075
:102060003030C000C1001030C2000830C300203042
:10207000C4000230C5002030C6009030C700963042
:10208000C8000A12D5280A160A12AA2A0A160A1223
:10209000462C0A160A12482D0A160830DD000A12CC
:1020A000C5230A160A12192E0A160130DD00303037
:1020B000DE000A12EE260A16F80803196628D10A6D
:1020C000AE01B001AF013214B21432155108053C13
:1020D00003186C28D1017C285208510203197C286E
:1020E0005108D2000130FC000A128E220A16143068
:1020F000DF000A1273210A16510803198C28013ACD
:102100000319EA28033A03196929013A0319262C0D
:10211000073A03195C2DDA2D4208DF000A124F2717
:102120000A167808DD004108DF000A124F270A1658
:102130007808DE004008DF000A124F270A167808E8
:10214000DF000430E300E4015D08E5005E08E6001E
:102150007808E7000130E800E900EA000A128A1571
:1021600000200A168A110230F1000130F2000A1232
:1021700075270A169D3003178D0000308F000A1254
:102180000313AB270A16DE015508DD000630DF0019
:102190000130E000E100E2010A128A158C200A16E3
:1021A0008A115C08DE005B08DD000830DF000130CA
:1021B000E000E100E2000A128A15CB200A168A111B
:1021C000A03003178D0000308F000A120313AB27D5
:1021D0000A16022EDE010230DD003130DF000A1265
:1021E0008A1530210A168A117808AC07DE01023000
:1021F000DD003230DF000A128A1530210A168A11FA
:102200007808AC020130DD003330DE000A12EE2621
:102210000A16780B0C29D1010230F100F2010A12E2
:1022200075270A16A23003178D0000308F000A129E
:102230000313AB270A16DE015508DD000630DF0068
:10224000E0010130E100E2010A128A158C200A1631
:102250008A115C08DE005B08DD000830DF00E00169
:10226000E1010130E2000A128A15CB200A168A1118
:10227000A53003178D0000308F000A120313AB271F
:102280000A160230F1000130F2000A1275270A1610
:10229000A73003178D0000308F000A120313AB27FD
:1022A0000A16DE012C08DD000A30DF000130E000F4
:1022B000E100E2010A128A158C200A168A11AB305D
:1022C00003178D0000308F000A120313AB270A1684
:1022D000022E0130F100F2010A1275270A16AD3004
:1022E00003178D0000308F000A120313AB270A1664
:1022F0002E08043C031C932BB008031984290A12EE
:102300008A155B210A168A11DE010130DD003330A7
:10231000DF000A128A1530210A168A11F8080319FB
:10232000B8290130AF002F0BB229B00AB01B9C298D
:102330003008033C031C9F290130AF00B229B01BB9
:10234000A5293008063C031CA8290230AF00B22999
:102350003008073C031DAF290330AF00B229B0019C
:10236000AF01D101B1010A128A150B220A168A1196
:10237000DE010130DD003130DF000A128A15302124
:102380000A168A11F8080319A42AB101B01BCC2936
:102390003008033C031C252A3008013A0319D729C9
:1023A000033A0319F029013A03190A2A242A40089A
:1023B000593C031DDD29C001E7294008DD00DE018D
:1023C0000A128A1532220A168A117808C000DD0125
:1023D0004008DE000A128A1565220A168A11242A8C
:1023E0004108593C031DF629C101002A4108DD00BE
:1023F000DE010A128A1532220A168A117808C100F3
:102400000130DD004108DE000A128A1565220A1635
:102410008A11242A4208233C031D102AC2011A2AC9
:102420004208DD00DE010A128A1532220A168A11DC
:102430007808C2000230DD004208DE000A128A1568
:1024400065220A168A11242A9C2AB01B2B2A3008DE
:10245000063C031C872A3008043A0319362A013A3D
:102460000319502A033A03196B2A862A4608993C15
:10247000031D3C2AC601462A4608DD00DE010A1279
:102480008A1532220A168A117808C6000630DD0045
:102490004608DE000A128A1565220A168A11862A63
:1024A0004508123C031D572A0130C500612A450822
:1024B000DD00DE010A128A1532220A168A11780816
:1024C000C5000530DD004508DE000A128A156522C8
:1024D0000A168A11862A4408313C031D722A0130EB
:1024E000C4007C2A4408DD00DE010A128A1532226B
:1024F0000A168A117808C4000430DD004408DE00A2
:102500000A128A1565220A168A11862A9C2A300820
:10251000073C031D9C2A4308083C031D922A0230F5
:10252000C300932AC30A0330DD004308DE000A1209
:102530008A1565220A168A113214B21432150A124B
:102540008A150B220A168A11DE010130DD003230B5
:10255000DF000A128A1530210A168A11F8080319B9
:10256000922BB101B01BB82A3008033C031C142B7A
:102570003008013A0319C32A033A0319DD2A013A44
:102580000319F82A132BC008031DC92A5930C000AB
:10259000D42A4008DD000130DE000A128A153222FA
:1025A0000A168A117808C000DD014008DE000A1210
:1025B0008A1565220A168A11132BC108031DE32A06
:1025C0005930C100EE2A4108DD000130DE000A1258
:1025D0008A1532220A168A117808C1000130DD00FE
:1025E0004108DE000A128A1565220A168A11132B89
:1025F000C208031DFE2A2330C200092B4208DD0059
:102600000130DE000A128A1532220A168A11780871
:10261000C2000230DD004208DE000A128A1565227F
:102620000A168A11132B8A2BB01B1A2B3008063C72
:10263000031C752B3008013A0319252B033A0319A3
:10264000402B013A03195A2B742BC608031D2B2B60
:102650009930C600362B4608DD000130DE000A1234
:102660008A1532220A168A117808C6000630DD0063
:102670004608DE000A128A1565220A168A11742B92
:10268000450B452B0C30C500502B4508DD000130B3
:10269000DE000A128A1532220A168A117808C5004D
:1026A0000530DD004508DE000A128A1565220A168B
:1026B0008A11742B440B5F2B1530C4006A2B44081D
:1026C000DD000130DE000A128A1532220A168A1154
:1026D0007808C4000430DD004408DE000A128A15C0
:1026E00065220A168A11742B8A2B3008073C031DB9
:1026F0008A2B4308023C031D802B0830C300812B2A
:10270000C3030330DD004308DE000A128A15652288
:102710000A168A113214B21432150A128A150B22C3
:102720000A168A11AB2B2E08093C0318AB2BAE01FD
:10273000B11B9E2B3108093C031CA02BB10AA52B11
:10274000B001AF013214B214321540082D02031942
:10275000AB2B4008AD000A128A150B220A168A110B
:10276000F1010130F2000A1275270A16AF08031DA5
:10277000C32B853003178D0000308F000A1203131E
:10278000AB270A16EA2B2F0BCF2B873003178D00B0
:1027900000308F000A120313AB270A16EA2B2F080A
:1027A000023C031DDD2B893003178D0000308F00A4
:1027B0000A120313AB270A16EA2B2F08033C031D4A
:1027C000EA2B8B3003178D0000308F000A120313A1
:1027D000AB270A160D30F1000130F2000A127527FE
:1027E0000A1630303007DD00F4000A128E270A1670
:1027F000B00803191C2C3108DD000A30DE000A1273
:102800008A15B7220A168A1130307807DD00F400E5
:102810000A128E270A163108DD000A30DE000A127D
:102820008A15B7220A168A1130307707DD00F400C6
:102830000A128E270A16252C8D3003178D000030C2
:102840008F000A120313AB270A16022E0130F10083
:10285000F2010A1275270A16B53003178D000030F1
:102860008F000A120313AB270A162E08013C031C23
:102870000A2DB0080319412C0A128A155B210A1689
:102880008A11DE010130DD003330DF000A128A15C3
:1028900030210A168A11F80803195E2CB01B542C3B
:1028A0003008023C031C562CB00A582CB001D10150
:1028B000B1010A128A15DC220A168A11DE010130E2
:1028C000DD003130DF000A128A1530210A168A1124
:1028D000F8080319B22CB1013008013A0319772C1A
:1028E000033A0319882C013A0319992CAA2C3508AC
:1028F000593C031D7D2CB501872C3508DD00DE0118
:102900000A128A1532220A168A117808B500AA2CF2
:102910003408593C031D8E2CB401982C3408DD007A
:10292000DE010A128A1532220A168A117808B400CA
:10293000AA2C3308233C031D9F2CB301A92C330878
:10294000DD00DE010A128A1532220A168A11780881
:10295000B300AA2C3214B21432150A128A15DC22E2
:102960000A168A11DE010130DD003230DF000A1262
:102970008A1530210A168A11F8080319092DB101A8
:102980003008013A0319CB2C033A0319DD2C013A24
:102990000319EF2C012DB508031DD12C5930B500BA
:1029A000DC2C3508DD000130DE000A128A153222E7
:1029B0000A168A117808B500012DB408031DE32C0E
:1029C0005930B400EE2C3408DD000130DE000A126C
:1029D0008A1532220A168A117808B400012DB3082C
:1029E000031DF52C2330B300002D3308DD0001302A
:1029F000DE000A128A1532220A168A117808B300FC
:102A0000012D3214B21432150A128A15DC220A166C
:102A10008A111B2D2E08093C03181B2DAE01B11B7A
:102A2000152D3108133C031C172DB10A1B2DB001C5
:102A30003214B21432150A128A15DC220A168A11CF
:102A40000D30F1000130F2000A1275270A163030FD
:102A50003007DD00F4000A128E270A16B0080319A9
:102A6000522D3108DD000A30DE000A128A15B72225
:102A70000A168A1130307807DD00F4000A128E271A
:102A80000A163108DD000A30DE000A128A15B72264
:102A90000A168A1130307707DD00F4000A128E27FB
:102AA0000A165B2D8F3003178D0000308F000A123D
:102AB0000313AB270A16022E0130F100F2010A12AD
:102AC00075270A16BC3003178D0000308F000A12DC
:102AD0000313AB270A16C33003178D0000308F0095
:102AE00003130B08DD008B13831603178C170C14CC
:102AF0000000000083120313DD1B8B1703170C0863
:102B00007F390319C52D0313DD0003170D080313C7
:102B1000DE0003170F080313DF005D080C1E8E2D67
:102B200099005E0803178D0003135F0803178F00D9
:102B300003130B08E0008B13831603178C170C1478
:102B40000000000083120313E01B8B1703170C0D0A
:102B50000E0D7F390319C52D0313DD0003170D0872
:102B60000313DE0003170F080313DF005D080C1EBC
:102B7000B72D99005E0803178D0003135F08031734
:102B80008F008D0A03198F0A702D04300313DD00A6
:102B9000FA30DF000A1273210A16DD0BC82D01304E
:102BA000DD003330DE000A12EE260A16F808031D97
:102BB000D101022E0230F100F2010A1275270A1625
:102BC000C73003178D0000308F000A120313AB27A4
:102BD0000A16F1010130F2000A1275270A16CD30EB
:102BE00003178D0000308F000A120313AB270A165B
:102BF0000130DD003330DE000A12EE260A16F80836
:082C0000031DD1014D28630002
:02400E00723FFF
:00000001FF
;PIC16F877A
;CRC=D1D6  CREATED="27-Apr-24 16:44"
