:1000000002308A00282A0000C437A0306E10311058
:100010002D10C825C924000053284B2A2D2A50240E
:10002000C3260000CE272022D31838213218000022
:100030008A110A124C2A0830F8000430F700F70B36
:100040001F288711A0112008831687000330F700AE
:10005000F70B28288312BE0D0712031C3528201623
:10006000200883168700392883122012200883165F
:10007000870000008312A0152008831687008312D2
:10008000871D4028F80B1D280430F700F70B462881
:100090008711A01120088316870000008312201604
:1000A0002008831687000330F700F70B552803302C
:1000B000F700F70B59288312A01520088316870034
:1000C0008312871D6128F8010330F700F70B6628BB
:1000D000071A78148711A01120088316870083124D
:1000E00007122012200883168700831208002E3082
:1000F00084008313000803198A280630F800F701EA
:10010000F70B8028F80B7F287B30F700F70B862849
:10011000800B7D2808003B082704BC003C08BD007C
:1001200020162008831687000430F700F70B962866
:100130008312A0152008831687000330F700F70B01
:100140009F288312871DA2280712201220088316D9
:1001500087000430F700F70BAB2883128711A0113A
:100160002008831687004E308312BE001B203D08F6
:10017000BE001B2020122008831687000000831277
:10018000A0152008831687008312871DC528043018
:10019000F700F70BC928CC2800002016200883168A
:1001A00087000430F700F70BD328831208003808C3
:1001B000BB008B203808B90039080438BA00BB00EE
:1001C0008B20E228E32800003908FB39BA00BB0085
:1001D0008B205230F700F70BEB28EE2800000800C8
:1001E0003308F039B500330EF700F030F705770823
:1001F000F039B60035083404B700B800D720360807
:100200003404B700B800D72008003208B300B401A6
:10021000F02008000130B20005211430AE00772034
:1002200008001030A5000230A600A7012016200803
:10023000831687000430F700F70B1C298312A015E2
:100240002008831687000330F700F70B2529831257
:10025000071220122008831687000430F700F70BDE
:100260002F2983128711A0112008831687004E3092
:100270008312BE001B20A101A1152608A40028306E
:10028000AE0077202708BB008B206430AE007720BB
:100290002030B800D72021082038A800B20005215E
:1002A0000430A200221522080838A800B200052157
:1002B0000A210230A30023080438A800B200052157
:1002C0000230B20005211430AE0077208A110A12E4
:1002D0004D2AAD014030AE001430AF005430B000B4
:1002E0002C0824020318772901302402AC002D3099
:1002F0002C078400831300082B078038B100B2005C
:10030000052108002E08B3000130B400F0200800D9
:100310000B08AB008B13831603178C170C1400000B
:10032000000083120313AB1B8B1703170C087F39D4
:100330000319DC290313AB0003170D080313AC00EA
:1003400003170F080313AD002B08AE0082212C0801
:1003500003178D0003132D0803178F0003130B08D9
:10036000AE008B13831603178C170C1400000000CB
:1003700083120313AE1B8B1703170C0D0E0D7F3961
:100380000319DC290313AB0003170D080313AC009A
:1003900003170F080313AD002B08AE0082212C08B1
:1003A00003178D0003132D0803178F008D0A0319FF
:1003B0008F0A031388290317031308000130AB00C9
:1003C000AC016921043003178D0000308F00031346
:1003D00088210330AB000130AC0069210C300317D9
:1003E0008D0000308F00031388212A0B252A29084D
:1003F000AC002808AB000330AE00E830AD00103090
:10040000AF00F701FA01AC0CAB0C031C0D2A2D0850
:10041000F7070318FA0A2E08FA07FA0CF70CF90C7A
:10042000F80CAF0B032A7908AC007808AB00790808
:10043000AD00AD0AAD030319212AFF30AE007720CD
:100440001A2A2B08AE0077200A218A110A12532A91
:1004500003081F398300FF30A00083160317871598
:1004600008300313990002309A00A63098009030AB
:1004700083129800831603170908C03989000313F3
:100480001F129F1200300317880083128701880112
:1004900089018313031318281129A9010830A80022
:0A04A0000130AA00DE29532A630090
:04400E00E22FFF3F5F
:00000001FF
;PIC16F887
;CRC=714A  CREATED="09-Mar-24 16:37"
