:1000000004308A00B62C0000FF00030E8301A1001B
:100010000A08A0008A010408A2007708A300780853
:10002000A4007908A5007A08A60003170D08031399
:10003000A70003170F080313A80003170C080313E6
:10004000A90003170E080313AA00831383128C3030
:100050008400001C2D280C184E2822088400230838
:10006000F7002408F8002508F9002608FA002708F8
:1000700003178D000313280803178F0003132908A3
:1000800003178C0003132A0803178E00031320089C
:100090008A00210E8300FF0E7F0E09008A110A12CA
:1000A0005128AE0A8E010B308F00DC308E0000002C
:1000B000B21D62283608633C031C6028B60A622819
:1000C000B601B2110C108A110A122D28C437A030C3
:1000D0006E1031102D10C825C924000053284B2A5A
:1000E0002D2A5024C32600002E002E002D002D00A6
:1000F000A0162000EE3A74103000EE3A7410310071
:10010000EE3A74103200EE3A7410330020272000CB
:10011000472847004E2A4E00202A2000DF2F0000EB
:10012000DF2F0000CE272022D318382132180000FC
:10013000C3272022D318382132180000B530900090
:100140008E010B308F00DC308E000000C0308B043D
:1001500083160C140030F800063883129200F93030
:100160008316920083129B01AF01AE01B0013214DD
:10017000B2143215B2111930AC000930B30034306A
:10018000B4000130B500FF308316850086000030D2
:1001900088008801831288018316091089100911CB
:1001A00009108910091183128901831687008312AF
:1001B000AB00AB0083168701831287018A110A12F4
:1001C0000A2D94138C118316280883129300023091
:1001D000941BF12883161419EB280030111B0130F1
:1001E0008312F800080065308400831300080319A7
:1001F00006290630F800F701F70BFC28F80BFB285E
:100200007B30F700F70B0229800BF92808008316D2
:10021000250883124F048316A6002608A700911410
:10022000911810294E30A8008312E1208316270868
:10023000A8008312E1208316111511191D298312BC
:10024000080083162208A5008312072183162208BE
:10025000A30023080438A400A50083120721302935
:100260003129000083162308FB39A400A50083125E
:1002700007215330F700F70B3B2908007C08F039C1
:10028000FE007C0EF700F030F7057708F039831692
:10029000A0007E087D04A100A20083122121831604
:1002A00020087D04A100A2008312212108007B0800
:1002B000FC00FD013E2108000130FB0057211430F5
:1002C000E500F32008001030CD000230CE00CF0151
:1002D0008316111411186A294E30A8008312E120E8
:1002E000C901C9154E08CC002830E500F3204F089D
:1002F0008316A500831207216430E500F320303017
:100300008316A200831221210530E500F32030304E
:100310008316A200831221210530E500F32030303E
:100320008316A200831221210530E500F32020303E
:100330008316A2008312212149082038DF00FB0028
:1003400057210430CA004A154A080838DF00FB006C
:1003500057215C210230CB004B080438DF00FB0042
:1003600057210230FB0057211430E500F3208A1199
:100370000A120B2DF2014030F3001430F400543017
:10038000F50071084C020318C82901304C02F10035
:100390007230710784008313000870078038F600FC
:1003A000FB00572108007308FC000130FD003E21CE
:1003B00008000B08F0008B13831603178C170C141E
:1003C00000000000F01FE929831203138B17831626
:1003D000031783120C087F390319272AF0000D0830
:1003E000F1000F08F2007008F3000313D321710825
:1003F00003178D0072088F0003130B08F3008B1393
:10040000831603178C170C1400000000F31F0D2A2D
:10041000831203138B178316031783120C0D0E0D13
:100420007F390319272AF0000D08F1000F08F200A8
:100430007008F3000313D321710803178D007208AD
:100440008F008D0A03198F0A0313D9290317031389
:1004500008001030E600F701FA01E30CE20C031C7F
:10046000372A6408F7070318FA0A6508FA07FA0C2E
:10047000F70CF90CF80CE60B2D2A08000130F000FF
:10048000F101BA21663003178D0000308F0003138D
:10049000D9210330F0000130F100BA216E3003178A
:1004A0008D0000308F000313D921610B722A600880
:1004B000E3005F08E2000330E500E830E4002922B1
:1004C0007908E3007808E2007908E400E40AE4032C
:1004D00003196E2AFF30E500F320672A6208E50061
:1004E000F3205C218A110A12112D14138316911521
:1004F0009119782A77189112771C91161116111AF2
:100500007F2A83121308F8000800831611141118AB
:10051000872AD030A8008312E1208316A801831215
:10052000E120831691149118932AD130A8008312E8
:10053000E120E0015F0860020318A92A403060074B
:10054000840083130130F700752278088000E00AE8
:100550009A2AF70175227808E000831611151119FF
:10056000AF2A83128A110A12142D0330E202031CEF
:10057000C32A62308400831300080319C32AC12AE6
:10058000C12A800BC02A08008316051083120510AB
:100590008316051002308312E100F930E200B52223
:1005A000E10BCD2A83160514A630F700F70BD62AE7
:1005B0000000051483120518E72A0230E100C73055
:1005C000E200B522E10BDF2A0130F800E92A003011
:1005D000F8000800E2016208073C031C1E2B6108BA
:1005E000F7006208F8000319F92A0310F70CF80B5A
:1005F000F52A003077180130E3006308E400831621
:10060000051083120510831605100330F700F70B51
:10061000072B8312E408031D0F2B0510102B051464
:10062000831605108530F700F70B142B05140330E3
:10063000F700F70B192B8312E20AEB2A0800E501F9
:10064000E6016608073C031C4B2B8316051083123A
:100650000510831605100330F700F70B2D2B05143A
:100660000830F700F70B322B0514831267100518BA
:100670006714A630F700F70B3B2B0000003067181B
:100680000130F800F808031D472B0310482B031412
:10069000E50CE60A212B6508F8000800E00155305A
:1006A000DF00C422F808031D582B0030F800A62BE9
:1006B000CC30E100EA224430E100EA221F23F808AE
:1006C00003195E2BC422F808031D692B0030F800C3
:1006D000A62BCC30E100EA22BE30E100EA2260081D
:1006E000FA005F08E1006008E2001F23610884004F
:1006F000831362188317840A8001840378088000BA
:100700006008FA005F08E1006008E2005F0884000A
:10071000831360188317840A0008E4008403000828
:10072000E3001F23E60100306304F7007808640447
:10073000FA0061088400831362188317840A7A0818
:1007400080008403770880000130F800F80803195E
:10075000B52B560CFA00550CF900FA0CF90CFA0CF2
:10076000F90CFA0CF90C7908D70055080F39F70085
:10077000FA017708D9007A08DA005A08E300590824
:10078000E2000230E5007130E40029227908E0003F
:100790007808DF006008E2005F08E100E4010A3049
:1007A000E300F801F901F701FA016408031DDB2BEE
:1007B00063080319F52B1030E5000310E10DE20D7D
:1007C000F70DFA0D64087A02031DE82B630877021F
:1007D000031CF12B6308F702031CFA036408FA02F6
:1007E0000314F80DF90DE50BDD2B7908DE00780810
:1007F000DD008A110A12152D610EF7000F30F70582
:100800007708E3006308E4000A30E500F701F80127
:10081000640803106518F707F70CF80CE518F707DC
:10082000F70CF80C6519F707F70CF80CE519F70742
:10083000F70CF80C651AF707F70CF80CE51AF70730
:10084000F70CF80C651BF707F70CF80CE51BF7071E
:10085000F70CF80C7808E20061080F397807F80007
:1008600008007108F80170020318392C7008F700AD
:10087000452CF7010830F200F00DF70D71087702F2
:100880000318F700F80DF20B3C2C0800670B502CF6
:100890006408F0000A30F100312430307807512C20
:1008A0002030EA00670B5C2C6408F0000A30F1008D
:1008B0003124303077075D2C2030EB00680B682C3A
:1008C0006508F0000A30F100312430307807692CD7
:1008D0002030EC00680B742C6508F0000A30F10041
:1008E000312430307707752C2030ED00690B802CD7
:1008F0006608F0000A30F100312430307807812C8E
:100900002030EE00690B8C2C6608F0000A30F100F4
:100910003124303077078D2C2030EF006208F00052
:100920006308F100BA216A08F300D3216B08F300D1
:10093000D321763003178D0000308F000313D921A7
:100940006C08F300D3216D08F300D321773003172F
:100950008D0000308F000313D9216E08F300D321DE
:100960006F08F300D3218A110A12322D03081F39B0
:100970008300FF30AB00AB152B0883168700831272
:100980002B162B08831687003130930028308312F2
:10099000940083169417141381309900A6309800A0
:1009A0009030831298001930AC00AF01B001B10152
:1009B000B601D101D001D3010130D40083161F1438
:1009C0009F141F159F1107309C0083133130831231
:1009D000B7001530B800B9000430BA002530BB00AC
:1009E0001030BC002330BD009030BE009130BF00FD
:1009F0003030C000C1001030C2000830C3002030C9
:100A0000C4000230C5002030C6009030C7009130CD
:100A1000C8009E286329E0010330DF000130E100B7
:100A20003E2A0830DF00852A4E2B4208E100FC23D5
:100A30007808DF004108E100FC237808E000400866
:100A4000E100FC237808E1000430E200E3015F08E4
:100A5000E4006008E5006108E6000130E700E80016
:080A6000E900462C112D630092
:02400E00723FFF
:00000001FF
;PIC16F877A
;CRC=0466  CREATED="18-May-24 20:37"
