:100000000A308A00C82A0000FF00030E8301A10005
:100010000A08A0008A010408A2007708A300780853
:10002000A4007908A5007A08A60003170D08031399
:10003000A70003170F080313A80003170C080313E6
:10004000A90003170E080313AA00831383128C3030
:100050008400001C2D280C184E2822088400230838
:10006000F7002408F8002508F9002608FA002708F8
:1000700003178D000313280803178F0003132908A3
:1000800003178C0003132A0803178E00031320089C
:100090008A00210E8300FF0E7F0E09008A110A12CA
:1000A0005128AE0A8E010B308F00DC308E000C1010
:1000B0008A110A122D28C437A0306E1031102D106D
:1000C000C825C924000053284B2A2D2A5024C326B2
:1000D00000002E002E002D002D002D0020272000D6
:1000E000472847004E2A4E00202A2000DF2F00001C
:1000F000CE272022D318382132180000C32720220F
:10010000D3183821321800004E223A100001A037CF
:1001100043004E223A100001A037430047245F27D6
:10012000441D2000A0374300E3306910E430741010
:10013000E437EE3320346F00F417671063346F1028
:10014000E330A0306E004937E637F236613AE937DE
:100150006E00D632F239E9376E1D202B3117301779
:100160003000B53090008E010B308F00DC308E00F7
:10017000C0308B0483160C148312AF01AE01B001A2
:100180003214B21432151930AC000A30B300B40086
:100190001E30B500FF3083168500860000308800D1
:1001A000880183128801831609108910091109102A
:1001B0008910091183128901831687008312AB000D
:1001C000AB0083168701831287018A150A120A2B56
:1001D0000830F8000430F700F70BEC288711AB115A
:1001E0002B08831687000330F700F70BF528A80DBE
:1001F00083120712031C02292B162B088316870073
:10020000062983122B122B08831687000000831205
:10021000AB152B08831687008312871D0D29F80B59
:10022000EA280430F700F70B13298711AB112B08CC
:1002300083168700000083122B162B088316870075
:100240000330F700F70B22290330F700F70B2629BC
:100250008312AB152B08831687008312871D2E2966
:10026000F8010330F700F70B3329071A78148711C8
:10027000AB112B0883168700831207122B122B0851
:1002800083168700831208006230840083130008FD
:10029000031957290630F800F701F70B4D29F80B21
:1002A0004C297B30F700F70B5329800B4A290800B3
:1002B00083162208A5002508831251048316A60080
:1002C0002608A70083122B162B08831687000430FC
:1002D000F700F70B69298312AB152B0883168700EB
:1002E0000330F700F70B72298312871D7529071257
:1002F0002B122B08831687000430F700F70B7E299A
:1003000083128711AB112B08831687004E30A8008B
:100310008312E82083162708A8008312E8202B12F6
:100320002B088316870000008312AB152B08831659
:1003300087008312871D9A290430F700F70B9E2946
:10034000A12900002B162B08831687000430F70024
:10035000F70BA8292208A30023080438A4002408C6
:10036000A5002508831251048316A6002608A700BD
:1003700083122B162B08831687000430F700F70B27
:10038000BF298312AB152B08831687000330F700B3
:10039000F70BC8298312871DCB2907122B122B08B4
:1003A000831687000430F700F70BD42983128711D6
:1003B000AB112B08831687004E30A8008312E8206B
:1003C00083162708A8008312E8202B122B08831617
:1003D000870000008312AB152B0883168700831259
:1003E000871DF0290430F700F70BF429F7290000E6
:1003F0002B162B08831687000430F700F70BFE2915
:10040000012A022A00002308FB39A4002408A500C1
:100410002508831251048316A6002608A70083121C
:100420002B162B08831687000430F700F70B162ACB
:100430008312AB152B08831687000330F700F70BE8
:100440001F2A8312871D222A07122B122B088316BC
:1004500087000430F700F70B2B2A83128711AB11AA
:100460002B08831687004E30A8008312E8208316DD
:100470002708A8008312E8202B122B088316870078
:1004800000008312AB152B08831687008312871D8B
:10049000472A0430F700F70B4B2A4E2A00002B1690
:1004A0002B08831687000430F700F70B552A5230CB
:1004B000F700F70B592A5C2A0000831208007B081A
:1004C000FC00FD017C08F039FE007C0EF700F030E6
:1004D000F7057708F0398316A0007E087D04A10097
:1004E000A20083125821831620087D04A100A200D7
:1004F0008312582108001030CF000230D000D10103
:100500002B162B08831687000430F700F70B862A7A
:100510008312AB152B08831687000330F700F70B07
:100520008F2A831207122B122B08831687000430A0
:10053000F700F70B992A83128711AB112B0883164A
:1005400087004E30A8008312E820CB01CB1550085D
:10055000CE002830E200442151088316A50025086A
:10056000831251048316A6002608A70083122B16B7
:100570002B08831687000430F700F70BBD2A83127F
:10058000AB152B08831687000330F700F70BC62A3C
:100590008312871DC92A07122B122B088316870086
:1005A0000430F700F70BD22A83128711AB112B0806
:1005B000831687004E30A8008312E8208316270890
:1005C000A8008312E8202B122B0883168700000056
:1005D0008312AB152B08831687008312871DEE2A22
:1005E0000430F700F70BF22AF52A00002B162B082F
:1005F000831687000430F700F70BFC2A643083125F
:10060000E200442130308316A200831258210530C5
:10061000E200442130308316A200831258210530B5
:10062000E200442130308316A200831258210530A5
:10063000E200442120308316A200831258214B0887
:100640002038DC00FB005F220430CC004C154C0845
:100650000838DC00FB005F220130FB005F22143011
:10066000E20044210230CD004D080438DC00FB00DC
:100670005F220230FB005F221430E20044218A1521
:100680000A120D2BF2014030F3001430F400543004
:10069000F50071084E020318502B01304E02F10094
:1006A0007230710784008313000870078038F600E9
:1006B000FB005F2208007308FC000130FD007C088D
:1006C000F039FE007C0EF700F030F7057708F039BE
:1006D0008316A0007E087D04A100A2008312582189
:1006E000831620087D04A100A2008312582108006F
:1006F0000B08F0008B13831603178C170C140000E3
:100700000000F01F882B831203138B178316031727
:1007100083120C087F390319C62BF0000D08F10075
:100720000F08F2007008F30003135B23710803172E
:100730008D0072088F0003130B08F3008B138316D0
:1007400003178C170C1400000000F31FAC2B83124E
:1007500003138B178316031783120C0D0E0D7F39AD
:100760000319C62BF0000D08F1000F08F200700805
:10077000F30003135B23710803178D0072088F00C9
:100780008D0A03198F0A0313782B0317031308002C
:100790001030E300F701FA01E00CDF0C031CD62B4C
:1007A0006108F7070318FA0A6208FA07FA0CF70C4F
:1007B000F90CF80CE30BCC2B08000130F000F10130
:1007C00042235B3003178D0000308F000313782322
:1007D0000330F0000130F1004223633003178D0035
:1007E00000308F00031378235E0B162C5D08E000A9
:1007F0005C08DF000330E200E830E100C82379083C
:10080000E0007808DF007908E100E10AE10303195C
:100810000D2CFF30E2004421062C5F08E200442149
:100820000130FB005F221430E20044218A150A12D5
:10083000152B0830E1007708E2002B162B088316F1
:1008400087000330F700F70B232C8312AB152B081E
:10085000831687008312871D2B2C071A0314071E8B
:100860000310F80D0430F700F70B342CAB112B08F4
:100870008316870083128711E10B1D2C2B162B0882
:10088000831687000330F700F70B442C83120712FE
:1008900062080319502C2B122B0883168700831231
:1008A0000000AB152B08831687008312871D562C7A
:1008B0000430F700F70B5A2C8711AB112B08831665
:1008C00087000330F700F70B632C831207122B12FB
:1008D0002B0883168700831208002B162B0883161B
:1008E00087000430F700F70B732C8312AB152B082D
:1008F000831687000330F700F70B7C2C8312071256
:100900002B122B08831687000430F700F70B862C78
:1009100083128711AB112B0883168700D030A800F3
:100920008312E8208316A8018312E8202B162B08D7
:10093000831687000430F700F70B9C2C8312AB154D
:100940002B08831687000330F700F70BA52C8312C2
:10095000871DA82C07122B122B0883168700043042
:10096000F700F70BB12C83128711AB112B088316FC
:100970008700D130A8008312E820DD015C085D0209
:100980000318CD2C42305D07840083130130F7003B
:10099000192478088000DD0ABE2CF7011924780894
:1009A000DD002B122B088316870000008312AB1585
:1009B0002B08831687008312871DDC2C0430F70078
:1009C000F70BE02CE32C00002B162B088316870076
:1009D0000430F700F70BEA2C831208000930DC0022
:1009E0006D244A08410203195B2D0130DC002B16EF
:1009F0002B08831687000430F700F70BFD2C8312B9
:100A0000AB152B08831687000330F700F70B062D74
:100A1000831207122B122B08831687000430F7006D
:100A2000F70B102D83128711AB112B08831687004B
:100A3000D030A8008312E8208316A8018312E82092
:100A4000DD015D08083C031C3F2DDC080319332D34
:100A500039305D07840083130008DE008316A80088
:100A60008312E8203D2D42305D0784008313000887
:100A7000DE008316A8008312E820DD0A212D2B1248
:100A80002B088316870000008312AB152B088316F2
:100A900087008312871D4A2D0430F700F70B4E2D77
:100AA000512D00002B162B08831687000430F70009
:100AB000F70B582D83128A150A12182B0330DF0208
:100AC000031C6C2D5F3084008313000803196C2D08
:100AD0006A2D6A2D800B692D0800831605100510FC
:100AE000831205100230DD00F930DF005E25DD0BDA
:100AF000742D831605140730F700F70B7D2D802D1C
:100B0000000083120518872D0030F800972D6B30F8
:100B1000F700F70B892D8C2D00005C10051C5C1470
:100B2000F030DF005E2500305C180130F80008006E
:100B30000130DD005D08083C031CED2D0310DC0CCA
:100B4000003003180130DE005E08DF008316051058
:100B50000510831205101030F700F70BAD2D0000C3
:100B6000DF080319C32D8316051005108312051421
:100B70001030F700F70BBA2D00000518C22D003019
:100B8000F800E52DD22D83160510051083120510EF
:100B90001030F700F70BCA2D0000051CD22D0030D5
:100BA000F800E52D5230F700F70BD42DD72D0000BB
:100BB000831605100510831205145230F700F70B49
:100BC000DF2DE22D00000130F800F808031DEB2DA9
:100BD0000030F800EF2DDD0A9A2D0130F8000800F2
:100BE0006D25CC30DC0098254E30DC009825DC01EA
:100BF0009825DC0198257F30DC0098256D25CC30C8
:100C0000DC0098254430DC0098258A150A121B2B3D
:100C10008316051083120510831605100230831207
:100C2000DE00F930DF005E25DE0B112E8316051481
:100C3000A630F700F70B1A2E0000051483120518D2
:100C40002B2E0230DE00C730DF005E25DE0B232EA8
:100C50000130F8002D2E0030F8000800DF015F0899
:100C6000073C031C682E5E08F7005F08F8000319B4
:100C70003D2E0310F70CF80B392E00307718013099
:100C8000E0006008E100831605108312051083164A
:100C900005100230F700F70B4B2E4E2E000083128A
:100CA000E108031D552E0510562E05148316051058
:100CB0008430F700F70B5A2E5D2E00000514023029
:100CC000F700F70B612E642E00008312DF0A2F2E2F
:100CD0000800E201E3016308073C031C992E831618
:100CE000051083120510831605100230F700F70B6C
:100CF000772E7A2E000005140730F700F70B7E2EB2
:100D0000812E000005148312641005186414A630A7
:100D1000F700F70B892E0000003064180130F8004E
:100D2000F808031D952E0310962E0314E20CE30A17
:100D30006B2E6208F8000800F801F901F701FA01CA
:100D40006A08031DA62E69080319C02E1030EB0097
:100D50000310E70DE80DF70DFA0D6A087A02031D7E
:100D6000B32E69087702031CBC2E6908F702031C26
:100D7000FA036A08FA020314F80DF90DEB0BA82E1A
:100D80000800DD015230DC000826F808031DCB2ED8
:100D90000030F800192FCC30DE002E264430DE0063
:100DA0002E266926F8080319D12E0826F808031DF7
:100DB000DC2E0030F800192FCC30DE002E26BE309D
:100DC000DE002E265D08FA005C08DE005D08DF000C
:100DD00069265E08840083135F188317840A8001E4
:100DE0008403780880005D08FA005C08DE005D0876
:100DF000DF005C08840083135D188317840A0008F1
:100E0000E10084030008E0006926E301003060048B
:100E1000F70078086104FA005E08840083135F1805
:100E20008317840A7A0880008403770880000130E1
:100E3000F800F8080319282F530CFA00520CF90097
:100E4000FA0CF90CFA0CF90CFA0CF90C7908D4002C
:100E500052080F39F700FA017708D6007A08D70050
:100E60005708E0005608DF000230E2007130E10070
:100E7000C8237908DD007808DC007908E8007808E4
:100E8000E700EA010A30E9009C267908DB007808CF
:100E9000DA008A150A12232B5F080739F7005F0C66
:100EA000F800F80CF80C1F30F8057808610784008A
:100EB000831362188317F801F80AF70A602FF80DF8
:100EC000F70B5F2FE0080319682F780880046B2F59
:100ED000F8097808800508005F080739F7005F0CFB
:100EE000F800F80CF80C1F30F8057808600784004B
:100EF0008313611883170008F800F70A802FF80C95
:100F0000F70B7F2F08005D08DF000130E000E201F1
:100F10008030E1004C275D08DF00E101E0016C2733
:100F20007818C02F0C30E20044215D08DF0001304A
:100F3000E000E2018030E1004C275D08DF00E101C4
:100F4000E0016C277818BD2FDC080319B72F5D0866
:100F5000DF000130E000E2018030E1004C275D0855
:100F6000DF00E101E0016C27781CA72FBA2F0530C4
:100F7000E20044210130F800C22F0030F800C22FF7
:100F80000030F8000800F701F80162080310631848
:100F9000F707F70CF80CE318F707F70CF80C6319D0
:100FA000F707F70CF80CE319F707F70CF80C631ABE
:100FB000F707F70CF80CE31AF707F70CF80C631BAC
:100FC000F707F70CF80CE31BF707F70CF80C080011
:100FD0005E0EF7000F30F7057708E000E2000A30F8
:100FE000E300C3277808DF005E080F397807F800B0
:020FF0000800F7
:101000007108F8017002031808287008F700142806
:10101000F7010830F200F00DF70D710877020318A0
:10102000F700F80DF20B0B280800670B1F28640867
:10103000F0000A30F10000203030780720282030FE
:10104000EA00670B2B286408F0000A30F10000204A
:10105000303077072C282030EB00680B37286508E4
:10106000F0000A30F10000203030780738282030B6
:10107000EC00680B43286508F0000A30F1000020FE
:101080003030770744282030ED00690B4F28660880
:10109000F0000A30F100002030307807502820306E
:1010A000EE00690B5B286608F0000A30F1000020B2
:1010B000303077075C282030EF006208F0006308CA
:1010C000F1008A1142238A156A08F3008A115B2312
:1010D0008A156B08F3008A115B238A156B3003179E
:1010E0008D0000308F008A11031378238A156C0855
:1010F000F3008A115B238A156D08F3008A115B23C4
:101100008A156C3003178D0000308F008A1103138D
:1011100078238A156E08F3008A115B238A156F08FD
:10112000F3008A115B238A1508005E08F0005F084F
:10113000F1008A1142238A155D08E8005C08E70087
:10114000EA010A30E9008A119C268A1530307807B6
:10115000E2005D08E8005C08E700EA010A30E90007
:101160008A119C268A1530307707E300600BBE2871
:101170006208303C031DBE282030E200610BC92804
:10118000693003178D0000308F008A110313782314
:101190008A156208F3008A115B238A156308F3003D
:1011A0008A115B238A1508005E08F0005F08F100D1
:1011B0008A1142238A155D08E8005C08E700EA010D
:1011C0006430E9008A119C268A1530307807E200E5
:1011D0005D08E8005C08E700EA010A30E9008A11CE
:1011E0009C268A157908E6007808E5007908E80069
:1011F0007808E700EA010A30E9008A119C268A157E
:1012000030307707E3005D08E8005C08E700EA019A
:101210000A30E9008A119C268A1530307707E400ED
:10122000600B1E296208303C031D1E292030E2009D
:101230006308303C031D1E292030E300610B29297F
:101240006A3003178D0000308F008A110313782352
:101250008A156208F3008A115B238A156308F3007C
:101260008A115B238A156408F3008A115B238A15AF
:1012700008005E08DF000130E000E2018030E1009C
:101280008A114C278A155E08DF00E101E0018A110E
:101290006C278A15781861290130B6072930F700C4
:1012A000F70B50290000DD08031D5E295C0836029B
:1012B000031C5E29B6010130F80063290030F800F4
:1012C00063290030F80008004408DE008A11E8278E
:1012D0008A157808DC004308DE008A11E8278A15A1
:1012E0007808DD004208DE008A11E8278A157808B0
:1012F000DE00003032190130DF000030B21801305A
:10130000E000003032180130E1000430E20001302A
:10131000E3005C08E4005D08E5007808E6005F088B
:10132000E7006008E8006108E900152008004608A9
:10133000DE008A11E8278A157808DC004708DE00FD
:101340008A11E8278A157808DD004808DE008A112E
:10135000E8278A157808DE00003032190130DF00F6
:101360000030B2180130E000003032180130E100E6
:101370000430E2000130E3005C08E4005D08E500B1
:101380007808E6005F08E7006008E8006108E90007
:10139000152008004508DE008A11E8278A1578081C
:1013A000DC000030B2180130DD000430E200013012
:1013B000E300E4017808E500E601E7015D08E800E4
:1013C000E90115200800B008031DF529AF0803192D
:1013D000EB292F0BEC2964212F08023C03199721DC
:1013E0002F08033C0319CA21092AB01BFB29300826
:1013F000033C031CFD296421092AB01B032A300881
:10140000063C031C052A9721092A3008073C0319CA
:10141000CA2108005C0EE0000F30E0055C080F39BF
:10142000DF006008E2000A30E3008A11C3278A1552
:101430005F087807DE00DD08031D202ADE0A212A66
:10144000DE035E08F0000A30F10000207808E000BA
:101450005E08F0000A30F10000207708DF00600E1F
:10146000F700F030F70577085F04E1006108F80045
:1014700008002B162B08831687000430F700F70BA3
:101480003F2A8312AB152B08831687000330F70021
:10149000F70B482A831207122B122B08831687009A
:1014A0000430F700F70B522A83128711AB112B0877
:1014B00083168700D030A8008A118312E8208A158D
:1014C0005C088316A8008A118312E8208A155D083B
:1014D0008316A8008A118312E8208A152B122B0884
:1014E0008316870000008312AB152B088316870034
:1014F0008312871D792A0430F700F70B7D2A802A92
:1015000000002B162B08831687000430F700F70B1A
:10151000872A831208005C085D068039DF00DC1F23
:10152000932ADC09DC0ADD1F972ADD09DD0A5D0844
:10153000F8015C0203189F2A5C08F700AB2AF70148
:101540000830DE00DC0DF70D5D0877020318F700A8
:10155000F80DDE0BA22ADF1FAF2AF809F80A0800EF
:101560005C085D020318BD2A08178316081383124E
:10157000881383168813C42A83120813831608134A
:10158000831288178316881383128A150A12D22EA3
:1015900003081F398300FF30AB00813083169900A8
:1015A000A63098009030831298001930AC00AF013B
:1015B000B001B101B7010130B80083161F149F14A8
:1015C0001F159F1107309C00831331308312B9001F
:1015D0001530BA00BB000430BC002530BD0010300F
:1015E000BE002330BF009030C0009230C1003030C8
:1015F000C200C3001030C4000830C5002030C6004F
:101600000230C7002030C8009030C9009630CA00B0
:101610008A11B1288A158A117B2A8A15DD010330C7
:10162000DC000130DE008A11DD2B8A158A11EE2CD8
:101630008A158A11F02D8A150830DC008A116D2474
:101640008A158A11C12E8A150130DC003030DD0088
:101650008A1183278A15F8080319352BB70AAE01BA
:10166000B001AF013214B21432153708043C03182C
:101670003B2BB701CD2E3808370203194B2B370807
:10168000B8000130FB008A115F228A151430E20095
:101690008A1144218A1537080319582B013A031976
:1016A000AA2B033A0319152C013A0319712EA52E02
:1016B0004408DE008A11E8278A157808DC00430810
:1016C000DE008A11E8278A157808DD004208DE006E
:1016D0008A11E8278A157808DE000430E200E30169
:1016E0005C08E4005D08E5007808E6000130E700EA
:1016F000E800E90015200230F0000130F1008A1105
:1017000042238A15843003178D0000308F008A1120
:10171000031378238A15DD015408DC000630DE004F
:101720000130DF00E000E10195205B08DD005A0890
:10173000DC000830DE000130DF00E000E100D420F2
:10174000873003178D0000308F008A110313782330
:101750008A15CD2EDD010330DC003130DE00392169
:101760007808AC07DD010330DC003230DE003921BF
:101770007808AC020130DC003330DD008A118327A9
:101780008A15780BC42BB7010230F000F1018A11E1
:1017900042238A15893003178D0000308F008A118B
:1017A000031378238A15DD015408DC000630DE00BF
:1017B000DF010130E000E10195205B08DD005A08FF
:1017C000DC000830DE00DF01E0010130E100D42060
:1017D0008C3003178D0000308F008A11031378239B
:1017E0008A150230F0000130F1008A1142238A1577
:1017F0008E3003178D0000308F008A110313782379
:101800008A15DD012C08DC000A30DE000130DF0023
:10181000E000E1019520923003178D0000308F0029
:101820008A11031378238A15CD2E0130F000F101BF
:101830008A1142238A15943003178D0000308F00DF
:101840008A11031378238A152E08043C031CEA2D01
:10185000B00803195B2CB0080319582C300B312C3D
:10186000352C3008043C031D3A2C0130B206B2146A
:101870003215572C3008023C0319422C3008053C25
:10188000031D472C32140230B2063215572C300893
:10189000033C03194F2C3008063C031D542C321412
:1018A000B2140430B206572C3214B21432155B2C29
:1018B0003214B2143215DD010230DC003330DE00A8
:1018C0003921F8080319872C0130AF002F0B852C24
:1018D000B00AB01B6F2C3008033C031C722C013083
:1018E000AF00852CB01B782C3008063C031C7B2CE9
:1018F0000230AF00852C3008073C031D822C0330DA
:10190000AF00852CB001AF01B701B101E321DD01CA
:101910000130DC003130DE003921F8080319372DA1
:10192000B101B01B972C3008033C031CD82C3008A5
:10193000013A0319A22C033A0319B32C013A0319F3
:10194000C52CD72C4208593C031DA82CC201AE2C33
:101950004208DC00DD010A227808C200DC014208EE
:10196000DD003922D72C4308593C031DB92CC30193
:10197000BF2C4308DC00DD010A227808C3000130D7
:10198000DC004308DD003922D72C4408233C031D2A
:10199000CB2CC401D12C4408DC00DD010A227808DC
:1019A000C4000230DC004408DD003922D72C332D7E
:1019B000B01BDE2C3008063C031C222D3008043AF4
:1019C0000319E92C013A0319FB2C033A03190E2DD4
:1019D000212D4808993C031DEF2CC801F52C48081F
:1019E000DC00DD010A227808C8000630DC00480867
:1019F000DD003922212D4708123C031D022D013044
:101A0000C700082D4708DC00DD010A227808C7005E
:101A10000530DC004708DD003922212D4608313C25
:101A2000031D152D0130C6001B2D4608DC00DD010D
:101A30000A227808C6000430DC004608DD0039229E
:101A4000212D332D3008073C031D332D4508083C5C
:101A5000031D2D2D0230C5002E2DC50A0330DC00DC
:101A60004508DD0039223214B2143215E321DD01BC
:101A70000130DC003230DE003921F8080319E92D8D
:101A8000B101B01B472D3008033C031C8B2D3008DF
:101A9000013A0319522D033A0319642D013A03192F
:101AA000772D8A2DC208031D582D5930C2005F2D95
:101AB0004208DC000130DD000A227808C200DC01A7
:101AC0004208DD0039228A2DC308031D6A2D5930D2
:101AD000C300712D4308DC000130DD000A227808C4
:101AE000C3000130DC004308DD0039228A2DC40820
:101AF000031D7D2D2330C400842D4408DC000130FB
:101B0000DD000A227808C4000230DC004408DD0051
:101B100039228A2DE52DB01B912D3008063C031C7F
:101B2000D42D3008013A03199C2D033A0319AF2D27
:101B3000013A0319C12DD32DC808031DA22D9930D8
:101B4000C800A92D4808DC000130DD000A22780811
:101B5000C8000630DC004808DD003922D32D470BD1
:101B6000B42D0C30C700BB2D4708DC000130DD0070
:101B70000A227808C7000530DC004708DD0039225A
:101B8000D32D460BC62D1530C600CD2D4608DC00E2
:101B90000130DD000A227808C6000430DC00460867
:101BA000DD003922D32DE52D3008073C031DE52D3E
:101BB0004508023C031DDF2D0830C500E02DC5039C
:101BC0000330DC004508DD0039223214B21432152E
:101BD000E321022E2E08093C0318022EAE01B11B90
:101BE000F52D3108093C031CF72DB10AFC2DB0017D
:101BF000AF013214B214321542082D020319022E1D
:101C00004208AD00E321F0010130F1008A114223C6
:101C10008A15AF08031D162E6E3003178D00003095
:101C20008F008A11031378238A153D2E2F0B222E45
:101C3000703003178D0000308F008A110313782352
:101C40008A153D2E2F08023C031D302E72300317DB
:101C50008D0000308F008A11031378238A153D2EE2
:101C60002F08033C031D3D2E743003178D000030F8
:101C70008F008A11031378238A150D30F00001308C
:101C8000F1008A1142238A1530303007DC00F3005E
:101C90008A115B238A15B0080319672E3108DC000E
:101CA0000A30DD008B2230307807DC00F3008A1127
:101CB0005B238A153108DC000A30DD008B223030CE
:101CC0007707DC00F3008A115B238A15702E7630CB
:101CD00003178D0000308F008A11031378238A15B3
:101CE000CD2E0130F000F1018A1142238A159C307B
:101CF00003178D0000308F008A11031378238A1593
:101D00003308DE008A11E8278A157808DC003408D9
:101D1000DE008A11E8278A157808DD003508DE0024
:101D20008A11E8278A157808DE000430E2000130C5
:101D3000E3005C08E4005D08E5007808E600013097
:101D4000E700E800E9001520CD2E0230F000F10197
:101D50008A1142238A15A33003178D0000308F00AB
:101D60008A11031378238A15F0010130F1008A11DA
:101D700042238A15A93003178D0000308F008A1185
:101D8000031378238A150130DC003330DD008A111B
:101D900083278A15780BCD2EB7015408DC002C0858
:081DA000DD00B02A1C2B6300DA
:02400E00723FFF
:00000001FF
;PIC16F877A
;CRC=1597  CREATED="13-Apr-24 15:18"
