:1000000010308A0000280000FF00030E8301A100C9
:100010000A08A0008A010408A2007708A300780853
:10002000A4007908A5007A08A60003170D08031399
:10003000A70003170F080313A80003170C080313E6
:10004000A90003170E080313AA00831383128C3030
:100050008400001C2D280C184E2822088400230838
:10006000F7002408F8002508F9002608FA002708F8
:1000700003178D000313280803178F0003132908A3
:1000800003178C0003132A0803178E00031320089C
:100090008A00210E8300FF0E7F0E09008A110A12CA
:1000A0005128AE0A8E010B308F00DC308E00B21D5D
:1000B00061283608633C031C5F28B60A6128B60134
:1000C000B2110C108A110A122D28C437A0306E10FC
:1000D00031102D10C825C924000053284B2A2D2A81
:1000E0005024C32600002E002E002D002D00A01647
:1000F000200020272000472847004E2A4E00202AB3
:100100002000DF2F0000DF2F0000CE272022D31891
:10011000382132180000C3272022D3183821321882
:1001200000004E223A100001A03743004E223A1040
:100130000001A037430047245F27441D2000A0375B
:100140004300E3306910E4307410E437EE332034B8
:100150006F00F417671063346F10E330A0306E0047
:100160006334E5316B10E3376D10E53970004937C2
:10017000E637F236613AE9376E00D632F239E937BE
:100180006E1D202B311730173000B53090008E01D6
:100190000B308F00DC308E00C0308B0483160C14C3
:1001A0000030F800063883129200F930831692006E
:1001B00083129B01AF01AE01B0013214B2143215AB
:1001C000B2111930AC000930B3003430B400013042
:1001D000B500FF3083168500860000308800880156
:1001E00083128801831609108910091109108910DA
:1001F000091183128901831687008312AB00AB00BB
:1002000083168701831287018A110A164328083052
:10021000F8000430F700F70B0B298711AB112B08FE
:10022000831687000330F700F70B1429A90D8312FA
:100230000712031C21292B162B088316870025295A
:1002400083122B122B088316870000008312AB1534
:100250002B08831687008312871D2C29F80B092988
:100260000430F700F70B32298711AB112B088316E6
:100270008700000083122B162B088316870003309B
:10028000F700F70B41290330F700F70B45298312DC
:10029000AB152B08831687008312871D4D29F801A3
:1002A0000330F700F70B5229071A78148711AB11A6
:1002B0002B0883168700831207122B122B08831634
:1002C0008700831208006330840083130008031939
:1002D00076290630F800F701F70B6C29F80B6B292B
:1002E0007B30F700F70B7229800B69290800831611
:1002F0002308A6002608831252048316A7002708A5
:10030000A80083122B162B08831687000430F700F1
:10031000F70B88298312AB152B088316870003304F
:10032000F700F70B91298312871D942907122B12CE
:100330002B08831687000430F700F70B9D298312E2
:100340008711AB112B08831687004E30A90083124A
:10035000072183162808A900831207212B122B08D6
:100360008316870000008312AB152B0883168700C5
:100370008312871DB9290430F700F70BBD29C02966
:1003800000002B162B08831687000430F700F70BAC
:10039000C7292308A40024080438A5002508A600BE
:1003A0002608831252048316A7002708A800831288
:1003B0002B162B08831687000430F700F70BDE2975
:1003C0008312AB152B08831687000330F700F70B59
:1003D000E7298312871DEA2907122B122B0883169F
:1003E00087000430F700F70BF32983128711AB1154
:1003F0002B08831687004E30A9008312072183162D
:100400002808A900831207212B122B0883168700C6
:1004100000008312AB152B08831687008312871DFB
:100420000F2A0430F700F70B132A162A00002B16A8
:100430002B08831687000430F700F70B1D2A202AAB
:10044000212A00002408FB39A5002508A60026085B
:10045000831252048316A7002708A80083122B16C4
:100460002B08831687000430F700F70B352A831218
:10047000AB152B08831687000330F700F70B3E2AD5
:100480008312871D412A07122B122B08831687001F
:100490000430F700F70B4A2A83128711AB112B089F
:1004A000831687004E30A90083120721831628087F
:1004B000A900831207212B122B0883168700000046
:1004C0008312AB152B08831687008312871D662ABB
:1004D0000430F700F70B6A2A6D2A00002B162B0850
:1004E000831687000430F700F70B742A5230F700A8
:1004F000F70B782A7B2A0000831208007C08FD0095
:10050000FE017D08F0398316A0007D0EF700F03063
:10051000F7057708F039A10020087E04A200A300A7
:1005200083127721831621087E04A200A300831280
:10053000772108001030D0000230D100D2012B16F4
:100540002B08831687000430F700F70BA52A8312C7
:10055000AB152B08831687000330F700F70BAE2A84
:10056000831207122B122B08831687000430F70022
:10057000F70BB82A83128711AB112B08831687005B
:100580004E30A90083120721CC01CC155108CF00B1
:100590002830E300632152088316A6002608831240
:1005A00052048316A7002708A80083122B162B08D5
:1005B000831687000430F700F70BDC2A8312AB1593
:1005C0002B08831687000330F700F70BE52A831208
:1005D000871DE82A07122B122B0883168700043088
:1005E000F700F70BF12A83128711AB112B08831642
:1005F00087004E30A9008312072183162808A9001E
:10060000831207212B122B08831687000000831208
:10061000AB152B08831687008312871D0D2B043022
:10062000F700F70B112B142B00002B162B08831649
:1006300087000430F700F70B1B2B64308312E300B4
:10064000632130308316A300831277210530E30045
:10065000632130308316A300831277210530E30035
:10066000632130308316A300831277210530E30025
:10067000632120308316A300831277214C08203891
:10068000DD00FC007E220430CD004D154D080838F9
:10069000DD00FC007E220130FC007E221430E300ED
:1006A00063210230CE004E080438DD00FC007E22BB
:1006B0000230FC007E221430E30063218A110A1606
:1006C0004628F3014030F4001430F5005430F600B1
:1006D00072084F0203186F2B01304F02F200733083
:1006E000720784008313000871078038FB00FC0048
:1006F0007E2208007408FD000130FE007D08F039FC
:100700008316A0007D0EF700F030F7057708F0396A
:10071000A10020087E04A200A30083127721831683
:1007200021087E04A200A3008312772108000B0891
:10073000F1008B13831603178C170C1400000000B4
:10074000F11FA72B831203138B1783160317831232
:100750000C087F390319E52BF1000D08F2000F0892
:10076000F3007108F40003137A23720803178D0055
:1007700073088F0003130B08F4008B138316031701
:100780008C170C1400000000F41FCB2B83120313F2
:100790008B178316031783120C0D0E0D7F39031967
:1007A000E52BF1000D08F2000F08F3007108F400CA
:1007B00003137A23720803178D0073088F008D0AC4
:1007C00003198F0A0313972B031703130800103024
:1007D000E400F701FA01E10CE00C031CF52B6208C0
:1007E000F7070318FA0A6308FA07FA0CF70CF90C72
:1007F000F80CE40BEB2B08000130F100F20161234F
:10080000653003178D0000308F00031397230330EA
:10081000F1000130F20061236D3003178D000030CC
:100820008F00031397235F0B352C5E08E1005D08F2
:10083000E0000330E300E830E200E7237908E1005C
:100840007808E0007908E200E20AE20303192C2CA0
:10085000FF30E3006321252C6008E30063210130B1
:10086000FC007E221430E30063218A110A164E2810
:100870000830E2007708E3002B162B088316870068
:100880000330F700F70B422C8312AB152B088316AD
:1008900087008312871D4A2C071A0314071E0310B2
:1008A000F80D0430F700F70B532CAB112B0883160F
:1008B000870083128711E20B3C2C2B162B08831622
:1008C00087000330F700F70B632C831207126308CD
:1008D00003196F2C2B122B0883168700831200003C
:1008E000AB152B08831687008312871D752C0430E7
:1008F000F700F70B792C8711AB112B0883168700B3
:100900000330F700F70B822C831207122B122B08EF
:1009100083168700831208002B162B088316870086
:100920000430F700F70B922C8312AB152B088316BB
:1009300087000330F700F70B9B2C831207122B1252
:100940002B08831687000430F700F70BA52C8312C1
:100950008711AB112B0883168700D030A9008312B2
:1009600007218316A901831207212B162B08831652
:1009700087000430F700F70BBB2C8312AB152B0854
:10098000831687000330F700F70BC42C8312871DF2
:10099000C72C07122B122B08831687000430F70090
:1009A000F70BD02C83128711AB112B08831687000D
:1009B000D130A90083120721DE015D085E02031811
:1009C000EC2C43305E07840083130130F700382499
:1009D00078088000DE0ADD2CF70138247808DE0074
:1009E0002B122B088316870000008312AB152B08EF
:1009F000831687008312871DFB2C0430F700F70B4A
:100A0000FF2C022D00002B162B08831687000430C4
:100A1000F700F70B092D831208000930DD008C2444
:100A20004B08420203197A2D0130DD002B162B08EA
:100A3000831687000430F700F70B1C2D8312AB15CB
:100A40002B08831687000330F700F70B252D831240
:100A500007122B122B08831687000430F700F70BC0
:100A60002F2D83128711AB112B0883168700D030EE
:100A7000A900831207218316A90183120721DE0131
:100A80005E08083C031C5E2DDD080319522D3A3028
:100A90005E07840083130008DF008316A900831219
:100AA00007215C2D43305E07840083130008DF00BC
:100AB0008316A90083120721DE0A402D2B122B0872
:100AC0008316870000008312AB152B08831687005E
:100AD0008312871D692D0430F700F70B6D2D702DE3
:100AE00000002B162B08831687000430F700F70B45
:100AF000772D83128A110A1651280330E002031C55
:100B00008B2D603084008313000803198B2D892DF1
:100B1000892D800B882D080083160510051083127F
:100B200005100230DE00F930E0007D25DE0B932D4C
:100B3000831605140730F700F70B9C2D9F2D00003E
:100B400083120518A62D0030F800B62D6B30F70083
:100B5000F70BA82DAB2D00005D10051C5D14F030C7
:100B6000E0007D2500305D180130F80008000130FC
:100B7000DE005E08083C031C0C2E0310DD0C003068
:100B800003180130DF005F08E00083160510051030
:100B9000831205101030F700F70BCC2D0000E00891
:100BA0000319E22D83160510051083120514103069
:100BB000F700F70BD92D00000518E12D0030F800E3
:100BC000042EF12D83160510051083120510103028
:100BD000F700F70BE92D0000051CF12D0030F8009F
:100BE000042E5230F700F70BF32DF62D000083167C
:100BF00005100510831205145230F700F70BFE2D77
:100C0000012E00000130F800F808031D0A2E003004
:100C1000F8000E2EDE0AB92D0130F80008008C25F0
:100C2000CC30DD00B7254E30DD00B725DD01B7251E
:100C3000DD01B7257F30DD00B7258C25CC30DD0008
:100C4000B7254430DD00B7258A110A1654288316CB
:100C50000510831205108316051002308312DF0081
:100C6000F930E0007D25DF0B302E83160514A63009
:100C7000F700F70B392E00000514831205184A2ED1
:100C80000230DF00C730E0007D25DF0B422E01304F
:100C9000F8004C2E0030F8000800E0016008073C26
:100CA000031C872E5F08F7006008F80003195C2E0C
:100CB0000310F70CF80B582E003077180130E100C4
:100CC0006108E200831605108312051083160510D3
:100CD0000230F700F70B6A2E6D2E00008312E20837
:100CE000031D742E0510752E05148316051084300F
:100CF000F700F70B792E7C2E000005140230F70068
:100D0000F70B802E832E00008312E00A4E2E08007F
:100D1000E301E4016408073C031CB82E83160510A8
:100D200083120510831605100230F700F70B962E7C
:100D3000992E000005140730F700F70B9D2EA02E0A
:100D4000000005148312651005186514A630F7001D
:100D5000F70BA82E0000003065180130F800F808E5
:100D6000031DB42E0310B52E0314E30CE40A8A2EDF
:100D70006308F8000800F801F901F701FA016B08AF
:100D8000031DC52E6A080319DF2E1030EC00031076
:100D9000E80DE90DF70DFA0D6B087A02031DD22E4E
:100DA0006A087702031CDB2E6A08F702031CFA03A9
:100DB0006B08FA020314F80DF90DEC0BC72E0800AE
:100DC000DE015330DD002726F808031DEA2E00302F
:100DD000F800382FCC30DF004D264430DF004D26A0
:100DE0008826F8080319F02E2726F808031DFB2E85
:100DF0000030F800382FCC30DF004D26BE30DF0049
:100E00004D265E08FA005D08DF005E08E0008826D7
:100E10005F088400831360188317840A80018403A9
:100E2000780880005E08FA005D08DF005E08E000D8
:100E30005D08840083135E188317840A0008E200AB
:100E400084030008E1008826E40100306104F70013
:100E500078086204FA005F0884008313601883171F
:100E6000840A7A0880008403770880000130F80043
:100E7000F8080319472F540CFA00530CF900FA0C28
:100E8000F90CFA0CF90CFA0CF90C7908D500530896
:100E90000F39F700FA017708D7007A08D800580808
:100EA000E1005708E0000230E3007130E200E72380
:100EB0007908DE007808DD007908E9007808E800A4
:100EC000EB010A30EA00BB267908DC007808DB0079
:100ED0008A110A165C2860080739F700600CF800D0
:100EE000F80CF80C1F30F8057808620784008313AB
:100EF00063188317F801F80AF70A7F2FF80DF70B2C
:100F00007E2FE1080319872F780880048A2FF809BB
:100F100078088005080060080739F700600CF800C1
:100F2000F80CF80C1F30F80578086107840083136B
:100F3000621883170008F800F70A9F2FF80CF70BC8
:100F40009E2F08005E08E0000130E100E3018030E0
:100F5000E2006B275E08E000E201E1018B277818D0
:100F6000DF2F0C30E30063215E08E0000130E10078
:100F7000E3018030E2006B275E08E000E201E1015E
:100F80008B277818DC2FDD080319D62F5E08E000C8
:100F90000130E100E3018030E2006B275E08E000F1
:100FA000E201E1018B27781CC62FD92F0530E30021
:100FB00063210130F800E12F0030F800E12F00300C
:100FC000F80008005F0EF7000F30F7057708E10022
:100FD000E3000A30E4008A1500208A117808E00056
:0A0FE0005F080F396007F8000800F1
:10100000F701F801630803106418F707F70CF80CF0
:10101000E418F707F70CF80C6419F707F70CF80C4D
:10102000E419F707F70CF80C641AF707F70CF80C3B
:10103000E41AF707F70CF80C641BF707F70CF80C29
:10104000E41BF707F70CF80C08007208F8017102AE
:1010500003182D287108F7003928F7010830F3002C
:10106000F10DF70D720877020318F700F80DF30B76
:1010700030280800680B44286508F1000A30F200A7
:1010800025203030780745282030EB00680B5028A9
:101090006508F1000A30F20025203030770751282A
:1010A0002030EC00690B5C286608F1000A30F20081
:1010B0002520303078075D282030ED00690B682846
:1010C0006608F1000A30F2002520303077076928E1
:1010D0002030EE006A0B74286708F1000A30F20035
:1010E00025203030780775282030EF006A0B8028E3
:1010F0006708F1000A30F200252030307707812898
:101100002030F0006308F1006408F2008A116123C6
:101110008A156B08F4008A117A238A156C08F4008A
:101120008A117A238A15753003178D0000308F00DD
:101130008A11031397238A156D08F4008A117A2304
:101140008A156E08F4008A117A238A1576300317FF
:101150008D0000308F008A11031397238A156F08C2
:10116000F4008A117A238A157008F4008A117A2310
:101170008A1508005F08F1006008F2008A116123F7
:101180008A155E08E9005D08E800EB010A30EA0014
:101190008A11BB268A1530307807E3005E08E90023
:1011A0005D08E800EB010A30EA008A11BB268A15C7
:1011B00030307707E400610BE3286308303C031DFF
:1011C000E3282030E300620BEE28733003178D0014
:1011D00000308F008A11031397238A156308F400E7
:1011E0008A117A238A156408F4008A117A238A15F1
:1011F00008005F08F1006008F2008A1161238A1577
:101200005E08E9005D08E800EB016430EA008A113D
:10121000BB268A1530307807E3005E08E9005D08D8
:10122000E800EB010A30EA008A11BB268A1579082A
:10123000E7007808E6007908E9007808E800EB01A3
:101240000A30EA008A11BB268A1530307707E4009D
:101250005E08E9005D08E800EB010A30EA008A1147
:10126000BB268A1530307707E500610B43296308F8
:10127000303C031D43292030E3006408303C031D4B
:1012800043292030E400620B4E29743003178D008F
:1012900000308F008A11031397238A156308F40026
:1012A0008A117A238A156408F4008A117A238A1530
:1012B0006508F4008A117A238A1508005F08E000A7
:1012C0000130E100E3018030E2008A116B278A15CA
:1012D0005F08E000E201E1018A118B278A15781886
:1012E00086290130B7072930F700F70B7529000070
:1012F000DE08031D83295D083702031C8329B7011B
:101300000130F80088290030F80088290030F80002
:101310000800B0080319B629300B8F29932930082B
:10132000043C031D98290130B206B2143215B529C8
:101330003008023C0319A0293008053C031DA529EB
:1013400032140230B2063215B5293008033C0319B5
:10135000AD293008063C031DB2293214B214043002
:10136000B206B5293214B2143215B9293214B214A6
:10137000321508004508DF008A11E2278A1578082F
:10138000DD004408DF008A11E2278A157808DE00B4
:101390004308DF008A11E2278A157808DF00003051
:1013A00032190130E0000030B2180130E1000030A5
:1013B00032180130E2000430E3000130E4005D083F
:1013C000E5005E08E6007808E7006008E8006108CC
:1013D000E9006208EA003A2008004708DF008A11A5
:1013E000E2278A157808DD004808DF008A11E22725
:1013F0008A157808DE004908DF008A11E2278A157D
:101400007808DF00003032190130E0000030B218F7
:101410000130E100003032180130E2000430E30016
:101420000130E4005D08E5005E08E6007808E700AA
:101430006008E8006108E9006208EA003A20080054
:101440004608DF008A11E2278A157808DD0000309F
:10145000B2180130DE000430E3000130E400E501A1
:101460007808E600E701E8015E08E900EA013A20B1
:101470000800B008031D4B2AAF080319412A2F0B9F
:10148000422ABA212F08023C0319ED212F08033C00
:10149000031920225F2AB01B512A3008033C031C89
:1014A000532ABA215F2AB01B592A3008063C031C74
:1014B0005B2AED215F2A3008073C0319202208002F
:1014C0005D0EE1000F30E1055D080F39E0006108B5
:1014D000E3000A30E400002060087807DF00DE083F
:1014E000031D742ADF0A752ADF035F08F1000A3042
:1014F000F20025207808E1005F08F1000A30F200D0
:1015000025207708E000610EF700F030F705770836
:101510006004E2006208F80008002B162B0883160E
:1015200087000430F700F70B932A8312AB152B08C2
:10153000831687000330F700F70B9C2A83120712EB
:101540002B122B08831687000430F700F70BA62A0E
:1015500083128711AB112B0883168700D030A900A6
:101560008A11831207218A155D088316A9008A1142
:10157000831207218A155E088316A9008A11831237
:1015800007218A152B122B0883168700000083126F
:10159000AB152B08831687008312871DCD2A0430D4
:1015A000F700F70BD12AD42A00002B162B0883163C
:1015B00087000430F700F70BDB2A831208005D0870
:1015C0005E068039E000DD1FE72ADD09DD0ADE1F47
:1015D000EB2ADE09DE0A5E08F8015D020318F32A31
:1015E0005D08F700FF2AF7010830DF00DD0DF70D79
:1015F0005E0877020318F700F80DDF0BF62AE01FEC
:10160000032BF809F80A08003308DF008A11E227E3
:101610008A157808DD003408DF008A11E2278A1570
:101620007808DE003508DF008A11E2278A1578087D
:10163000DF00003032190130E0000030B218013014
:10164000E100003032180130E2000430E3000130E4
:10165000E4005D08E5005E08E6007808E700600841
:10166000E8006108E9006208EA003A2008005D0825
:101670005E020318442B081783160813831288137D
:10168000831688134B2B83120813831608138312B7
:1016900088178316881383128A110A16A32D45080A
:1016A000DF008A11E2278A157808DD003308DF00A1
:1016B0008A11E2278A1578085D02031D7F2B4408F2
:1016C000DF008A11E2278A157808DD003408DF0080
:1016D0008A11E2278A1578085D02031D7F2B4308D3
:1016E000DF008A11E2278A157808DD003508DF005F
:1016F0008A11E2278A1578085D020319B215B21D16
:10170000B12BDD015D08313C031CB02B8714AB10FD
:101710002B088316870001308312E3008A116321AE
:101720008A150230DE00F930E0008A117D258A1525
:10173000DE0B932B8710AB102B088316870012301B
:101740008312E3008A1163218A150230DE00F9302A
:10175000E0008A117D258A15DE0BA72BDD0A822B7E
:10176000D72BDD015D08313C031CD72B8714AB1050
:101770002B088316870004308312DE00C730E00098
:101780008A117D258A15DE0BBE2B8710AB102B0826
:101790008316870013308312E3008A1163218A15B0
:1017A000C830E0008A117D258A15DD0AB22B8A1126
:0417B0000A16A82D40
:1020000003081F398300FF30AB008130831699002D
:10201000A63098009030831298001930AC00AF01C0
:10202000B001B101B601B8010130B90083161F1427
:102030009F141F159F1107309C00831331308312AA
:10204000BA001530BB00BC000430BD002530BE0016
:102050001030BF002330C0009030C1009230C20069
:102060003030C300C4001030C5000830C600203036
:10207000C7000230C8002030C9009030CA00963036
:10208000CB000A12C5280A160A129A2A0A16DE017D
:102090000330DD000130DF000A12FC2B0A160A12A1
:1020A0000D2D0A160A120F2E0A160830DD000A122C
:1020B0008C240A160A12E02E0A160130DD00303098
:1020C000DE000A12A2270A16F80803196E28B80AB9
:1020D000AE01B001AF013214B21432153808053C1C
:1020E00003187428B8019C2D390838020319842874
:1020F0003808B9000130FC000A127E220A1614309A
:10210000E3000A1263210A16380803199428013AD9
:102110000319F228033A03197129013A03192E2CE5
:10212000073A0319642D742D4508DF000A12E227CF
:102130000A167808DD004408DF000A12E2270A16B2
:102140007808DE004308DF000A12E2270A16780842
:10215000DF000430E300E4015D08E5005E08E6000E
:102160007808E7000130E800E900EA000A128A1561
:102170003A200A168A110230F1000130F2000A12E8
:1021800061230A16913003178D0000308F000A1268
:10219000031397230A16DE015508DD000630DF0021
:1021A0000130E000E100E2010A128A15BA200A16A5
:1021B0008A115C08DE005B08DD000830DF000130BA
:1021C000E000E100E2000A128A15F9200A168A11DD
:1021D000943003178D0000308F000A1203139723E9
:1021E0000A169C2DDE010330DD003130DF000A12BB
:1021F0008A155E210A168A117808AC07DE010330C1
:10220000DD003230DF000A128A155E210A168A11BB
:102210007808AC020130DD003330DE000A12A2275C
:102220000A16780B1429B8010230F100F2010A12E3
:1022300061230A16963003178D0000308F000A12B2
:10224000031397230A16DE015508DD000630DF0070
:10225000E0010130E100E2010A128A15BA200A16F3
:102260008A115C08DE005B08DD000830DF00E00159
:10227000E1010130E2000A128A15F9200A168A11DA
:10228000993003178D0000308F000A120313972333
:102290000A160230F1000130F2000A1261230A1618
:1022A0009B3003178D0000308F000A120313972311
:1022B0000A16DE012C08DD000A30DF000130E000E4
:1022C000E100E2010A128A15BA200A168A119F302B
:1022D00003178D0000308F000A12031397230A168C
:1022E0009C2D0130F100F2010A1261230A16A1307F
:1022F00003178D0000308F000A12031397230A166C
:102300002E08043C031C9B2BB00803198C290A12CD
:102310008A1589210A168A11DE010230DD00333068
:10232000DF000A128A155E210A168A11F8080319BD
:10233000C0290130AF002F0BBA29B00AB01BA42965
:102340003008033C031CA7290130AF00BA29B01B99
:10235000AD293008063C031CB0290230AF00BA2971
:102360003008073C031DB7290330AF00BA29B0017C
:10237000AF01B801B1010A128A1539220A168A1171
:10238000DE010130DD003130DF000A128A155E21E6
:102390000A168A11F8080319AC2AB101B01BD42916
:1023A0003008033C031C2D2A3008013A0319DF29A9
:1023B000033A0319F829013A0319122A2C2A43086F
:1023C000593C031DE529C301EF294308DD00DE0167
:1023D0000A128A1560220A168A117808C300DD01E4
:1023E0004308DE000A128A158D220A168A112C2A49
:1023F0004408593C031DFE29C401082A4408DD0095
:10240000DE010A128A1560220A168A117808C400B1
:102410000130DD004408DE000A128A158D220A16FA
:102420008A112C2A4508233C031D182AC501222A9B
:102430004508DD00DE010A128A1560220A168A119B
:102440007808C5000230DD004508DE000A128A1552
:102450008D220A168A112C2AA42AB01B332A30088E
:10246000063C031C8F2A3008043A03193E2A013A1D
:102470000319582A033A0319732A8E2A4908993CEA
:10248000031D442AC9014E2A4908DD00DE010A1253
:102490008A1560220A168A117808C9000630DD0004
:1024A0004908DE000A128A158D220A168A118E2A20
:1024B0004808123C031D5F2A0130C800692A4808F9
:1024C000DD00DE010A128A1560220A168A117808D8
:1024D000C8000530DD004808DE000A128A158D228A
:1024E0000A168A118E2A4708313C031D7A2A0130C8
:1024F000C700842A4708DD00DE010A128A1560221F
:102500000A168A117808C7000430DD004708DE008B
:102510000A128A158D220A168A118E2AA42A3008D8
:10252000073C031DA42A4608083C031D9A2A0230D2
:10253000C6009B2AC60A0330DD004608DE000A12E8
:102540008A158D220A168A113214B21432150A1213
:102550008A1539220A168A11DE010130DD00323077
:10256000DF000A128A155E210A168A11F80803197B
:102570009A2BB101B01BC02A3008033C031C1C2B52
:102580003008013A0319CB2A033A0319E52A013A24
:102590000319002B1B2BC308031DD12A5930C3007C
:1025A000DC2A4308DD000130DE000A128A156022B1
:1025B0000A168A117808C300DD014308DE000A12FA
:1025C0008A158D220A168A111B2BC408031DEB2ABB
:1025D0005930C400F62A4408DD000130DE000A123A
:1025E0008A1560220A168A117808C4000130DD00BD
:1025F0004408DE000A128A158D220A168A111B2B46
:10260000C508031D062B2330C500112B4508DD002E
:102610000130DE000A128A1560220A168A11780833
:10262000C5000230DD004508DE000A128A158D2241
:102630000A168A111B2B922BB01B222B3008063C4A
:10264000031C7D2B3008013A03192D2B033A031983
:10265000482B013A0319622B7C2BC908031D332B2D
:102660009930C9003E2B4908DD000130DE000A1216
:102670008A1560220A168A117808C9000630DD0022
:102680004908DE000A128A158D220A168A117C2B4F
:10269000480B4D2B0C30C800582B4808DD0001308A
:1026A000DE000A128A1560220A168A117808C8000C
:1026B0000530DD004808DE000A128A158D220A1650
:1026C0008A117C2B470B672B1530C700722B4708EC
:1026D000DD000130DE000A128A1560220A168A1116
:1026E0007808C7000430DD004708DE000A128A15AA
:1026F0008D220A168A117C2B922B3008073C031D71
:10270000922B4608023C031D882B0830C600892BFB
:10271000C6030330DD004608DE000A128A158D224A
:102720000A168A113214B21432150A128A15392285
:102730000A168A11B32B2E08093C0318B32BAE01DD
:10274000B11BA62B3108093C031CA82BB10AAD2BE9
:10275000B001AF013214B214321543082D0203192F
:10276000B32B4308AD000A128A1539220A168A11C2
:10277000F1010130F2000A1261230A16AF08031DAD
:10278000CB2B793003178D0000308F000A12031312
:1027900097230A16F22B2F0BD72B7B3003178D00B4
:1027A00000308F000A12031397230A16F22B2F080A
:1027B000023C031DE52B7D3003178D0000308F0098
:1027C0000A12031397230A16F22B2F08033C031D4A
:1027D000F22B7F3003178D0000308F000A12031395
:1027E00097230A160D30F1000130F2000A1261231E
:1027F0000A1630303007DD00F4000A127A230A1678
:10280000B0080319242C3108DD000A30DE000A125A
:102810008A15DF220A168A1130307807DD00F400AD
:102820000A127A230A163108DD000A30DE000A1285
:102830008A15DF220A168A1130307707DD00F4008E
:102840000A127A230A162D2C813003178D000030CE
:102850008F000A12031397230A169C2D0130F100F2
:10286000F2010A1261230A16A93003178D00003005
:102870008F000A12031397230A162E08013C031C2B
:10288000122DB0080319492C0A128A1589210A163B
:102890008A11DE010230DD003330DF000A128A15B2
:1028A0005E210A168A11F8080319662CB01B5C2CED
:1028B0003008023C031C5E2CB00A602CB001B80149
:1028C000B1010A128A1504230A168A11DE010130A9
:1028D000DD003130DF000A128A155E210A168A11E6
:1028E000F8080319BA2CB1013008013A03197F2CFA
:1028F000033A0319902C013A0319A12CB22C350884
:10290000593C031D852CB5018F2C3508DD00DE01F7
:102910000A128A1560220A168A117808B500B22CAC
:102920003408593C031D962CB401A02C3408DD005A
:10293000DE010A128A1560220A168A117808B4008C
:10294000B22C3308233C031DA72CB301B12C330850
:10295000DD00DE010A128A1560220A168A11780843
:10296000B300B22C3214B21432150A128A150423A1
:102970000A168A11DE010130DD003230DF000A1252
:102980008A155E210A168A11F8080319112DB10162
:102990003008013A0319D32C033A0319E52C013A04
:1029A0000319F72C092DB508031DD92C5930B50092
:1029B000E42C3508DD000130DE000A128A156022A1
:1029C0000A168A117808B500092DB408031DEB2CEE
:1029D0005930B400F62C3408DD000130DE000A1254
:1029E0008A1560220A168A117808B400092DB308E6
:1029F000031DFD2C2330B300082D3308DD0001300A
:102A0000DE000A128A1560220A168A117808B300BD
:102A1000092D3214B21432150A128A1504230A162B
:102A20008A11232D2E08093C0318232DAE01B11B5A
:102A30001D2D3108133C031C1F2DB10A232DB0019D
:102A40003214B21432150A128A1504230A168A1196
:102A50000D30F1000130F2000A1261230A16303005
:102A60003007DD00F4000A127A230A16B0080319B1
:102A70005A2D3108DD000A30DE000A128A15DF22E5
:102A80000A168A1130307807DD00F4000A127A2322
:102A90000A163108DD000A30DE000A128A15DF222C
:102AA0000A168A1130307707DD00F4000A127A2303
:102AB0000A16632D833003178D0000308F000A1231
:102AC000031397230A169C2D0130F100F2010A121C
:102AD00061230A16B03003178D0000308F000A12F0
:102AE000031397230A169C2D0230F100F2010A12FB
:102AF00061230A16B73003178D0000308F000A12C9
:102B0000031397230A16F1010130F2000A12612320
:102B10000A16BD3003178D0000308F000A12031310
:102B200097230A160130DD003330DE000A12A22797
:102B30000A16780B9C2DB8015508DD002C08DE0024
:102B40000A128A15372B0A168A110A128A154F2B78
:082B50000A168A1155286300E2
:02400E00723FFF
:00000001FF
;PIC16F877A
;CRC=0AED  CREATED="15-Apr-24 09:33"
