:1000000004308A00762C0000C437A0306E10311006
:100010002D10C825C924000053284B2A2D2A50240E
:10002000C32600002E002E00CE272022D318382110
:1000300032180000C3272022D318382132180000BC
:10004000FF30831685008600003088008801831207
:100050008801831609108910091189110910891066
:100060000911891183128901831687008312A00068
:10007000A00083168701831287018A110A12BC2C03
:100080000830F8000430F700F70B44288711A0115E
:100090002008831687000330F700F70B4D288312E2
:1000A000E50D0712031C5A28201620088316870026
:1000B0005E28831220122008831687000000831216
:1000C000A0152008831687008312871D6528F80B6A
:1000D00042280430F700F70B6B288711A011200885
:1000E00083168700000083122016200883168700DD
:1000F0000330F700F70B7A280330F700F70B7E2860
:100100008312A0152008831687008312871D862876
:10011000F8010330F700F70B8B28071A78148711C2
:10012000A0112008831687008312071220122008CE
:10013000831687008312080042308400831300086E
:100140000319AF280630F800F701F70BA528F80BC4
:10015000A4287B30F700F70BAB28800BA2280800FF
:1001600062083904E3006308E400201620088316BF
:1001700087000430F700F70BBB288312A015200876
:10018000831687000330F700F70BC4288312871DFE
:10019000C728071220122008831687000430F700B2
:1001A000F70BD02883128711A0112008831687002F
:1001B0004E308312E50040206408E5004020201204
:1001C00020088316870000008312A01520088316DC
:1001D00087008312871DEA280430F700F70BEE280A
:1001E000F128000020162008831687000430F7004D
:1001F000F70BF828831208005F08E200B0205F08C0
:10020000E00060080438E100E200B0200729082976
:1002100000006008FB39E100E200B0205230F70036
:10022000F70B10291329000008005A08F039DC00E8
:100230005A0EF700F030F7057708F039DD005C085A
:100240005B04DE00DF00FC205D085B04DE00DF00F5
:10025000FC2008005908DA00DB01152108000130F4
:10026000D9002A211430C2009C2008001030B700A9
:100270000230B800B9012016200883168700043028
:10028000F700F70B41298312A01520088316870079
:100290000330F700F70B4A298312071220122008B7
:1002A000831687000430F700F70B54298312871157
:1002B000A0112008831687004E308312E5004020ED
:1002C000B301B3153808B6002830C2009C203908A5
:1002D000E200B0206430C2009C202030DF00FC200F
:1002E00033082038BC00D9002A210430B40034156A
:1002F00034080838BC00D9002A212F210230B5006B
:1003000035080438BC00D9002A210230D9002A213E
:100310001430C2009C208A110A12BD2CD401403036
:10032000D5001430D6005430D700530836020318D5
:100330009C2901303602D3005430530784008313C4
:10034000000852078038D800D9002A210800550833
:10035000DA000130DB00152108000B08D2008B13F6
:10036000831603178C170C1400000000831203136C
:10037000D21B8B1703170C087F390319012A0313AB
:10038000D20003170D080313D30003170F0803133C
:10039000D4005208D500A721530803178D0003137A
:1003A000540803178F0003130B08D5008B13831613
:1003B00003178C170C140000000083120313D51BC5
:1003C0008B1703170C0D0E0D7F390319012A031328
:1003D000D20003170D080313D30003170F080313EC
:1003E000D4005208D500A721530803178D0003132A
:1003F000540803178F008D0A03198F0A0313AD29C0
:100400000317031308001030CC00F701FA01C90CE0
:10041000C80C031C112A4A08F7070318FA0A4B08EC
:10042000FA07FA0CF70CF90CF80CCC0B072A0800A9
:100430000130D200D3018E21043003178D0000302B
:100440008F000313AD210330D2000130D3008E2181
:100450000C3003178D0000308F000313AD213E0BCD
:100460004C2A3D08C9003C08C8000330CB00E830E6
:10047000CA0003227908C0007808BF007908C100CB
:10048000C10AC1030319482AFF30C2009C20412A37
:100490003F08C2009C202F218A110A12C22C03306F
:1004A000BF02031C5D2A3F30840083130008031938
:1004B0005D2A5B2A5B2A800B5A2A080083160510E6
:1004C000831205108316051002308312BE00F93026
:1004D000BF004F22BE0B672A83160514A630F70013
:1004E000F70B702A0000051483120518812A0230C8
:1004F000BE00C730BF004F22BE0B792A0130F80082
:10050000832A0030F8000800BF013F08073C031CA5
:10051000BE2A3E08F7003F08F8000319932A03108B
:10052000F70CF80B8F2A003077180130C000400814
:10053000C1008316051083120510831605100230C2
:10054000F700F70BA12AA42A00008312C108031D9B
:10055000AB2A0510AC2A0514831605108430F70069
:10056000F70BB02AB32A000005140230F700F70B8E
:10057000B72ABA2A00008312BF0A852A0800C201DE
:10058000C3014308073C031CEF2A8316051083129E
:100590000510831605100230F700F70BCD2AD02A7C
:1005A000000005140730F700F70BD42AD72A000003
:1005B00005148312441005184414A630F700F70BF5
:1005C000DF2A0000003044180130F800F808031D4D
:1005D000EB2A0310EC2A0314C20CC30AC12A4208F6
:1005E000F80008005E22F808031DF92A0030F80020
:1005F000472BCC30BE0084224430BE008422BF2270
:10060000F8080319FF2A5E22F808031D0A2B0030A0
:10061000F800472BCC30BE008422BE30BE008422BE
:100620003D08FA003C08BE003D08BF00BF223E085E
:10063000840083133F188317840A80018403780899
:1006400080003D08FA003C08BE003D08BF003C08A1
:10065000840083133D188317840A0008C1008403B3
:100660000008C000BF22C30100304004F700780832
:100670004104FA003E08840083133F188317840A5C
:100680007A0880008403770880000130F8008A111E
:100690000A12C62CF801F901F701FA015708031DE7
:1006A000542B560803196E2B1030D8000310D40DAC
:1006B000D50DF70DFA0D57087A02031D612B560868
:1006C0007702031C6A2B5608F702031CFA0357082B
:1006D000FA020314F80DF90DD80B562B08003D0C47
:1006E000FA003C0CF900FA0CF90CFA0CF90CFA0CB3
:1006F000F90C7908C0003C080F39C200C30140085A
:1007000041020319D02B4008C100C9014008C800AC
:100710003E08CA003F08CB000130CC00CD014A089A
:10072000D2004B08D3008E214908D5004808D400D8
:10073000D7010A30D6004A237908D1007808D000C2
:100740007908D5007808D400D7010A30D6004A23AA
:1007500030307707CE004908D5004808D400D701CB
:100760000A30D6004A2330307807CF000130CC0061
:10077000CC080319C12B4E08303C031DC12B20307F
:10078000CE004D0BCA2B123003178D0000308F00A6
:100790000313AD214E08D500A7214F08D500A7218E
:1007A00042084402031DD82B430845020319642C58
:1007B0004308C5004208C4004308C9004208C800F5
:1007C0000230CB007130CA0003227908C9007808D2
:1007D000C8007908D5007808D400D7010A30D600BF
:1007E0004A237908C7007808C60002303E07C800CF
:1007F0004708CA004608C9004808CB003F08CC009B
:100800000130CD00CE004B08D2004C08D3008E2121
:100810004A08D5004908D400D7016430D6004A23DD
:100820007908D3007808D2007908D5007808D40078
:10083000D7010A30D6004A2330307707CF004A0864
:10084000D5004908D400D7010A30D6004A237908D8
:10085000D3007808D2007908D5007808D400D701F1
:100860000A30D6004A2330307707D0004A08D50036
:100870004908D400D7010A30D6004A23303078071F
:10088000D1000130CD00CD080319522C4F08303C67
:10089000031D522C2030CF005008303C031D522C39
:1008A0002030D0004E0B5B2C133003178D0000302E
:1008B0008F000313AD214F08D500A7215008D500A4
:1008C000A7215108D500A7218A110A12D42C3C086F
:1008D000D2003D08D3008E21143003178D00003064
:1008E0008F000313AD218A110A12D42C03081F397B
:1008F0008300FF30A0008316031787150830031309
:10090000990002309A00A630980090308312980027
:10091000831603170908C039890003131F129F1299
:10092000003003178800831287018801890183132F
:1009300030300313A1001530A200A3000430A4003E
:100940002530A5001030A6002330A7009030A80065
:100950009230A9003030AA00AB001030AC00083053
:10096000AD002030AE000230AF002030B00090303B
:10097000B1009630B20020283629BD010130BC00FC
:10098000BE00182ABD013A30BC00F22AF80803194B
:10099000D12C3B08BD003A08BC00BE01BF016F2B43
:0C09A000D42CBC01BD01672CC22C6300EC
:04400E00E22FFF3F5F
:00000001FF
;PIC16F887
;CRC=E25F  CREATED="12-Mar-24 16:52"
