:1000000008308A0078280000FF00030E8301A10059
:100010000A08A0008A010408A2007708A300780853
:10002000A4007908A5007A08A60003170D08031399
:10003000A70003170F080313A80003170C080313E6
:10004000A90003170E080313AA00831383128C3030
:100050008400001C2D280C184E2822088400230838
:10006000F7002408F8002508F9002608FA002708F8
:1000700003178D000313280803178F0003132908A3
:1000800003178C0003132A0803178E00031320089C
:100090008A00210E8300FF0E7F0E09008A110A12CA
:1000A0005128AE0A8E010B308F00DC308E0000002C
:1000B000B21D62283608633C031C6028B60A622819
:1000C000B601B2110C108A110A122D28C437A030C3
:1000D0006E1031102D10C825C924000053284B2A5A
:1000E0002D2A5024C32600002E002E002D002D00A6
:1000F000A0162000EE3A74103000EE3A7410310071
:10010000EE3A74103200EE3A7410330020272000CB
:10011000472847004E2A4E00202A2000DF2F0000EB
:10012000DF2F0000CE272022D318382132180000FC
:10013000C3272022D3183821321800004E223A104B
:100140000001A03743004E223A100001A0374300BF
:1001500047245F27441D2000A0374300E330691087
:10016000E4307410E437EE3320346F00F417671076
:1001700063346F10E330A0306E006334E5316B10F0
:10018000E3376D10E5397000E8326C366F0500001A
:100190004937E637F236613AE9376E00D632F2393E
:1001A000E9376E1D202B311730173000B530900025
:1001B0008E010B308F00DC308E000000C0308B04CD
:1001C00083160C140030F800063883129200F930C0
:1001D0008316920083129B01AF01AE01B00132146D
:1001E000B2143215B2111930AC000930B3003430FA
:1001F000B4000130B500FF30831685008600003062
:10020000880088018312880183160910891009115A
:10021000091089100911831289018316870083123E
:10022000AB00AB0083168701831287018A150A127F
:10023000CD2894138C1183162D088312930002305D
:10024000941B29298316141923290030111B01300E
:100250008312F8000800613084008313000803193A
:100260003E290630F800F701F70B3429F80B332943
:100270007B30F700F70B3A29800B312908008316F1
:100280002708AA002A0883124F048316AB002B0804
:10029000AC00911491184A294E30AD0083121921F7
:1002A00083162C08AD00831219218316111511191C
:1002B00057292708A80028080438A9002908AA00F7
:1002C0002A0883124F048316AB002B08AC0091144C
:1002D000911868294E30AD008312192183162C081D
:1002E000AD0083121921831611151119752978296A
:1002F000792900002808FB39A9002908AA002A0842
:1003000083124F048316AB002B08AC009114911894
:1003100087294E30AD008312192183162C08AD00B9
:100320008312192183161115111994295330F700DE
:10033000F70B98298312080083162108A200A30155
:100340002208F039A400220EF700F030F7057708F4
:10035000F039A50024082304A600A70083123F213A
:10036000831625082304A600A70083123F21080056
:1003700001308316A10083129C211430E1002B214F
:1003800008001030CD000230CE00CF0183161114CA
:100390001118C8294E30AD0083121921C901C915A1
:1003A0004E08CC002830E1002B214F088316AA000C
:1003B0002A0883124F048316AB002B08AC0091145B
:1003C0009118E0294E30AD008312192183162C08B4
:1003D000AD0083121921831611151119ED2964300E
:1003E0008312E1002B2130308316A70083123F21B6
:1003F0000530E1002B2130308316A70083123F2106
:100400000530E1002B2130308316A70083123F21F5
:100410000530E1002B2120308316A70083123F21F5
:1004200049082038DF008316A10083129C21043084
:10043000CA004A154A080838DF008316A100831253
:100440009C21B8210230CB004B080438DF00831612
:10045000A10083129C2102308316A10083129C21EB
:100460001430E1002B218A150A12D02814138316A8
:1004700091159119392A77189112771C9116111636
:10048000111A402A83121308F80008008316111469
:100490001118482AD030AD00831219218316AD01FE
:1004A00083121921831691149118542AD130AD006A
:1004B00083121921E0015F08600203186A2A4030A4
:1004C0006007840083130130F7003622780880002B
:1004D000E00A5B2AF70136227808E000831611153E
:1004E0001119702A831208000930DF0046224808DB
:1004F0003F020319AD2A0130DF00831611141118D1
:100500007F2AD030AD00831219218316AD018312EA
:100510001921E0016008083C031CA82ADF08031920
:100520009C2A37306007840083130008E10083169B
:10053000AD0083121921A62A40306007840083137E
:100540000008E1008316AD0083121921E00A8A2A0F
:10055000831611151119AA2A83128A150A12D32893
:100560000330E202031CBE2A6230840083130008B9
:100570000319BE2ABC2ABC2A800BBB2A080083169A
:1005800005100510831205100230E000F930E2007A
:10059000B022E00BC62A831605140830F700F70BCB
:1005A000CF2A83120518D72A0030F800E52A6C30CC
:1005B000F700F70BD92A5F10051C5F14F030E2003A
:1005C000B02200305F180130F80008000130E00070
:1005D0006008083C031C372B0310DF0C00300318A5
:1005E0000130E1006108E200831605100510831256
:1005F00005101030F700F70BFB2A0000E208031982
:10060000112B831605100510831205141030F70006
:10061000F70B082B00000518102B0030F8002F2BCB
:10062000202B831605100510831205101030F700DB
:10063000F70B182B0000051C202B0030F8002F2B87
:100640005330F700F70B222B831605100510831289
:1006500005145330F700F70B2B2B0130F800F80886
:10066000031D352B0030F800392BE00AE82A013051
:10067000F8000800BF22CC30DF00E6224E30DF0059
:10068000E622DF01E622DF01E6227F30DF00E622FC
:10069000BF22CC30DF00E6224430DF00E6228A159C
:1006A0000A12D6288316051083120510831605102A
:1006B00002308312E100F930E200B022E10B5B2B43
:1006C00083160514A630F700F70B642B0000051401
:1006D00083120518752B0230E100C730E200B0220A
:1006E000E10B6D2B0130F800772B0030F80008008B
:1006F000E2016208073C031CAC2B6108F7006208AA
:10070000F8000319872B0310F70CF80B832B00302C
:1007100077180130E3006308E400831605108312A4
:100720000510831605100330F700F70B952B831285
:10073000E408031D9D2B05109E2B05148316051040
:100740008530F700F70BA22B05140330F700F70BE9
:10075000A72B8312E20A792B0800E501E60166085F
:10076000073C031CD92B8316051083120510831632
:1007700005100330F700F70BBB2B05140830F7000A
:10078000F70BC02B05148312671005186714A630E9
:10079000F700F70BC92B0000003067180130F80094
:1007A000F808031DD52B0310D62B0314E50CE60A1D
:1007B000AF2B6508F8000800F801F901F701FA010C
:1007C0006D08031DE62B6C080319002C1030EE0099
:1007D0000310EA0DEB0DF70DFA0D6D087A02031DFB
:1007E000F32B6C087702031CFC2B6C08F702031C2C
:1007F000FA036D08FA020314F80DF90DEE0BE82B5D
:100800000800E0015530DF005223F808031D0B2CCF
:100810000030F800592CCC30E10078234430E1005E
:100820007823AD23F8080319112C5223F808031D6F
:100830001C2C0030F800592CCC30E1007823BE305D
:10084000E10078236008FA005F08E1006008E20038
:10085000AD2361088400831362188317840A800122
:100860008403780880006008FA005F08E1006008EF
:10087000E2005F088400831360188317840A00086D
:10088000E40084030008E300AD23E60100306304C4
:10089000F70078086404FA00610884008313621882
:1008A0008317840A7A088000840377088000013067
:1008B000F800F8080319682C560CFA00550CF900DA
:1008C000FA0CF90CFA0CF90CFA0CF90C7908D700AF
:1008D00055080F39F700FA017708D9007A08DA00CD
:1008E0005A08E0005908DF000230E2007130E100F0
:1008F0001030E300F701FA01E00CDF0C031C862C3A
:100900006108F7070318FA0A6208FA07FA0CF70CED
:10091000F90CF80CE30B7C2C7908E0007808DF0078
:100920007908EB007808EA00ED010A30EC00DC23DE
:100930007908DE007808DD008A150A12DE286208D0
:100940000739F700620CF800F80CF80C1F30F805B6
:10095000780864078400831365188317F801F80A80
:10096000F70AB32CF80DF70BB22CE3080319BB2CD4
:1009700078088004BE2CF809780880050800620811
:100980000739F700620CF800F80CF80C1F30F80576
:100990007808630784008313641883170008F8003D
:1009A000F70AD32CF80CF70BD22C0130F80508000D
:1009B0006008E2000130E300E5018030E4009F249C
:1009C0006008E200E401E301BF247818112D14301F
:1009D000E1002B216008E2000130E300E5018030F6
:1009E000E4009F246008E200E401E301BF247818DA
:1009F0000E2DDF0803190B2D6008E2000130E30023
:100A0000E5018030E4009F246008E200E401E30196
:100A1000BF24781CFC2C0130F800132D0030F800A6
:100A2000132D0030F8000800F701F80165080310E5
:100A30006618F707F70CF80CE618F707F70CF80C30
:100A40006619F707F70CF80CE619F707F70CF80C1E
:100A5000661AF707F70CF80CE61AF707F70CF80C0C
:100A6000661BF707F70CF80CE61BF707F70CF80CFA
:100A70000800610EF7000F30F7057708E300E50086
:100A80000A30E60014257808E20061080F3978077B
:100A9000F80008007408F80173020318522D730857
:100AA000F7005E2DF7010830F500F30DF70D74081F
:100AB00077020318F700F80DF50B552D0800FB0120
:100AC0004030FC001430FD005430FE0074084C022D
:100AD00003186D2D01304C02F4007B307407840044
:100AE0008313000873078038F5008316A100831272
:100AF0009C21080076088316A2000130A30022087A
:100B0000F039A400220EF700F030F7057708F0392D
:100B1000A50024082304A600A70083123F21831602
:100B200025082304A600A70083123F2108000B0814
:100B3000F3008B13831603178C170C1400000000AE
:100B4000F31FA72D831203138B178316031783122A
:100B50000C087F390319E52DF3000D08F4000F0888
:100B6000F5007308F60003137A25740803178D0047
:100B700075088F0003130B08F6008B1383160317F9
:100B80008C170C1400000000F61FCB2D83120313EA
:100B90008B178316031783120C0D0E0D7F39031963
:100BA000E52DF3000D08F4000F08F5007308F600BA
:100BB00003137A25740803178D0075088F008D0ABA
:100BC00003198F0A0313972D0317031308006A0BE9
:100BD000F12D6708F3000A30F4004A253030780719
:100BE000F22D2030ED006A0BFD2D6708F3000A306E
:100BF000F4004A2530307707FE2D2030EE006B0BD5
:100C0000092E6808F3000A30F4004A2530307807CE
:100C10000A2E2030EF006B0B152E6808F3000A3007
:100C2000F4004A2530307707162E2030F0006C0B88
:100C3000212E6908F3000A30F4004A253030780785
:100C4000222E2030F1006C0B2D2E6908F3000A30A3
:100C5000F4004A25303077072E2E2030F200650848
:100C6000F3006608F4005F256D08F6007A256E082B
:100C7000F6007A25763003178D0000308F000313BD
:100C800097256F08F6007A257008F6007A257730E8
:100C900003178D0000308F00031397257108F600AD
:100CA0007A257208F6007A2508006108F3006208C8
:100CB000F4005F256008EB005F08EA00ED010A30F0
:100CC000EC00DC2330307807E5006008EB005F08BB
:100CD000EA00ED010A30EC00DC2330307707E60053
:100CE000630B782E6508303C031D782E2030E5001C
:100CF000640B812E743003178D0000308F000313B6
:100D000097256508F6007A256608F6007A2508001A
:100D10006108F3006208F4005F256008EB005F08DB
:100D2000EA00ED016430EC00DC2330307807E500A8
:100D30006008EB005F08EA00ED010A30EC00DC23FC
:100D40007908E9007808E8007908EB007808EA00FB
:100D5000ED010A30EC00DC2330307707E600600854
:100D6000EB005F08EA00ED010A30EC00DC233030D4
:100D70007707E700630BC82E6508303C031DC82EBB
:100D80002030E5006608303C031DC82E2030E60008
:100D9000640BD12E753003178D0000308F000313C4
:100DA00097256508F6007A256608F6007A25670813
:100DB000F6007A2508006108E2000130E300E50151
:100DC0008030E4009F246108E200E401E301BF24D5
:100DD0007818FF2E0130D2072930F700F70BEE2EDE
:100DE0000000E008031DFC2E5F085202031CFC2ECD
:100DF000D2010130F800012F0030F800012F00303F
:100E0000F8000800B00803192F2F300B082F0C2F03
:100E10003008043C031D112F0130B206B214321504
:100E20002E2F3008023C0319192F3008053C031DF2
:100E30001E2F32140230B20632152E2F3008033C1A
:100E40000319262F3008063C031D2B2F3214B21431
:100E50000430B2062E2F3214B2143215322F32144F
:100E6000B214321508004208E10039257808DF0085
:100E70004108E10039257808E0004008E100392503
:100E80007808E100003032190130E2000030B21879
:100E90000130E300003032180130E4000430E50096
:100EA0000130E6005F08E7006008E8007808E90024
:100EB0006208EA006308EB006408EC00E72508001C
:100EC0004408E10039257808DF004508E1003925AC
:100ED0007808E0004608E10039257808E100003094
:100EE00032190130E2000030B2180130E300003066
:100EF00032180130E4000430E5000130E6005F08FC
:100F0000E7006008E8007808E9006208EA00630882
:100F1000EB006408EC00E72508004308E1003925F0
:100F20007808DF000030B2180130E0000430E5003E
:100F30000130E600E7017808E800E901EA0160080D
:100F4000EB00EC01E7250800B008031DB62FAF0841
:100F50000319AC2F2F0BAD2F33272F08023C031999
:100F600060272F08033C03198D27CA2FB01BBC2F05
:100F70003008033C031CBE2F3327CA2FB01BC42FDD
:100F80003008063C031CC62F6027CA2F3008073CD8
:100F900003198D2708005F0EE3000F30E3055F089B
:100FA0000F39E2006308E5000A30E6001425620804
:100FB0007807E100E008031DDF2FE10AE02FE103DD
:100FC0006108F3000A30F4004A257808E30061085C
:100FD000F3000A30F4004A257708E200630EF700B8
:100FE000F030F70577086204E4006408F8000800B0
:101000008316111411180228D030AD008A118312F2
:1010100019218A155F088316AD008A1183121921E0
:101020008A1560088316AD008A11831219218A156A
:101030008316111511191A28831208005F0860061B
:101040008039E200DF1F2628DF09DF0AE01F2A2897
:10105000E009E00A6008F8015F02031832285F081F
:10106000F7003E28F7010830E100DF0DF70D6008BA
:1010700077020318F700F80DE10B3528E21F42282C
:10108000F809F80A08003308E1008A1139258A15A1
:101090007808DF003408E1008A1139258A157808BC
:1010A000E0003508E1008A1139258A157808E10049
:1010B000003032190130E2000030B2180130E30094
:1010C000003032180130E4000430E5000130E60061
:1010D0005F08E7006008E8007808E9006208EA00B5
:1010E0006308EB006408EC008A11E7258A15080004
:1010F00003081F398300FF30AB00AB152B088316A4
:10110000870083122B162B0883168700313093003B
:101110002830831294008316941714138130990099
:10112000A63098009030831298001930AC00AF01BF
:10113000B001B101B601D101D001D3010130D40019
:1011400083161F149F141F159F1107309C008313D3
:1011500031308312B7001530B800B9000430BA003E
:101160002530BB001030BC002330BD009030BE00E5
:101170009230BF003030C000C1001030C2000830D3
:10118000C3002030C4000230C5002030C6009030BB
:10119000C7009630C8008A11D6288A158A11C1293D
:1011A0008A158A11742A8A158A113A2B8A150830F1
:1011B000DF008A1146228A158A11012C8A15013016
:1011C000DF003030E0008A11D8248A15F8080319AE
:1011D000F028D30AAE01B001AF013214B2143215B7
:1011E0005308053C0318F628D301FF28540853027E
:1011F0000319FF285308D4008A11B8218A1553080F
:1012000003190F29013A03196729033A0319DC2945
:10121000013A0319312C073A03193B2DB92D420825
:10122000E1008A1139258A157808DF004108E100BC
:101230008A1139258A157808E0004008E1008A11F2
:1012400039258A157808E1000430E500E6015F08D9
:10125000E7006008E8007808E9000130EA00EB00E8
:10126000EC008A11E7258A150230F3000130F40002
:101270008A115F258A159E3003178D0000308F007C
:101280008A11031397258A15E0015708DF000630FD
:10129000E1000130E200E300E4018A1155268A15DD
:1012A0005E08E0005D08DF000830E1000130E20088
:1012B000E300E4008A1188268A15A13003178D0007
:1012C00000308F008A11031397258A15E12DE00164
:1012D0000230DF003130E1008A11DB268A15780800
:1012E000AC07E0010230DF003230E1008A11DB267A
:1012F0008A157808AC020130DF003330E0008A1133
:10130000D8248A15780B8529D3010230F300F40123
:101310008A115F258A15A33003178D0000308F00D6
:101320008A11031397258A15E0015708DF0006305C
:10133000E100E2010130E300E4018A1155268A153B
:101340005E08E0005D08DF000830E100E201E30133
:101350000130E4008A1188268A15A63003178D0013
:1013600000308F008A11031397258A150230F3008D
:101370000130F4008A115F258A15A83003178D000B
:1013800000308F008A11031397258A15E0012C087D
:10139000DF000A30E1000130E200E300E4018A11DD
:1013A00055268A15AC3003178D0000308F008A1146
:1013B000031397258A15E12D0130F300F4018A11FA
:1013C0005F258A15AE3003178D0000308F008A111B
:1013D000031397258A152E08043C031CA82BB0087C
:1013E0000319F5298A1102278A15E0010130DF006F
:1013F0003330E1008A11DB268A15F8080319252A03
:101400000130AF002F0B212AB00AB01B0B2A300885
:10141000033C031C0E2A0130AF00212AB01B142A02
:101420003008063C031C172A0230AF00212A30087E
:10143000073C031D1E2A0330AF00212AB001AF0173
:10144000D301B1018A11A4278A15E0010130DF0020
:101450003130E1008A11DB268A15F8080319E52AE4
:10146000B101B01B372A3008033C031C7E2A300828
:10147000013A0319422A033A0319552A013A03197A
:10148000692A7D2A4008593C031D482AC001502A78
:101490004008DF00E0018A11CB278A157808C000D8
:1014A000DF014008E00000207D2A4108593C031D6F
:1014B0005B2AC101632A4108DF00E0018A11CB27C2
:1014C0008A157808C1000130DF004108E0000020E3
:1014D0007D2A4208233C031D6F2AC201772A420855
:1014E000DF00E0018A11CB278A157808C20002309C
:1014F000DF004208E00000207D2ADF2AB01B842A9A
:101500003008063C031CCE2A3008043A03198F2AFF
:10151000013A0319A32A033A0319B82ACD2A460827
:10152000993C031D952AC6019D2A4608DF00E0016B
:101530008A11CB278A157808C6000630DF004608D6
:10154000E0000020CD2A4508123C031DAA2A0130E4
:10155000C500B22A4508DF00E0018A11CB278A15B1
:101560007808C5000530DF004508E0000020CD2ADE
:101570004408313C031DBF2A0130C400C72A440877
:10158000DF00E0018A11CB278A157808C4000430F7
:10159000DF004408E0000020CD2ADF2A3008073CA5
:1015A000031DDF2A4308083C031DD92A0230C3006B
:1015B000DA2AC30A0330DF004308E00000203214B7
:1015C000B21432158A11A4278A15E0010130DF0018
:1015D0003230E1008A11DB268A15F8080319A72B9F
:1015E000B101B01BF72A3008033C031C412B300823
:1015F000013A0319022B033A0319162B013A031976
:101600002B2B402BC008031D082B5930C000112B79
:101610004008DF000130E0008A11CB278A157808E6
:10162000C000DF014008E0000020402BC108031D7E
:101630001C2B5930C100252B4108DF000130E00090
:101640008A11CB278A157808C1000130DF004108D4
:10165000E0000020402BC208031D312B2330C200C4
:101660003A2B4208DF000130E0008A11CB278A15AF
:101670007808C2000230DF004208E0000020402B62
:10168000A12BB01B472B3008063C031C902B3008C5
:10169000013A0319522B033A0319672B013A031934
:1016A0007B2B8F2BC608031D582B9930C600612B4E
:1016B0004608DF000130E0008A11CB278A15780840
:1016C000C6000630DF004608E00000208F2B450BE7
:1016D0006C2B0C30C500752B4508DF000130E00095
:1016E0008A11CB278A157808C5000530DF00450828
:1016F000E00000208F2B440B802B1530C400892B79
:101700004408DF000130E0008A11CB278A157808F1
:10171000C4000430DF004408E00000208F2BA12B20
:101720003008073C031DA12B4308023C031D9B2BE3
:101730000830C3009C2BC3030330DF004308E000E4
:1017400000203214B21432158A11A4278A15C02B36
:101750002E08093C0318C02BAE01B11BB32B310876
:10176000093C031CB52BB10ABA2BB001AF013214EE
:10177000B214321540082D020319C02B4008AD00E9
:101780008A11A4278A15F3010130F4008A115F251C
:101790008A15AF08031DD62B863003178D00003045
:1017A0008F008A11031397258A15FD2B2F0BE22B2F
:1017B000883003178D0000308F008A11031397259E
:1017C0008A15FD2B2F08023C031DF02B8A300317CE
:1017D0008D0000308F008A11031397258A15FD2B89
:1017E0002F08033C031DFD2B8C3003178D000030A8
:1017F0008F008A11031397258A150D30F3000130ED
:10180000F4008A115F258A1530303007DF00F600BA
:101810008A117A258A15B0080319272C3108DF00B0
:101820000A30E0001E2030307807DF00F6008A1111
:101830007A258A153108DF000A30E0001E2030309A
:101840007707DF00F6008A117A258A15302C8E3052
:1018500003178D0000308F008A11031397258A1516
:10186000E12D0130F300F4018A115F258A15B630AD
:1018700003178D0000308F008A11031397258A15F6
:101880002E08013C031CF52CB00803194A2C8A11C0
:1018900002278A15E0010130DF003330E1008A11B0
:1018A000DB268A15F8080319612CB01B5B2C300865
:1018B000023C031C5D2CB00A5F2CB001D301B101C6
:1018C0004320E0010130DF003130E1008A11DB26E6
:1018D0008A15F8080319A92CB1013008013A031937
:1018E000782C033A0319872C013A0319962CA52C5E
:1018F0003508593C031D7E2CB501862C3508DF00C8
:10190000E0018A11CB278A157808B500A52C340888
:10191000593C031D8D2CB401952C3408DF00E001E7
:101920008A11CB278A157808B400A52C3308233CEC
:10193000031D9C2CB301A42C3308DF00E0018A11A5
:10194000CB278A157808B300A52C3214B2143215AF
:101950004320E0010130DF003230E1008A11DB2654
:101960008A15F8080319F42CB1013008013A03195B
:10197000C02C033A0319D02C013A0319E02CF02CA7
:10198000B508031DC62C5930B500CF2C3508DF0033
:101990000130E0008A11CB278A157808B500F02CB9
:1019A000B408031DD62C5930B400DF2C3408DF00F6
:1019B0000130E0008A11CB278A157808B400F02C9A
:1019C000B308031DE62C2330B300EF2C3308DF00EF
:1019D0000130E0008A11CB278A157808B300F02C7B
:1019E0003214B21432154320062D2E08093C031878
:1019F000062DAE01B11B002D3108133C031C022D36
:101A0000B10A062DB0013214B214321543200D3044
:101A1000F3000130F4008A115F258A153030300759
:101A2000DF00F6008A117A258A15B0080319312DD6
:101A30003108DF000A30E0001E2030307807DF0078
:101A4000F6008A117A258A153108DF000A30E00095
:101A50001E2030307707DF00F6008A117A258A15BC
:101A60003A2D903003178D0000308F008A11031338
:101A700097258A15E12D0130F300F4018A115F25C5
:101A80008A15BD3003178D0000308F008A110313B3
:101A900097258A15C43003178D0000308F0003137B
:101AA0000B08DF008B13831603178C170C14000030
:101AB000000083120313DF1B8B1703170C087F39F9
:101AC0000319A42D0313DF0003170D080313E0000F
:101AD00003170F080313E1005F080C1E6D2D99001A
:101AE000600803178D000313610803178F000313A9
:101AF0000B08E2008B13831603178C170C140000DD
:101B0000000083120313E21B8B1703170C0D0E0D3D
:101B10007F390319A42D0313DF0003170D080313E6
:101B2000E00003170F080313E1005F080C1E962D59
:101B30009900600803178D000313610803178F00D5
:101B40008D0A03198F0A4F2D04300313DF00FA307A
:101B5000E1008A112B218A15DF0BA72D0130DF0050
:101B60003330E0008A11D8248A15F808031DD30108
:101B7000E12D0230F300F4018A115F258A15C83087
:101B800003178D0000308F008A11031397258A15E3
:101B9000F3010130F4008A115F258A15CE30031756
:101BA0008D0000308F008A11031397258A150130AC
:101BB000DF003330E0008A11D8248A15F808031DAD
:061BC000D301D7286300E9
:02400E00723FFF
:00000001FF
;PIC16F877A
;CRC=3AC9  CREATED="03-May-24 07:55"
