:1000000003308A00BF2B0000C437A0306E103110BF
:100010002D10C825C924000053284B2A2D2A50240E
:10002000C32600002E002E002D002D00CE272022FA
:10003000D318382132180000C3272022D3183821C2
:1000400032180000FF3083168500860000308800DB
:1000500088018312880183160910891009118911FA
:1000600009108910091189118312890183168700EB
:100070008312A000A00083168701831287018A11D2
:100080000A12052C0830F8000430F700F70B462858
:100090008711A0112008831687000330F700F70BA3
:1000A0004F288312D20D0712031C5C28201620084B
:1000B0008316870060288312201220088316870089
:1000C00000008312A0152008831687008312871D65
:1000D0006728F80B44280430F700F70B6D288711C8
:1000E000A011200883168700000083122016200824
:1000F000831687000330F700F70B7C280330F700E6
:10010000F70B80288312A01520088316870083121E
:10011000871D8828F8010330F700F70B8D28071A90
:1001200078148711A0112008831687008312071204
:1001300020122008831687008312080042308400B2
:10014000831300080319B1280630F800F701F70BF4
:10015000A728F80BA6287B30F700F70BAD28800BFB
:10016000A42808004F083904D0005008D1002016F8
:100170002008831687000430F700F70BBD28831290
:10018000A0152008831687000330F700F70BC62858
:100190008312871DC92807122012200883168700A2
:1001A0000430F700F70BD22883128711A011200822
:1001B000831687004E308312D20042205108D200AD
:1001C0004220201220088316870000008312A01509
:1001D0002008831687008312871DEC280430F7005F
:1001E000F70BF028F328000020162008831687005C
:1001F0000430F700F70BFA28831208004C08CF00F0
:10020000B2204C08CD004D080438CE00CF00B220FB
:1002100009290A2900004D08FB39CE00CF00B22081
:100220005230F700F70B1229152900000800470883
:10023000F039C900470EF700F030F7057708F039BC
:10024000CA0049084804CB00CC00FE204A084804F4
:10025000CB00CC00FE2008004608C700C8011721CB
:1002600008000130C6002C211430C2009E20080076
:100270001030B7000230B800B901201620088316EC
:1002800087000430F700F70B43298312A0152008DC
:10029000831687000330F700F70B4C2983120712EF
:1002A00020122008831687000430F700F70B562928
:1002B00083128711A0112008831687004E30831205
:1002C000D2004220B301B3153808B6002830C2006E
:1002D0009E203908CF00B2206430C2009E2020301A
:1002E000CC00FE2033082038BC00C6002C2104308E
:1002F000B400341534080838BC00C6002C21312164
:100300000230B50035080438BC00C6002C2102308C
:10031000C6002C211430C2009E208A110A12062C1D
:10032000C1014030C2001430C3005430C400400842
:10033000360203189E2901303602C00041304007C2
:100340008400831300083F078038C500C6002C21B5
:1003500008004208C7000130C800172108000B0838
:10036000BF008B13831603178C170C1400000000BA
:1003700083120313BF1B8B1703170C087F39031954
:10038000032A0313BF0003170D080313C00003174C
:100390000F080313C1003F08C200A921400803173A
:1003A0008D000313410803178F0003130B08C200CD
:1003B0008B13831603178C170C1400000000831294
:1003C0000313C21B8B1703170C0D0E0D7F39031976
:1003D000032A0313BF0003170D080313C0000317FC
:1003E0000F080313C1003F08C200A92140080317EA
:1003F0008D000313410803178F008D0A03198F0A1C
:100400000313AF290317031308000130BF00C00115
:100410009021043003178D0000308F000313AF21AB
:100420000330BF000130C00090210C3003178D0055
:1004300000308F000313AF213E0B4C2A3D08C00053
:100440003C08BF000330C200E830C1001030C300D8
:10045000F701FA01C00CBF0C031C342A4108F7074E
:100460000318FA0A4208FA07FA0CF70CF90CF80C10
:10047000C30B2A2A7908C0007808BF007908C10098
:10048000C10AC1030319482AFF30C2009E20412A35
:100490003F08C2009E2031218A110A120B2C08301D
:1004A000C2007708C3002016200883168700033097
:1004B000F700F70B592A8312A0152008831687002E
:1004C0008312871D612A071A0314071E0310F80DF3
:1004D0000430F700F70B6A2AA01120088316870062
:1004E00083128711C20B532A201620088316870017
:1004F0000330F700F70B7A2A831207124308031917
:10050000862A201220088316870083120000A01577
:100510002008831687008312871D8C2A0430F70079
:10052000F70B902A8711A01120088316870003304B
:10053000F700F70B992A831207122012200883165E
:1005400087008312080020162008831687000430D5
:10055000F700F70BA92A8312A0152008831687003D
:100560000330F700F70BB22A83120712201220087B
:10057000831687000430F700F70BBC2A831287111B
:10058000A011200883168700D0308312D2004220A9
:10059000D201422020162008831687000430F7007D
:1005A000F70BD02A8312A01520088316870003308A
:1005B000F700F70BD92A8312871DDC2A07122012B5
:1005C0002008831687000430F700F70BE52A831212
:1005D0008711A011200883168700D1308312D20022
:1005E0004220BE013D083E020318442B2A303E073C
:1005F000F800FA010318FA0A7808BF007A08C00068
:100600000130F7004F227808C1004108C200420EB5
:10061000F7000F30F7057708C4004408C5000A301A
:10062000C600F701F801450803104618F707F70C54
:10063000F80CC618F707F70CF80C4619F707F70C73
:10064000F80CC619F707F70CF80C461AF707F70C61
:10065000F80CC61AF707F70CF80C461BF707F70C4F
:10066000F80CC61BF707F70CF80C7808C300420813
:100670000F397807F8003F08840083134018831768
:1006800078088000BE0AF22AF7014F2220122008C3
:100690008316870000008312A015200883168700A8
:1006A0008312871D512B0430F700F70B552B582B65
:1006B000000020162008831687000430F700F70B8F
:1006C0005F2B831208000930BD00A32232082902E3
:1006D00003198C2B20162008831687000430F7009E
:1006E000F70B702B8312A0152008831687000330A8
:1006F000F700F70B792B83120712201220088316BC
:1007000087000430F700F70B832B83128711A011A9
:100710002008831687008312D030D2004220D201F5
:100720004220BC013C08083C031CA02B21303C07A4
:10073000840083130008BD00D2004220BC0A922B23
:10074000201220088316870000008312A0152008BD
:10075000831687008312871DAB2B0430F700F70B3D
:10076000AF2BB22B00002016200883168700043020
:10077000F700F70BB92B83128A110A120C2C03080D
:100780001F398300FF30A000831603178715083038
:100790000313990002309A00A6309800903083121B
:1007A0009800831603170908C039890003131F1224
:1007B0009F12003003178800831287018801890186
:1007C000831331300313A1001530A200A3000430BD
:1007D000A4002530A5001030A6002330A7009030DB
:1007E000A8009230A9003030AA00AB001030AC0055
:1007F0000830AD002030AE000230AF002030B00035
:100800009030B1009630B20022283829BD01013065
:10081000BC00BE00052A632B0830BD00A3220C2CAF
:02082000630073
:04400E00E22FFF3F5F
:00000001FF
;PIC16F887
;CRC=B414  CREATED="19-Mar-24 17:01"
