:1000000008308A0000280000C437A0306E1031107C
:100010002D10C825C924000053284B2A2D2A50240E
:10002000C32600002E002E002D002D00CE272022FA
:10003000D318382132180000C3272022D3183821C2
:10004000321800004E223A100001A0374300ED3272
:10005000EE3AA0180001ED32EE3A20192E00ED32F2
:10006000EE3AA0192E00ED32EE3A201A2E00FF30A3
:10007000831685008600003088008801831288017D
:1000800083160910891009118911091089100911A5
:10009000891183128901831687008312A000A000B2
:1000A00083168701831287018A150A124E280830A9
:1000B000F8000430F700F70B5B288711A011200827
:1000C000831687000330F700F70B64288312E90DCD
:1000D0000712031C71282016200883168700752834
:1000E0008312201220088316870000008312A015B7
:1000F0002008831687008312871D7C28F80B592857
:100100000430F700F70B82288711A011200883160E
:100110008700000083122016200883168700033012
:10012000F700F70B91280330F700F70B952883129F
:10013000A0152008831687008312871D9D28F801CB
:100140000330F700F70BA228071A78148711A011C3
:1001500020088316870083120712201220088316B6
:1001600087008312080051308400831300080319AC
:10017000C6280630F800F701F70BBC28F80BBB289F
:100180007B30F700F70BC228800BB92808006608FF
:100190004004E7006708E80020162008831687005F
:1001A0000430F700F70BD2288312A015200883161D
:1001B00087000330F700F70BDB288312871DDE284A
:1001C000071220122008831687000430F700F70B6F
:1001D000E72883128711A0112008831687004E306C
:1001E0008312E90057206808E900572020122008F0
:1001F0008316870000008312A0152008831687004D
:100200008312871D01290430F700F70B05290829FF
:10021000000020162008831687000430F700F70B33
:100220000F29831208006308E600C7206308E40072
:1002300064080438E500E600C7201E291F290000D5
:100240006408FB39E500E600C7205230F700F70BE1
:1002500027292A29000008005E08F039E0005E0E18
:10026000F700F030F7057708F039E10060085F0427
:10027000E200E300132161085F04E200E3001321C0
:1002800008005D08DE00DF012C2108000130DD00E0
:1002900041211430D100B32008001030BE000230DC
:1002A000BF00C00120162008831687000430F70025
:1002B000F70B58298312A0152008831687000330F6
:1002C000F700F70B6129831207122012200883160A
:1002D00087000430F700F70B6B2983128711A011F8
:1002E0002008831687004E308312E9005720BA0198
:1002F000BA153F08BD002830D100B3204008E60001
:10030000C7206430D100B3202030E30013213A0825
:100310002038CB00DD0041210430BB003B153B08F9
:100320000838CB00DD00412146210230BC003C08EA
:100330000438CB00DD0041210230DD0041211430C2
:10034000D100B3208A150A125128D8014030D900B3
:100350001430DA005430DB0057083D020318B3298B
:1003600001303D02D700583057078400831300083E
:1003700056078038DC00DD00412108005908DE0006
:100380000130DF002C2108000B08D6008B138316E8
:1003900003178C170C140000000083120313D61BE4
:1003A0008B1703170C087F390319182A0313D6007B
:1003B00003170D080313D70003170F080313D80002
:1003C0005608D900BE21570803178D00031358089B
:1003D00003178F0003130B08D9008B138316031721
:1003E0008C170C140000000083120313D91B8B1709
:1003F00003170C0D0E0D7F390319182A0313D600AD
:1004000003170D080313D70003170F080313D800B1
:100410005608D900BE21570803178D00031358084A
:1004200003178F008D0A03198F0A0313C4290317BA
:10043000031308001030D200F701FA01CF0CCE0CE4
:10044000031C282A5008F7070318FA0A5108FA076C
:10045000FA0CF70CF90CF80CD20B1E2A080001302C
:10046000D600D701A521043003178D0000308F007E
:100470000313C4210330D6000130D700A5210C306E
:1004800003178D0000308F000313C4214D0B632A26
:100490004C08CF004B08CE000330D100E830D0002C
:1004A0001A227908CF007808CE007908D000D00A47
:1004B000D00303195F2AFF30D100B320582A4E0819
:1004C000D100B32046218A150A1258280830D100DD
:1004D0007708D20020162008831687000330F70023
:1004E000F70B702A8312A015200883168700831249
:1004F000871D782A071A0314071E0310F80D04300D
:10050000F700F70B812AA0112008831687008312B9
:100510008711D10B6A2A2016200883168700033022
:10052000F700F70B912A83120712520803199D2A2C
:10053000201220088316870083120000A0152008CF
:10054000831687008312871DA32A0430F700F70B58
:10055000A72A8711A0112008831687000330F7000F
:10056000F70BB02A83120712201220088316870087
:100570008312080020162008831687000430F70035
:10058000F70BC02A8312A0152008831687000330BA
:10059000F700F70BC92A83120712201220088316CE
:1005A00087000430F700F70BD32A83128711A011BC
:1005B000200883168700D0308312E9005720E90114
:1005C000572020162008831687000430F700F70B09
:1005D000E72A8312A0152008831687000330F7004E
:1005E000F70BF02A8312871DF32A07122012200826
:1005F000831687000430F700F70BFC2A831287115B
:10060000A011200883168700D1308312E9005720FB
:10061000CD014C084D0203185B2B31304D07F8001B
:10062000FA010318FA0A7808CE007A08CF000130E0
:10063000F70066227808D0005008D100510EF7006C
:100640000F30F7057708D3005308D4000A30D500DF
:10065000F701F801540803105518F707F70CF80CC8
:10066000D518F707F70CF80C5519F707F70CF80C25
:10067000D519F707F70CF80C551AF707F70CF80C13
:10068000D51AF707F70CF80C551BF707F70CF80C01
:10069000D51BF707F70CF80C7808D20051080F3972
:1006A0007807F8004E08840083134F1883177808E2
:1006B0008000CD0A092BF70166222012200883163C
:1006C000870000008312A01520088316870083127C
:1006D000871D682B0430F700F70B6C2B6F2B000085
:1006E00020162008831687000430F700F70B762BBE
:1006F000831208000930CC00BA22390830020319ED
:10070000A32B20162008831687000430F700F70B70
:10071000872B8312A0152008831687000330F7006B
:10072000F70B902B831207122012200883168700E4
:100730000430F700F70B9A2B83128711A0112008C1
:10074000831687008312D030E9005720E901572033
:10075000CB014B08083C031CB72B28304B07840007
:1007600083130008CC00E9005720CB0AA92B2012E4
:1007700020088316870000008312A0152008831626
:1007800087008312871DC22B0430F700F70BC62B9E
:10079000C92B000020162008831687000430F700BC
:1007A000F70BD02B83128A150A125B280330CE0276
:1007B000031CE42B4E308400831300080319E42B40
:1007C000E22BE22B800BE12B0800831605100510AD
:1007D000831205100230CC00F930CE00D623CC0BAA
:1007E000EC2B831605140730F700F70BF52BF82BCD
:1007F000000083120518FF2B0030F8000F2C6B301F
:10080000F700F70B012C042C00004B10051C4B14B7
:10081000F030CE00D62300304B180130F80008002D
:100820000130CC004C08083C031C652C0310CB0C99
:10083000003003180130CD004D08CE00831605109E
:100840000510831205101030F700F70B252C00005F
:10085000CE0803193B2C83160510051083120514CE
:100860001030F700F70B322C000005183A2C00303E
:10087000F8005D2C4A2C8316051005108312051014
:100880001030F700F70B422C0000051C4A2C0030FA
:10089000F8005D2C5230F700F70B4C2C4F2C000069
:1008A000831605100510831205145230F700F70B5C
:1008B000572C5A2C00000130F800F808031D632C57
:1008C0000030F800672CCC0A122C0130F800080028
:1008D000E523CC30CB0010244E30CB001024CB01CC
:1008E0001024CB0110247F30CB001024E523CC3022
:1008F000CB0010244430CB0010248A150A125E2845
:10090000831605108312051083160510023083121A
:10091000CD00F930CE00D623CD0B892C83160514DB
:10092000A630F700F70B922C00000514831205186F
:10093000A32C0230CD00C730CE00D623CD0B9B2C8C
:100940000130F800A52C0030F8000800CE014E0858
:10095000073C031CE02C4D08F7004E08F800031973
:10096000B52C0310F70CF80BB12C003077180130C0
:10097000CF004F08D0008316051083120510831690
:1009800005100230F700F70BC32CC62C00008312B1
:10099000D008031DCD2C0510CE2C05148316051090
:1009A0008430F700F70BD22CD52C00000514023050
:1009B000F700F70BD92CDC2C00008312CE0AA72CF1
:1009C0000800D101D2015208073C031C112D8316E7
:1009D000051083120510831605100230F700F70B7F
:1009E000EF2CF22C000005140730F700F70BF62C63
:1009F000F92C000005148312531005185314A63067
:100A0000F700F70B012D0000003053180130F800FB
:100A1000F808031D0D2D03100E2D0314D10CD20A5E
:100A2000E32C5108F8000800F801F901F701FA0178
:100A30005908031D1E2D58080319382D1030DA00EF
:100A40000310D60DD70DF70DFA0D59087A02031DC4
:100A50002B2D58087702031C342D5808F702031C6D
:100A6000FA035908FA020314F80DF90DDA0B202DD8
:100A70000800CC014130CB008024F808031D432D31
:100A80000030F800912DCC30CD00A6244430CD00AC
:100A9000A624E124F8080319492D8024F808031D31
:100AA000542D0030F800912DCC30CD00A624BE305E
:100AB000CD00A6244C08FA004B08CD004C08CE000F
:100AC000E1244D08840083134E188317840A8001A3
:100AD0008403780880004C08FA004B08CD004C08CD
:100AE000CE004B08840083134C188317840A000837
:100AF000D00084030008CF00E124D20100304F046D
:100B0000F70078085004FA004D08840083134E184B
:100B10008317840A7A0880008403770880000130F4
:100B2000F800F8080319A02D420CFA00410CF90056
:100B3000FA0CF90CFA0CF90CFA0CF90C7908C30050
:100B400041080F39F700FA017708C5007A08C60096
:100B50004608CF004508CE000230D1007130D000E9
:100B60001A227908CC007808CB007908D7007808D9
:100B7000D600D9010A30D80014257908CA007808AF
:100B8000C9008A150A1266284D080739F7004D0C6E
:100B9000F800F80CF80C1F30F80578084F078400AF
:100BA000831350188317F801F80AF70AD82DF80DA7
:100BB000F70BD72DCE080319E02D78088004E32D1C
:100BC000F8097808800508004D080739F7004D0C32
:100BD000F800F80CF80C1F30F80578084E07840070
:100BE00083134F1883170008F800F70AF82DF80C44
:100BF000F70BF72D08005708F80156020318032ECB
:100C00005608F7000F2EF7010830D800D60DF70D63
:100C1000570877020318F700F80DD80B062E0800C6
:100C20000130CB003030CC004C08CD000130CE007C
:100C3000D0018030CF00C4254C08CD00CF01CE01BB
:100C4000E4257818512E1430D100B3204C08CD0083
:100C50000130CE00D0018030CF00C4254C08CD003B
:100C6000CF01CE01E42578184E2ECB080319482E6B
:100C70004C08CD000130CE00D0018030CF00C4251B
:100C80004C08CD00CF01CE01E425781C382E4B2E28
:100C90000A30D100B3200130F800532E0030F800A4
:100CA000532E0030F8007808A2072208043C0318ED
:100CB0005B2EA201AD2F230822020319662E220803
:100CC000A3004621A401A501A601A701220803193A
:100CD000732E013A0319822F033A03198D2F013A1B
:100CE0000319982FA32F0430CB00CC013308CD007B
:100CF0003208CE003108CF004D08D6000A30D700A8
:100D0000FB2530307807D0004D08D6000A30D700D8
:100D1000FB2530307707D1004E08D6000A30D700C7
:100D2000FB2530307807D2004E08D6000A30D700B5
:100D3000FB2530307707D3004F08D6000A30D700A4
:100D4000FB2530307807D4004F08D6000A30D70092
:100D5000FB2530307707D5004B08D6004C08D7006C
:100D6000A5215008D900BE215108D900BE21143058
:100D700003178D0000308F000313C4215208D900DF
:100D8000BE215308D900BE21153003178D00003055
:100D90008F000313C4215408D900BE215508D9007F
:100DA000BE210230D6000130D700A5212230031722
:100DB0008D0000308F000313C421CC014308CB0009
:100DC0000630CD000130CE00CF00D0014D08D60056
:100DD0004E08D700A5214C08D7004B08D600D901F2
:100DE0000A30D800142530307807D1004C08D700DD
:100DF0004B08D600D9010A30D800142530307707C7
:100E0000D2000130CF00CF0803190C2F5108303C1D
:100E1000031D0C2F2030D100500B152F123003175B
:100E20008D0000308F000313C4215108D900BE216A
:100E30005208D900BE214A08CC004908CB0008302E
:100E4000CD000130CE00CF00D0004D08D6004E08B6
:100E5000D700A5214C08D7004B08D600D901643033
:100E6000D800142530307807D1004C08D7004B0843
:100E7000D600D9010A30D80014257908D5007808A1
:100E8000D4007908D7007808D600D9010A30D800F4
:100E9000142530307707D2004C08D7004B08D60015
:100EA000D9010A30D800142530307707D30001303B
:100EB000CF00CF080319682F5108303C031D682F5D
:100EC0002030D1005208303C031D682F2030D20062
:100ED000500B712F133003178D0000308F00031358
:100EE000C4215108D900BE215208D900BE2153089F
:100EF000D900BE21253003178D0000308F00031369
:100F0000C421AD2FD601D701A521273003178D00AD
:100F100000308F000313C421AD2FD601D701A521C6
:100F20002B3003178D0000308F000313C421AD2F29
:100F3000D601D701A5212F3003178D0000308F0077
:100F40000313C421AD2FD601D701A52133300317D8
:100F50008D0000308F000313C4218A150A126928FE
:1010000003081F398300FF30A000831603178715DC
:1010100008300313990002309A00A63098009030EF
:1010200083129800A2010130A300A401A501A6012A
:10103000A701831603170908C039890003131F127B
:101040009F120030031788008312870188018901ED
:10105000831331300313A8001530A900AA0004300F
:10106000AB002530AC001030AD002330AE00903026
:10107000AF009230B0003030B100B2001030B30099
:101080000830B4002030B5000230B6002030B70080
:101090009030B8009630B9008A1137288A158A1125
:1010A0004D298A15CC010130CB00CD008A112F2AA1
:1010B0008A158A117A2B8A158A11682C8A150830AC
:1010C000CC008A11BA228A158A11392D8A158A1103
:0810D000102E8A155F28630051
:04400E00E22FFF3F5F
:00000001FF
;PIC16F887
;CRC=060F  CREATED="20-Mar-24 14:57"
