:1000000005308A00362D0000FF00030E8301A10099
:100010000A08A0008A010408A2007708A300780853
:10002000A4007908A5007A08A60003170D08031399
:10003000A70003170F080313A80003170C080313E6
:10004000A90003170E080313AA00831383128C3030
:100050008400001C2D280C184E2822088400230838
:10006000F7002408F8002508F9002608FA002708F8
:1000700003178D000313280803178F0003132908A3
:1000800003178C0003132A0803178E00031320089C
:100090008A00210E8300FF0E7F0E09008A110A12CA
:1000A00051288E01E7308F0096308E00000001301D
:1000B000AC060C108A110A122D28C437A0306E101D
:1000C00031102D10C825C924000053284B2A2D2A91
:1000D0005024C32600002D002D00B53090008E0165
:1000E000E7308F0096308E000000C0308B048316FE
:1000F0000C14FF308500DF30860000308800880156
:1001000083128801831609108910091109108910BA
:10011000091183128901831687008312AB00AB009B
:1001200083168701831287012C10AC108A110A12E2
:10013000872D94138C117E0893000230941BA728FE
:1001400083161419A1280030111B01308312F80006
:1001500008001413831691159119AC287718911281
:10016000771C91161116111AB32883121308F80080
:100170000800831611141118BB28D030FE0083121A
:100180009920FE019920831691149118C528D13029
:10019000FE0083129920D701560857020318DB2866
:1001A00041305707840083130130F700A9207808F5
:1001B0008000D70ACC28F701A9207808D700831639
:1001C00011151119E128831208000930D600B92051
:1001D00049084002031918290130D600831611146A
:1001E0001118F028D030FE0083129920FE019920CA
:1001F000D7015708083C031C1329D60803190929FD
:1002000038305707840083130008D800FE00992077
:10021000112941305707840083130008D800FE00DD
:100220009920D70AF9288316111511191529831257
:100230008A110A12882D573084008313000803198D
:100240002E290630F800F701F70B2429F80B232993
:100250007B30F700F70B2A29800B212908007B0847
:100260003504FC007C08FD00831691149118362992
:100270004E30FE00831299207D08FE0099208316DF
:10028000111511194129831208007408FB002F2150
:100290007408F50075080438F600FB002F2150297A
:1002A000512900007508FB39F600FB002F2153305F
:1002B000F700F70B592908006F08F039F1006F0EAD
:1002C000F700F030F7057708F039F2007108700494
:1002D000F300F400452172087004F300F400452196
:1002E00008006E08EF00F0015C2108000130EE000C
:1002F00071211430D7001B2108001030B3000230E8
:10030000B400B50183161114111884294E30FE0073
:1003100083129920AF01AF153408B2002830D700FE
:100320001B213508FB002F216430D7001B21303002
:10033000F40045210530D7001B213030F400452161
:100340000530D7001B213030F40045210530D7009F
:100350001B212030F40045212F082038D600EE0064
:1003600071210430B000301530080838D600EE0096
:10037000712176210230B10031080438D600EE0038
:1003800071210230EE0071211430D7001B218A1137
:100390000A12892DE9014030EA001430EB00543094
:1003A000EC00680832020318D82901303202E80054
:1003B0006930680784008313000867078038ED0000
:1003C000EE00712108006A08EF000130F0005C21A6
:1003D00008000B08E7008B13831603178C170C1407
:1003E0000000000083120313E71B8B1703170C0890
:1003F0007F3903193D2A0313E70003170D08031380
:10040000E80003170F080313E9006708EA00E32177
:10041000680803178D000313690803178F0003137F
:100420000B08EA008B13831603178C170C140000BB
:10043000000083120313EA1B8B1703170C0D0E0D1C
:100440007F3903193D2A0313E70003170D0803132F
:10045000E80003170F080313E9006708EA00E32127
:10046000680803178D000313690803178F008D0AAE
:1004700003198F0A0313E929031703130800013036
:10048000E700E801CA215D3003178D0000308F00BE
:100490000313E9210330E7000130E800CA21653089
:1004A00003178D0000308F000313E9210830D600B8
:1004B000FA30D7001B21D60B582A76218A110A124E
:1004C0008A2D0330D902031C6F2A5930840083130C
:1004D000000803196F2A6D2A6D2A800B6C2A080008
:1004E000831605108312051083160510023083123F
:1004F000D800F930D9006122D80B792A8316051467
:10050000A630F700F70B822A0000051483120518A5
:10051000932A0230D800C730D9006122D80B8B2A29
:100520000130F800952A0030F8000800D901590878
:10053000073C031CCA2A5808F7005908F800031999
:10054000A52A0310F70CF80BA12A00307718013008
:10055000DA005A08DB008316051083120510831693
:1005600005100330F700F70BB32A8312DB08031DD5
:10057000BB2A0510BC2A0514831605108530F70028
:10058000F70BC02A05140330F700F70BC52A8312B6
:10059000D90A972A0800DC01DD015D08073C031C2D
:1005A000F72A8316051083120510831605100330F1
:1005B000F700F70BD92A05140830F700F70BDE2AED
:1005C000051483125E1005185E14A630F700F70BB1
:1005D000E72A000000305E180130F800F808031D1B
:1005E000F32A0310F42A0314DC0CDD0ACD2A5C087C
:1005F000F800080058080739F700580CF800F80C04
:10060000F80C1F30F80578085A07840083135B182C
:100610008317F801F80AF70A0E2BF80DF70B0D2BCC
:10062000D9080319162B78088004192BF8097808C3
:100630008005080058080739F700580CF800F80C36
:10064000F80C1F30F80578085907840083135A18EE
:1006500083170008F800F70A2E2BF80CF70B2D2B48
:100660000130F8050800580EF7000F30F70577083D
:10067000DA005A08DB000A30DC00F701F8015B08F9
:1006800003105C18F707F70CF80CDC18F707F70CE9
:10069000F80C5C19F707F70CF80CDC19F707F70CE6
:1006A000F80C5C1AF707F70CF80CDC1AF707F70CD4
:1006B000F80C5C1BF707F70CF80CDC1BF707F70CC2
:1006C000F80C7808D90058080F397807F8000800A6
:1006D0006808F80167020318702B6708F7007C2B85
:1006E000F7010830E900E70DF70D680877020318F5
:1006F000F700F80DE90B732B08000830D600B9207D
:10070000D7014A30D6007022F808031D8A2B00302A
:10071000F800D82BCC30D80096224430D80096224E
:10072000CB22F8080319902B7022F808031D9B2B8D
:100730000030F800D82BCC30D8009622BE30D8003C
:1007400096225708FA005608D8005708D900CB223D
:1007500058088400831359188317840A800184037E
:10076000780880005708FA005608D8005708D900C2
:1007700056088400831357188317840A0008DB0087
:1007800084030008DA00CB22DD0100305A04F700B0
:1007900078085B04FA0058088400831359188317FB
:1007A000840A7A0880008403770880000130F8000A
:1007B000F8080319402CAC144B0CFA004A0CF90051
:1007C000FA0CF90CFA0CF90CFA0CF90C7908CC00BB
:1007D0004A080F39F700FA017708D2007A08D300E7
:1007E0005308D7005208D6000230D9007130D80023
:1007F0001030DA00F701FA01D70CD60C031C062CD6
:100800005808F7070318FA0A5908FA07FA0CF70C00
:10081000F90CF80CDA0BFC2B7908D7007808D60015
:100820005708D9005608D800DB010A30DA00F80171
:10083000F901F701FA015B08031D212C5A0803197D
:100840003B2C1030DC000310D80DD90DF70DFA0D3C
:100850005B087A02031D2E2C5A087702031C372CE2
:100860005A08F702031CFA035B08FA020314F80D96
:10087000F90DDC0B232C7908CF007808CE00412C31
:10088000AC10D6013330D7005708D8000130D9005A
:10089000DB018030DA00FA225708D800DA01D901EA
:1008A0001A237818842C2C18AD0A2D08013C031843
:1008B000812C5708D8000130D900DB018030DA00E4
:1008C000FA225708D800DA01D9011A2378187E2CA9
:1008D000D608031D7A2C5708D8000130D900DB0157
:1008E0008030DA00FA225708D800DA01D9011A2339
:1008F000781C6B2CAD010130F800872C0030F8001B
:10090000872C0030F800872CAD010030F800F80883
:10091000031DD40A5408043C031CD4015508540296
:100920000319952C5408D500762154080319A52CD9
:10093000013A03192F2D033A0319302D013A0319F7
:10094000312D073A0319322D332D4308D8003323B4
:100950007808D6004208D80033237808D700410829
:10096000D80033237808D8000430D900DA015608BB
:10097000DB005708DC005808DD000130DE00DF0036
:10098000E0005E0BCB2C5B08E7000A30E800682330
:1009900030307807CC2C2030E1005E0BD72C5B0880
:1009A000E7000A30E800682330307707D82C203081
:1009B000E2005F0BE32C5C08E7000A30E8006823E4
:1009C00030307807E42C2030E3005F0BEF2C5C081C
:1009D000E7000A30E800682330307707F02C203039
:1009E000E400600BFB2C5D08E7000A30E800682398
:1009F00030307807FC2C2030E500600B072D5D08B7
:100A0000E7000A30E800682330307707082D2030EF
:100A1000E6005908E7005A08E800CA216108EA0020
:100A2000E3216208EA00E3216B3003178D000030F8
:100A30008F000313E9216308EA00E3216408EA0058
:100A4000E3216C3003178D0000308F000313E92180
:100A50006508EA00E3216608EA00E321332D332D1F
:100A6000332D332D332D8A110A128B2D03081F3994
:100A70008300FF30AB00AB152B0883168700831271
:100A80002B162B08831687003130930028308312F1
:100A9000940083169417141381309900A63098009F
:100AA0009030831298002C10AC10AD01AE01B7014C
:100AB000B601D401D50183161F149F141F159F1171
:100AC00007309C00831331308312B8001530B90011
:100AD000BA000430BB002530BC001030BD0023300C
:100AE000BE009030BF009130C0003030C100C20065
:100AF0001030C3000830C4002030C5000230C600EA
:100B00002030C7009030C8009130C9006D28E5281A
:0A0B10007D293F2A7D2B8A2D63000A
:02400E00723FFF
:00000001FF
;PIC16F877A
;CRC=04E1  CREATED="02-Jun-24 02:05"
