:1000000010308A0000280000FF00030E8301A100C9
:100010000A08A0008A010408A2007708A300780853
:10002000A4007908A5007A08A60003170D08031399
:10003000A70003170F080313A80003170C080313E6
:10004000A90003170E080313AA00831383128C3030
:100050008400801E2D288C1A54288C308400001CAB
:1000600033280C185728220884002308F700240896
:10007000F8002508F9002608FA00270803178D0064
:100080000313280803178F000313290803178C0094
:1000900003132A0803178E00031320088A00210E79
:1000A0008300FF0E7F0E09008A110A125A288A1156
:1000B0000A1290288C1E86288C1E5C281A0883162B
:1000C000CA004A080D3C031969284A080A3C031D66
:1000D000752847308312570784008313800157081F
:1000E000D9000130D80086288316831257080E3CA9
:1000F000031C84285708D70A473E840083138316BD
:100100004A088000872883120F30D7008316831295
:100110008C128A110A123328F339BA37EB060A0017
:100120008E01E7308F0095308E0000000130AC0664
:10013000AE0A0319AF0AAF08031DA2282E08093C16
:100140000318DA28B30AAF01AE01B108031DB028C5
:100150003008C73C031CB028B00A0319B10AB22802
:10016000B101B0013008643C031DB928B10803197E
:10017000BF283008C83C031DC028B1080319AC14BF
:100180003008823C031DC728B10803192C1530081C
:10019000A03C031DCE28B1080319AC153C1CD9287E
:1001A0003D08633C031CD628BD0AD828BD013C107D
:1001B000DA283C100C108A110A123328C437A030F8
:1001C0006E1031102D10C825C924000053284B2A69
:1001D0002D2A5024C32600002D002D002E002E00B5
:1001E0004E223A100001A03743004E22AD23481D95
:1001F0002000A037430020272000472847004E2A30
:100200004E00202A2000DF2F0000DF2F0000643A7C
:100210003A39741D0010643A3A36741D0001643A8C
:100220003A39611D0001E3306910E4307410E4379D
:10023000EE3320346F00F417671063346F10E3302F
:10024000A0306E006334E5316B10E3376D10E53993
:1002500070004937E637F236613AE9376E00D63238
:10026000F239E9376E1D202B311730173000C832B4
:100270006C366F106639EF362028C921311B461CB9
:10028000B71BC1100D050000B53090008E01E7309E
:100290008F0096308E000000C0308B0483160C1443
:1002A0008C16FF308500DF30860000308800091092
:1002B000891009119830870083122C10AC102C1271
:1002C0001930AD00AC162C17AC170930B700303020
:1002D000B800B9008A110A16612894138C1183168C
:1002E0004708831293000230941B7D29831614194A
:1002F00077290030111B01308312F8000800141315
:10030000831691159119822977189112771C9116ED
:100310001116111A892983121308F8000800831690
:10032000111411189129D030C70083126D21831642
:10033000C70183126D218316911491189D29D13024
:10034000C70083126D21FC017B087C020318B329CE
:100350006E307C07840083130130F7007F2178081A
:100360008000FC0AA429F7017F217808FC0083168D
:1003700011151119B929831208000930FB008F21CA
:1003800076086D020319F6290130FB00831611145B
:100390001118C829D030C70083126D218316C701F8
:1003A00083126D21FC017C08083C031CF129FB0829
:1003B0000319E52965307C07840083130008FD00DC
:1003C0008316C70083126D21EF296E307C078400ED
:1003D00083130008FD008316C70083126D21FC0AF9
:1003E000D329831611151119F32983128A110A16BC
:1003F00064287C3084008313000803190C2A06301B
:10040000F800F701F70B022AF80B012A7B30F700FE
:10041000F70B082A800BFF29080083164108C40047
:100420004408831264048316C5004508C60091146D
:100430009118182A4E30C70083126D218316460882
:10044000C70083126D21831611151119252A410841
:10045000C20042080438C3004308C40044088312A1
:1004600064048316C5004508C60091149118362A05
:100470004E30C70083126D2183164608C7008312D1
:100480006D21831611151119432A462A472A0000A7
:100490004208FB39C3004308C400440883126404C3
:1004A0008316C5004508C60091149118552A4E3090
:1004B000C70083126D2183164608C70083126D2181
:1004C000831611151119622A5330F700F70B662AAB
:1004D0008312080083163B08BC00BD013C08F039BC
:1004E000BE003C0EF700F030F7057708F039BF008A
:1004F0003E083D04C000C10083120D2283163F0850
:100500003D04C000C10083120D2208000130831693
:10051000BB0083126A221430FC00F921080010305D
:10052000E2000230E300E401831611141118962A48
:100530004E30C70083126D21DE01DE156308E10035
:100540002830FC00F92164088316C4004408831293
:1005500064048316C5004508C60091149118AE2A9C
:100560004E30C70083126D2183164608C7008312E0
:100570006D21831611151119BB2A6430FC008312FA
:10058000F92130308316C10083120D220530FC00A2
:10059000F92130308316C10083120D220530FC0092
:1005A000F92130308316C10083120D220530FC0082
:1005B000F92120308316C10083120D225E082038F5
:1005C000FB008316BB0083126A220430DF005F1534
:1005D0005F080838FB008316BB0083126A2286225C
:1005E0000230E00060080438FB008316BB00831271
:1005F0006A2202308316BB0083126A221430FC0088
:10060000F9218A110A16672803308316A102031CF8
:10061000132BA1308400831300080319132B112B13
:10062000112B800B102B83120800FB017B08313C3F
:10063000031C2F2B87140430FC00C7308316A10045
:1006400083120423FC0B1D2B87101330FC00F921AF
:10065000C8308316A10083120423FB0A162B08005E
:100660008316B6014030B7001430B8005430B900DA
:100670003508831261020318422B01306102831690
:10068000B5008312B6308316350784008313000843
:1006900034078038BA00BB0083126A220800831630
:1006A0003708BC000130BD003C08F039BE003C0EEC
:1006B000F700F030F7057708F039BF003E083D0439
:1006C000C000C10083120D2283163F083D04C00004
:1006D000C10083120D2208000B088316B400831298
:1006E0008B13831603178C170C14000000000313E0
:1006F000B41F7D2B83128B178316831203170C08EC
:100700007F390319DE2B83160313B40083120317FA
:100710000D0883160313B500831203170F08831601
:100720000313B6003408B70083124F23831635082D
:10073000831203178D0083160313360883120317E1
:100740008F0003130B088316B70083128B138316D5
:1007500003178C170C14000000000313B71FB32BF2
:1007600083128B178316831203170C0D0E0D7F391E
:100770000319DE2B83160313B400831203170D082D
:1007800083160313B500831203170F088316031390
:10079000B6003408B70083124F238316350883123E
:1007A00003178D00831603133608831203178F0077
:1007B0008D0A03198F0A03136C2B03170313080008
:1007C00001308316B400B50183123023DE300317E5
:1007D0008D0000308F0003136C2303308316B400A8
:1007E0000130B50083123023E63003178D0000304E
:1007F0008F0003136C230830FB00FA30FC00F92152
:10080000FB0BFD2B86228A110A166D280B08831616
:10081000A00083128B13831603178C170C1400008F
:1008200000000313A01F172C83128B17831683124B
:1008300003170C087F3903197A2C83160313A000C1
:10084000831203170D0883160313A10083120317E5
:100850000F0883160313A200200883120C1E2E2CEF
:10086000990083162108831203178D008316031342
:100870002208831203178F0003130B088316A300AB
:1008800083128B13831603178C170C1400000000BF
:100890000313A31F4E2C83128B1783168312031787
:1008A0000C0D0E0D7F3903197A2C83160313A0004B
:1008B000831203170D0883160313A1008312031775
:1008C0000F0883160313A200200883120C1E662C47
:1008D000990083162108831203178D0083160313D2
:1008E0002208831203178F008D0A03198F0A03133E
:1008F000062C0317031308007D080739F7007D0C49
:10090000F800F80CF80C1F30F8057808831620075B
:1009100084008313211883170008F800F70A912C2C
:10092000F80CF70B902C0130F80583120800051025
:10093000831605100230A000F930A10083120423B1
:100940008316A00B9C2C0514A630F700F70BA62CE1
:10095000000083120518BA2C02308316A000C7309D
:10096000A100831204238316A00BAF2C0130F800E2
:10097000BD2C83120030F800831683120800831602
:10098000A1012108073C031CF22C2008F7002108D4
:10099000F8000319CF2C0310F70CF80BCB2C003008
:1009A00077180130A2002208A300831205108316D5
:1009B00005100330F700F70BDB2CA308031DE42C14
:1009C00083120510E62C8316831205148530F70078
:1009D000F70BE82C831605140330F700F70BEE2C09
:1009E000A10AC12C831208008316A401A5012508C1
:1009F000073C031C222D83120510831605100330BB
:100A0000F700F70B012D05140830F700F70B062D42
:100A100026108312051C0F2D831626148312A63070
:100A2000F700F70B112D0000003083162618013057
:100A3000F800F808031D1E2D03101F2D0314A40C2D
:100A4000A50AF72C2408F80083120800F801F90120
:100A5000F701FA0183163108031D312D30080319FF
:100A60004B2D1030B2000310AE0DAF0DF70DFA0D87
:100A700031087A02031D3E2D30087702031C472DF2
:100A80003008F702031CFA033108FA020314F80DC8
:100A9000F90DB20B332D83120800FC013E30FB0030
:100AA0009724F808031D572D0030F800BA2DCC30DC
:100AB0008316A0008312BF2444308316A000831243
:100AC000BF24F424F8080319612D9724F808031DA6
:100AD0006C2D0030F800BA2DCC308316A0008312A4
:100AE000BF24BE308316A0008312BF247C08FA0006
:100AF0007B088316A0007C08A1008312F4248316CF
:100B000020088400831321188317840A800184033A
:100B1000780880007C08FA007B08A0007C08A1000F
:100B200020088400831321188317840A0008A30077
:100B300084030008A2008312F4248316A501780818
:100B4000A400FA0000302204F7007A082304FA0017
:100B50007708A2007A08A3002008840083132118D4
:100B60008317840A23088000840322088000013050
:100B7000F8008312F8080319FD2D2C163F0CFA001B
:100B80003E0CF900FA0CF90CFA0CF90CFA0CF90C01
:100B90007908C0003E080F39C300C4014408FC00B6
:100BA0004308FB000230FE007130FD001030831658
:100BB000A000F701FA01FC0CFB0C031CE52D7D08DD
:100BC000F7070318FA0A7E08FA07FA0CF70CF90C73
:100BD000F80CA00BDB2D7908FC007808FB007908E5
:100BE000AF007808AE00B1010A30B00083122625AC
:100BF0007908C2007808C100FE2D2C120800F70108
:100C0000F8018316250803102618F707F70CF80CCF
:100C1000A618F707F70CF80C2619F707F70CF80CCD
:100C2000A619F707F70CF80C261AF707F70CF80CBB
:100C3000A61AF707F70CF80C261BF707F70CF80CA9
:100C4000A61BF707F70CF80C831208008316220E78
:100C5000F7000F30F7057708A400A5000A30A600BA
:100C60008312FF2578088316A30022080F39230773
:100C7000F8008312080083163508F80134020318BF
:100C8000442E3408F700502EF7010830B600B40D9A
:100C9000F70D350877020318F700F80DB60B472E4D
:100CA0008312080083162B0B5F2E2808B4000A302D
:100CB000B50083123B2630307807612E8316203032
:100CC00083128316AE002B0B6F2E2808B4000A3057
:100CD000B50083123B2630307707712E8316203003
:100CE00083128316AF002C0B7F2E2908B4000A3024
:100CF000B50083123B2630307807812E83162030D2
:100D000083128316B0002C0B8F2E2908B4000A30F2
:100D1000B50083123B2630307707912E83162030A2
:100D200083128316B1002D0B9F2E2A08B4000A30BF
:100D3000B50083123B2630307807A12E8316203071
:100D400083128316B2002D0BAF2E2A08B4000A308E
:100D5000B50083123B2630307707B12E8316203042
:100D600083128316B3002608B4002708B500831247
:100D7000302383162E08B70083124F2383162F08C3
:100D8000B70083124F23EC3003178D0000308F0023
:100D900003136C2383163008B70083124F23831686
:100DA0003108B70083124F23ED3003178D00003058
:100DB0008F0003136C2383163208B70083124F236E
:100DC00083163308B70083124F23080083162508C3
:100DD000B4002608B5008312302383162408AF0020
:100DE0002308AE00B1010A30B0008312262579082D
:100DF0008316AC007808AB0030302B07A90024081C
:100E0000AF002308AE00B1010A30B00083122625DE
:100E100077088316AB007A08AC0030302B07AA00A5
:100E2000270B182F2908303C031D182F2030A9004C
:100E3000280B232FEE30831203178D0000308F0014
:100E400003136C2383162908B70083124F238316DC
:100E50002A08B70083124F2308007B088316B400CA
:100E60007C08B50083123023F03003178D0000306A
:100E70008F0003136C2304307B078316A2007E08C7
:100E8000A4007D08A3002208A5007C08A60001306C
:100E9000A700A8018312E62606307B078316A2006E
:100EA0002108A4002008A3002208A5007C08A600B1
:100EB000A7010130A8002508B4002608B500831258
:100EC000302383162408AF002308AE00B10164303C
:100ED000B0008312262579088316AD007808AC008F
:100EE00030302C07A9002408AF002308AE00B10160
:100EF0000A30B0008312262579088316AD007808E1
:100F0000AC002D08AF002C08AE00B1010A30B000D3
:100F10008312262577088316AC007A08AD0030309E
:100F20002C07AA002408AF002308AE00B1010A3044
:100F3000B0008312262577088316AC007A08AD002E
:100F400030302C07AB00270BB12F2908303C031D94
:100F5000B12F2030A9002A08303C031DB12F2030CA
:100F6000AA00280BBC2FEF30831203178D0000302E
:100F70008F0003136C2383162908B70083124F23B5
:100F800083162A08B70083124F2383162B08B70055
:100F900083124F23F33003178D0000308F000313AB
:100FA0006C23080086166430FC00F92186128C3010
:100FB00003178D0000308F000313062408007C08FF
:100FC0008316B4000A30B50083123B26780EFD006C
:100FD000F030FD057C088316B4000A30B50083129A
:0A0FE0003B2677087D07F8000800A3
:1010000020308316201E3030A1007E08F700FE1F1E
:101010001128F709F70A7708FE002D30A100A01764
:1010200020147E08B4006430B5008A1183123B2678
:101030008A157708FE00303078078316A2007E08F4
:10104000B4000A30B5008A1183123B268A1530306D
:1010500077078316A40030307807A3002108F70033
:101060003030220203193828A014A01B20154C2868
:101070002108A2002030A1003030230203194428A7
:101080002014A01BA0144C28031D2014031D4C2861
:101090002208A3002030A20020195328A0185928A4
:1010A00020185F286528210883120C1E55289900F6
:1010B0008316220883120C1E5B28990083162308CE
:1010C00083120C1E612899008316240883120C1EBB
:1010D0006728990008007C08FD008316A101A00183
:1010E0008A1183127C248A15781883282C18DD0A2B
:1010F0007B085D02031C8028DD010130F800852893
:101100000030F80085280030F8000800B508031901
:10111000B328350B8C2890283508043C031D9528EE
:101120002030AC062C17AC17B2283508023C031946
:101130009D283508053C031DA228AC164030AC069E
:10114000AC17B2283508033C0319AA283508063C19
:10115000031DAF28AC162C178030AC06B228AC1695
:101160002C17AC17B628AC162C17AC170800700853
:101170008316A2008A11831226268A157808831600
:10118000A00083126F088316A2008A1183122626FC
:101190008A1578088316A10083126E088316A200B0
:1011A0008A11831226268A1578088316A200003039
:1011B0008312AC1B01308316A300003083122C1B5A
:1011C00001308316A40000308312AC1A013083165C
:1011D000A5000430A6000130A7002008A8002108BF
:1011E000A9002208AA002308AB002408AC002508A7
:1011F000AD008A11831252268A15080072088316E0
:10120000A2008A11831226268A1578088316A00068
:101210007308A2008A11831226268A15780883167D
:10122000A1007408A2008A11831226268A15780864
:101230008316A20000308312AC1B01308316A3007A
:10124000003083122C1B01308316A400003083125F
:10125000AC1A01308316A5000430A6000130A700A7
:101260002008A8002108A9002208AA002308AB0032
:101270002408AC002508AD008A11831252268A1575
:10128000080071088316A2008A11831226268A1587
:101290007808FB0000302C1B0130FC000430831662
:1012A000A6000130A700A8017808A900AA01AB0197
:1012B0007C08AC00AD018A11831252268A15080001
:1012C000B508031D7229B40803196829340B69296C
:1012D000B7203408023C0319FE203408033C0319EC
:1012E00041218629B51B78293508033C031C7A293E
:1012F000B7208629B51B80293508063C031C8229A6
:10130000FE2086293508073C0319412108007B0E81
:101310008316A0000F30A0057B080F39FE002008BF
:10132000A5000A30A6008A118312FF258A157E08BF
:101330007807FD00FC08031D9F29FD0AA029FD0375
:101340007D088316B4000A30B5008A1183123B264B
:101350008A1578088316A0007D08B4000A30B5000D
:101360008A1183123B268A157708FE008316200E09
:10137000F700F030F70577087E04A1002108F80097
:1013800083120800831611141118C429D030C70025
:101390008A1183126D218A157B088316C7008A1172
:1013A00083126D218A157C088316C7008A11831267
:1013B0006D218A15831611151119DC298312080075
:1013C0007B087C068039FE00FB1FE829FB09FB0A2D
:1013D000FC1FEC29FC09FC0A7C08F8017B020318BD
:1013E000F4297B08F700002AF7010830FD00FB0D07
:1013F000F70D7C0877020318F700F80DFD0BF729AD
:10140000FE1F042AF809F80A080037088316A2000C
:101410008A11831226268A1578088316A000831263
:1014200038088316A2008A11831226268A157808A6
:101430008316A100831239088316A2008A11831231
:1014400026268A1578088316A20000308312AC1B6A
:1014500001308316A300003083122C1B0130831649
:10146000A40000308312AC1A01308316A5000430AA
:10147000A6000130A7002008A8002108A900220822
:10148000AA002308AB002408AC002508AD008A118F
:08149000831252268A150800A0
:1020000003081F398300FF30AB00AB152B08831684
:10201000870083122B162B0883168700313093001C
:10202000283083129400831694171413813099007A
:10203000A63098009030831298002C10AC102C1110
:10204000AC112C121930AD00B401B501B601BA01C2
:10205000BB01BD01D701D801D901DB01DA01DC01E7
:10206000DD0183161F149F141F159F1107309C005C
:1020700083138312C501C601C7013130E500153055
:10208000E600E7000430E8002530E9001030EA00FF
:102090002330EB009030EC009130ED003030EE005A
:1020A000EF001030F0000830F1002030F200023074
:1020B000F3002030F4009030F5009130F6000A1261
:1020C00044290A160A12BD290A160A128F2A0A166C
:1020D0000A1215230A160A12E02B0A1637300317C4
:1020E0008D0001308F000A12031306240A16FB012B
:1020F0003030FC007C08FD008316A101A0010A120B
:1021000083127C240A167818AF282C1C8828DC0A35
:102110005C08003C0318AC287C08FD008316A10174
:10212000A0010A1283127C240A167818A928FB0839
:10213000031DA5287C08FD008316A101A0010A1239
:1021400083127C240A16781C9A28DC010130F800DE
:10215000B1280030F800B1280030F800B128003074
:10216000F800F8080319B528BA0A3A08053C03181C
:10217000BA28BA013B083A020319C3283A08BB003F
:102180000A1286220A163A080319D328013A0319BB
:10219000BA2A033A0319272B013A0319F62D073AF5
:1021A0000319352F652F0830FB000A128F210A16FC
:1021B0000A124D250A1670088316A2000A1283120D
:1021C00026260A167808FB006F088316A2000A125A
:1021D000831226260A167808FC006E088316A200D1
:1021E0000A12831226260A167808FD000430831688
:1021F000A600A7017B08A8007C08A9007808AA000F
:102200000130AB00AC00AD000A12831252260A1650
:102210000230FB000130FC00FE014008FD004208D6
:102220008316A100831241088316A0000A128312AC
:102230002D270A164008FB002D08FC007B087C02B5
:1022400003182529081788132729081388177008E9
:102250008316A2000A12831226260A167808FB00AB
:1022600037088316A2000A12831226260A16780857
:102270007B02031D64296F088316A2000A128312D1
:1022800026260A167808FB0038088316A2000A12D0
:10229000831226260A1678087B02031D64296E081D
:1022A0008316A2000A12831226260A167808FB005B
:1022B00039088316A2000A12831226260A16780805
:1022C0007B02031D64293C143C1C9029FB017B0804
:1022D000313C031C8F2987140130FC000A12F921BC
:1022E0000A160230FC00F9308316A1000A1283128C
:1022F00004230A16FC0B732987101230FC000A1203
:10230000F9210A160230FC00F9308316A1000A12E6
:10231000831204230A16FC0B8429FB0A67299329DC
:102320000A1215230A16D8080319232AD801D7013F
:10233000D9014708733C031DB8294808743C031DA4
:10234000B82949083A3C031DB82930304A02FC003C
:102350008316A5000A30A6000A128312FF250A166A
:1023600030304B027807AD000A12D2270A16232A12
:102370004708733C031D132A4808613C031D132AB8
:1023800049083A3C031D132A4A08673C031D122AD8
:102390004B08703C031D122A4C08673C031D122A8F
:1023A00030304E02FC008316A5000A30A6000A1247
:1023B0008312FF250A167808FB00FC000A12DF27AB
:1023C0000A1630304F027807B70030305102FC0057
:1023D0008316A5000A30A6000A128312FF250A16EA
:1023E0007808FB00FC000A12DF270A163030520280
:1023F0007807B80030305402FC008316A5000A307C
:10240000A6000A128312FF250A167808FB00FC00BA
:102410000A12DF270A16303055027807B9000A126F
:10242000D2270A16232A4708633C031D232A48089B
:10243000733C031D232A49083A3C031D232A3C14FC
:102440000A12D2270A16AC1C422AAC100730031716
:102450008D0001308F000A12031306240A1640086B
:10246000FE0018308316A0000A128A15831200207D
:102470000A168A110D300C1E3B2A99000A300C1ED8
:102480003F2A99002C1D612A2C110B3003178D0057
:1024900001308F000A12031306240A162D08FE00CD
:1024A00018308316A0000A128A15831200200A161B
:1024B0008A110D300C1E5A2A99000A300C1E5E2A11
:1024C0009900AC1DB92AAC1137088316A2000A1274
:1024D000831226260A167808FB0038088316A20005
:1024E0000A12831226260A167808FC003908831679
:1024F000A2000A12831226260A167808FD000F3061
:1025000003178D0001308F000A12031306240A16E8
:102510007B08FE0018308316A0000A128A15831269
:1025200000200A168A112D300C1E942A99007C086E
:10253000FE0018308316A0000A128A1583120020AC
:102540000A168A112D300C1EA32A99007D08FE0060
:1025500018308316A0000A128A15831200200A166A
:102560008A110D300C1EB22A99000A300C1EB62AB0
:102570009900952F0A124D250A160130FB003230C2
:10258000FC000A128A156B200A168A117808AD071A
:102590000130FB003130FC000A128A156B200A164C
:1025A0008A117808AD020230FB00FC01FE014008F0
:1025B000FD0042088316A100831241088316A00083
:1025C0000A1283122D270A160230FB000130FC008C
:1025D000FE012D08FD007B088316B4007C08B500C1
:1025E0000A12831230230A16F53003178D000030CB
:1025F0008F000A1203136C230A1607307B07831619
:10260000A0007E08A4007D08A3002008A5007C0887
:10261000A6000130A700A8010A128312E6260A16B6
:10262000F93003178D0000308F000A1203136C235A
:102630000A160130FB003330FC000A128A156B20A9
:102640000A168A11F8080319262BBA01952F0830AB
:10265000FB000A128F210A1601308316B400B5015F
:102660000A12831230230A16133003178D0001302B
:102670008F000A1203136C230A163308043C031C50
:10268000592DB5080319492B0A128A1586200A16F6
:102690008A110230FB003330FC000A128A156B20CD
:1026A0000A168A11F80803197C2B0130B400340B88
:1026B000762BB50AB51B602B3508033C031C632B36
:1026C0000130B400762BB51B692B3508063C031C82
:1026D0006C2B0230B400762B3508073C031D732B9E
:1026E0000330B400762BB501B401BA01B6010A1269
:1026F0008A1560210A168A110130FB003130FC0076
:102700000A128A156B200A168A11F8080319692C17
:10271000B601B51B8F2B3508033C031CE92B35088C
:10272000013A03199A2B033A0319B32B013A0319FF
:10273000CD2BE72B6E08593C031DA02BEE01AA2BD5
:102740006E08FB00FC010A128A1587210A168A11FD
:102750007808EE00FB016E08FC000A128A15C221FF
:102760000A168A11E82B6F08593C031DB92BEF019B
:10277000C32B6F08FB00FC010A128A1587210A1679
:102780008A117808EF000130FB006F08FC000A1284
:102790008A15C2210A168A11E82B7008233C031DF2
:1027A000D32BF001DD2B7008FB00FC010A128A1507
:1027B00087210A168A117808F0000230FB007008A1
:1027C000FC000A128A15C2210A168A11E82BE82B8E
:1027D000612CB51BEF2B3508063C031C4C2C35082F
:1027E000043A0319FA2B013A0319142C033A03197A
:1027F0002F2C4A2C7408993C031D002CF4010A2C40
:102800007408FB00FC010A128A1587210A168A1136
:102810007808F4000630FB007408FC000A128A15E0
:10282000C2210A168A114B2C7308123C031D1B2C63
:102830000130F300252C7308FB00FC010A128A15F5
:1028400087210A168A117808F3000530FB00730807
:10285000FC000A128A15C2210A168A114B2C720832
:10286000313C031D362C0130F200402C7208FB0075
:10287000FC010A128A1587210A168A117808F200CB
:102880000430FB007208FC000A128A15C2210A16E5
:102890008A114B2C4B2C612C3508073C031D612CF5
:1028A0007108083C031D572C0230F100582CF10A26
:1028B0000330FB007108FC000A128A15C2210A16B7
:1028C0008A11AC162C17AC170A128A1560210A1649
:1028D0008A110130FB003230FC000A128A156B208D
:1028E0000A168A11F8080319582DB601B51B7C2C5D
:1028F0003508033C031CD92C3508013A0319872CF1
:10290000033A0319A12C013A0319BC2CD72CEE0869
:10291000031D8D2C5930EE00982C6E08FB00013001
:10292000FC000A128A1587210A168A117808EE001F
:10293000FB016E08FC000A128A15C2210A168A11D0
:10294000D82CEF08031DA72C5930EF00B22C6F08CC
:10295000FB000130FC000A128A1587210A168A1131
:102960007808EF000130FB006F08FC000A128A159E
:10297000C2210A168A11D82CF008031DC22C23305C
:10298000F000CD2C7008FB000130FC000A128A1503
:1029900087210A168A117808F0000230FB007008BF
:1029A000FC000A128A15C2210A168A11D82CD82CCA
:1029B000502DB51BDF2C3508063C031C3B2D35087C
:1029C000043A0319EA2C013A0319052D033A0319B5
:1029D0001F2D392DF408031DF02C9930F400FB2C29
:1029E0007408FB000130FC000A128A1587210A16C0
:1029F0008A117808F4000630FB007408FC000A1203
:102A00008A15C2210A168A113A2D730B0A2D0C3031
:102A1000F300152D7308FB000130FC000A128A1523
:102A200087210A168A117808F3000530FB00730825
:102A3000FC000A128A15C2210A168A113A2D720B5D
:102A4000242D1530F2002F2D7208FB000130FC0000
:102A50000A128A1587210A168A117808F2000430B2
:102A6000FB007208FC000A128A15C2210A168A119C
:102A70003A2D3A2D502D3508073C031D502D710875
:102A8000023C031D462D0830F100472DF1030330B1
:102A9000FB007108FC000A128A15C2210A168A116D
:102AA000AC162C17AC170A128A1560210A168A1167
:102AB000712D3308093C0318712DB301B61B642D29
:102AC0003608133C031C662DB60A6B2DB501B40104
:102AD000AC162C17AC176E0832020319712D6E0854
:102AE000B2000A128A1560210A168A118316B401EF
:102AF0000130B5000A12831230230A16B408031DF0
:102B00008B2DFB3003178D0000308F000A1203134A
:102B10006C230A16B22D340B972DFD3003178D0050
:102B200000308F000A1203136C230A16B22D3408EA
:102B3000023C031DA52DFF3003178D0000308F00D0
:102B40000A1203136C230A16B22D3408033C031D2A
:102B5000B22D013003178D0001308F000A120313CC
:102B60006C230A160D308316B4000130B5000A122A
:102B7000831230230A1630303507FB008316B70066
:102B80000A1283124F230A16B5080319EC2D3608D2
:102B9000FB000A30FC000A128A15E0210A168A118D
:102BA00030307807FB008316B7000A1283124F23D8
:102BB0000A163608FB000A30FC000A128A15E021CA
:102BC0000A168A1130307707FB008316B7000A1205
:102BD00083124F230A16F52D033003178D000130A1
:102BE0008F000A1203136C230A16952F01308316E7
:102BF000B400B5010A12831230230A161B300317E2
:102C00008D0001308F000A1203136C230A1633085B
:102C1000043C031CDB2EB5080319132E0A128A1577
:102C200086200A168A110230FB003330FC000A129B
:102C30008A156B200A168A11F80803192F2EB51B66
:102C4000252E3508023C031C272EB50A292EB50176
:102C5000BA01B6010A128A1505220A168A11013034
:102C6000FB003130FC000A128A156B200A168A110B
:102C7000F8080319832EB6013508013A0319472EC7
:102C8000033A0319582E013A0319692E7A2E39088E
:102C9000593C031D4D2EB901572E3908FB00FC018C
:102CA0000A128A1587210A168A117808B9007B2E24
:102CB0003808593C031D5E2EB801682E3808FB0009
:102CC000FC010A128A1587210A168A117808B800B1
:102CD0007B2E3708233C031D6F2EB701792E370852
:102CE000FB00FC010A128A1587210A168A1178084E
:102CF000B7007B2E7B2EAC162C17AC170A128A1548
:102D000005220A168A110130FB003230FC000A123B
:102D10008A156B200A168A11F8080319DA2EB601F3
:102D20003508013A03199B2E033A0319AD2E013AD7
:102D30000319BF2ED12EB908031DA12E5930B90099
:102D4000AC2E3908FB000130FC000A128A158721DD
:102D50000A168A117808B900D22EB808031DB32EBE
:102D60005930B800BE2E3808FB000130FC000A12B2
:102D70008A1587210A168A117808B800D22EB7085A
:102D8000031DC52E2330B700D02E3708FB000130BD
:102D9000FC000A128A1587210A168A117808B700E2
:102DA000D22ED22EAC162C17AC170A128A15052279
:102DB0000A168A11EC2E3308093C0318EC2EB301D5
:102DC000B61BE62E3608133C031CE82EB60AEC2E82
:102DD000B501AC162C17AC170A128A1505220A1673
:102DE0008A110D308316B4000130B5000A12831227
:102DF00030230A1630303507FB008316B7000A125D
:102E000083124F230A16B50803192B2F3608FB002F
:102E10000A30FC000A128A15E0210A168A113030A5
:102E20007807FB008316B7000A1283124F230A1695
:102E30003608FB000A30FC000A128A15E0210A1647
:102E40008A1130307707FB008316B7000A1283120D
:102E50004F230A16342F053003178D0001308F00E1
:102E60000A1203136C230A16952F01308316B4003F
:102E7000B5010A12831230230A16223003178D007F
:102E800001308F000A1203136C230A1601308316D7
:102E9000B400B5000A12831230230A1630305907E5
:102EA000FB008316B7000A1283124F230A16013063
:102EB000FB003330FC000A128A156B200A168A11B7
:102EC000F8080319642FBA01952F02308316B40055
:102ED000B5010A12831230230A16293003178D0018
:102EE00001308F000A1203136C230A168316B401F3
:102EF0000130B5000A12831230230A162F3003174F
:102F00008D0001308F000A1203136C230A16013062
:102F1000FB003330FC000A128A156B200A168A1156
:0E2F2000F8080319942FBA01952F7728630043
:02400E00723FFF
:00000001FF
;PIC16F877A
;CRC=7717  CREATED="18-Jun-24 09:23"
