:1000000010308A0000280000FF00030E8301A100C9
:100010000A08A0008A010408A2007708A300780853
:10002000A4007908A5007A08A60003170D08031399
:10003000A70003170F080313A80003170C080313E6
:10004000A90003170E080313AA00831383128C3030
:100050008400801E2D288C1A54288C308400001CAB
:1000600033280C185728220884002308F700240896
:10007000F8002508F9002608FA00270803178D0064
:100080000313280803178F000313290803178C0094
:1000900003132A0803178E00031320088A00210E79
:1000A0008300FF0E7F0E09008A110A125A288A1156
:1000B0000A128F288C1E86288C1E5C281A0883162C
:1000C000C90049080D3C0319692849080A3C031D69
:1000D0007528443083125407840083138001540828
:1000E000D6000130D50086288316831254080E3CB2
:1000F000031C84285408D40A443E840083138316C6
:1001000049088000872883120F30D4008316831299
:100110008C128A110A123328F339BA376B008E0118
:10012000E7308F0096308E0000000130AC06AE0A3A
:100130000319AF0AAF08031DA1282E08093C0318B4
:10014000AE28B10AAF01AE01AC1EAE283A08633C3E
:10015000031CAC28BA0AAE28BA01AC120C108A11E2
:100160000A123328C437A0306E1031102D10C82564
:10017000C924000053284B2A2D2A5024C3260000EE
:100180002D002D002E002E004E223A100001A03727
:1001900043004E22AD23481D2000A03743002027F6
:1001A0002000472847004E2A4E00202A2000DF2F3B
:1001B0000000DF2F0000E3306910E4307410E437F2
:1001C000EE3320346F00F417671063346F10E330A0
:1001D000A0306E006334E5316B10E3376D10E53904
:1001E00070004937E637F236613AE9376E00D632A9
:1001F000F239E9376E1D202B311730173000C83225
:100200006C366F106639EF362028C921311B461C29
:10021000B71BC1100000B53090008E01E7308F0091
:1002200096308E000000C0308B0483160C148C16A0
:10023000FF308500DF30860000308800880183129F
:1002400088018316091089100911091089100911F4
:10025000831289019830831687008312AB00003027
:10026000AB00831687019830831287002C10AC10E6
:100270001930AD002C15AC152C160930B5003030F6
:10028000B600B7008A110A165E2894138C118316E3
:100290004708831293000230941B552983161419C2
:1002A0004F290030111B01308312F800080014138D
:1002B0008316911591195A2977189112771C911666
:1002C0001116111A612983121308F8000800831609
:1002D000111411186929D030C700831245218316E3
:1002E000C701831245218316911491187529D130C5
:1002F000C70083124521F5017408750203188B2984
:100300006B307507840083130130F700572178089C
:100310008000F50A7C29F70157217808F50083163B
:10032000111511199129831208000930F400672171
:1003300073086A020319CE290130F40083161114E0
:100340001118A029D030C700831245218316C70198
:1003500083124521F5017508083C031CC929F408DE
:100360000319BD2962307507840083130008F60065
:100370008316C70083124521C7296B307507840097
:1003800083130008F6008316C70083124521F50A7F
:10039000AB29831611151119CB2983128A110A165C
:1003A000612875308400831300080319E42906309E
:1003B000F800F701F70BDA29F80BD9297B30F700A1
:1003C000F70BE029800BD729080083164108C400E9
:1003D0004408831261048316C5004508C6009114C1
:1003E0009118F0294E30C700831245218316460824
:1003F000C70083124521831611151119FD294108E3
:10040000C20042080438C3004308C40044088312F1
:1004100061048316C5004508C600911491180E2A80
:100420004E30C7008312452183164608C700831249
:1004300045218316111511191B2A1E2A1F2A000097
:100440004208FB39C3004308C40044088312610416
:100450008316C5004508C600911491182D2A4E3008
:10046000C7008312452183164608C7008312452121
:100470008316111511193A2A5330F700F70B3E2A4B
:100480008312080083163B08BC00BD013C08F0390C
:10049000BE003C0EF700F030F7057708F039BF00DA
:1004A0003E083D04C000C1008312E52183163F08C9
:1004B0003D04C000C1008312E5210800013083160D
:1004C000BB00831242221430F500D1210800103005
:1004D000DF000230E000E1018316111411186E2ACA
:1004E0004E30C70083124521DB01DB156008DE00BA
:1004F0002830F500D12161088316C4004408831216
:1005000061048316C5004508C60091149118862A17
:100510004E30C7008312452183164608C700831258
:100520004521831611151119932A6430F5008312A1
:10053000D12130308316C1008312E5210530F5004A
:10054000D12130308316C1008312E5210530F5003A
:10055000D12130308316C1008312E5210530F5002A
:10056000D12120308316C1008312E5215B08203899
:10057000F4008316BB00831242220430DC005C15B9
:100580005C080838F4008316BB00831242225E2206
:100590000230DD005D080438F4008316BB008312CE
:1005A000422202308316BB00831242221430F5002F
:1005B000D1218A110A16642803308316A102031C74
:1005C000EB2AA1308400831300080319EB2AE92ADF
:1005D000E92A800BE82A83120800F4017408313CF0
:1005E000031C122B8714AB102B08831687000430D2
:1005F000F500C730A1008312DC22F50B002B022B83
:100600008316F92A8710AB102B0883168700133046
:10061000F5008312D121C8308316A1008312DC2299
:10062000F40AEE2A08008316B6014030B7001430F1
:10063000B8005430B900350883125E020318252B28
:1006400001305E028316B5008312B630831635077B
:1006500084008313000834078038BA00BB0083127B
:100660004222080083163708BC000130BD003C0858
:10067000F039BE003C0EF700F030F7057708F0398E
:10068000BF003E083D04C000C1008312E52183166F
:100690003F083D04C000C1008312E52108000B089B
:1006A0008316B40083128B13831603178C170C1454
:1006B000000000000313B41F602B83128B178316F6
:1006C000831203170C087F390319C12B83160313F8
:1006D000B400831203170D0883160313B5008312A9
:1006E00003170F0883160313B6003408B7008312EC
:1006F000322383163508831203178D0083160313E4
:100700003608831203178F0003130B088316B700F4
:1007100083128B13831603178C170C140000000030
:100720000313B71F962B83128B178316831203179D
:100730000C0D0E0D7F390319C12B83160313B40062
:10074000831203170D0883160313B50083120317D2
:100750000F0883160313B6003408B7008312322340
:1007600083163508831203178D008316031336088A
:10077000831203178F008D0A03198F0A03134F2B5F
:1007800003170313080001308316B400B501831268
:100790001323B23003178D0000308F0003134F2353
:1007A00003308316B4000130B50083121323BA302E
:1007B00003178D0000308F0003134F230830F4001F
:1007C000FA30F500D121F40BE02B5E228A110A16D3
:1007D0006A280B08FB008B13831603178C170C1465
:1007E00000000000FB1FF92B831203138B178316E5
:1007F000031783120C087F390319392CFB000D08ED
:10080000FC000F08FD007B0803130C1E052C99004B
:100810007C0803178D007D088F0003130B08FE0072
:100820008B13831603178C170C1400000000FE1F97
:100830001E2C831203138B178316031783120C0DC0
:100840000E0D7F390319392CFB000D08FC000F0831
:10085000FD007B0803130C1E2B2C99007C0803174A
:100860008D007D088F008D0A03198F0A0313E92B71
:1008700003170313080076080739F700760CF80011
:10088000F80CF80C1F30F80578087C0784008313F7
:100890007D188317F801F80AF70A4F2CF80DF70BAB
:1008A0004E2CFB080319572C780880045A2CF809A1
:1008B00078088005080076080739F700760CF800FC
:1008C000F80CF80C1F30F80578087B0784008313B8
:1008D0007C1883170008F800F70A6F2CF80CF70B48
:1008E0006E2C0130F80508008316051083120510E0
:1008F000831605100230A000F930A1008312DC221B
:100900008316A00B7C2C0514A630F700F70B862C61
:1009100000000514831205189B2C02308316A000DA
:10092000C730A1008312DC228316A00B902C01306B
:10093000F8009E2C83120030F80083168312080002
:100940008316A1012108073C031CD52C2008F700C1
:100950002108F8000319B02C0310F70CF80BAC2C8D
:10096000003077180130A2002208A300051083127E
:100970000510831605100330F700F70BBD2CA308F4
:10098000031DC62C83120510C82C83168312051470
:10099000831605108530F700F70BCC2C05140330B7
:1009A000F700F70BD12CA10AA22C831208008316A2
:1009B000A401A5012508073C031C072D051083127F
:1009C0000510831605100330F700F70BE52C05140E
:1009D0000830F700F70BEA2C051426108312051CCB
:1009E000F42C831626148312A630F700F70BF62C8E
:1009F00000000030831626180130F800F808031DA7
:100A0000032D0310042D0314A40CA50ADA2C2408CA
:100A1000F80083120800F801F901F701FA018316C2
:100A20002F08031D162D2E080319302D1030B0008D
:100A30000310AC0DAD0DF70DFA0D2F087A02031D52
:100A4000232D2E087702031C2C2D2E08F702031CE1
:100A5000FA032F08FA020314F80DF90DB00B182D44
:100A600083120800F5013B30F4007424F808031DDC
:100A70003C2D0030F8009F2DCC308316A00083124F
:100A8000A02444308316A0008312A024D724F808A1
:100A90000319462D7424F808031D512D0030F80069
:100AA0009F2DCC308316A0008312A024BE30831665
:100AB000A0008312A0247508FA0074088316A00011
:100AC0007508A1008312D72483162008840083139D
:100AD00021188317840A8001840378088000750830
:100AE000FA007408A0007508A10020088400831390
:100AF00021188317840A0008A30084030008A200B9
:100B00008312D7248316A5017808A400FA000030C8
:100B10002204F7007A082304FA007708A2007A0872
:100B2000A30020088400831321188317840A230854
:100B300080008403220880000130F8008312F80846
:100B40000319E22DAC143C0CFA003B0CF900FA0C32
:100B5000F90CFA0CF90CFA0CF90C7908BD003B08F9
:100B60000F39C000C1014108F5004008F40002300F
:100B7000FC007130FB001030F600F701FA01F50CB3
:100B8000F40C031CC92D7B08F7070318FA0A7C082C
:100B9000FA07FA0CF70CF90CF80CF60BBF2D7908D4
:100BA000F5007808F40079088316AD007808AC00E9
:100BB000AF010A30AE0083120B257908BF00780818
:100BC000BE00E32DAC100800F701F80183162508DC
:100BD00003102618F707F70CF80CA618F707F70C00
:100BE000F80C2619F707F70CF80CA619F707F70CFD
:100BF000F80C261AF707F70CF80CA61AF707F70CEB
:100C0000F80C261BF707F70CF80CA61BF707F70CD8
:100C1000F80C831208008316220EF7000F30F70538
:100C20007708A400A5000A30A6008312E4257808FE
:100C30008316A30022080F392307F8008312080047
:100C400083163508F80134020318292E3408F700FA
:100C5000352EF7010830B600B40DF70D35087702D0
:100C60000318F700F80DB60B2C2E8312080083161C
:100C70002B0B442E2808B4000A30B500831220261E
:100C800030307807462E8316203083128316AE004C
:100C90002B0B542E2808B4000A30B50083122026EE
:100CA00030307707562E8316203083128316AF001C
:100CB0002C0B642E2908B4000A30B50083122026BC
:100CC00030307807662E8316203083128316B000EA
:100CD0002C0B742E2908B4000A30B500831220268C
:100CE00030307707762E8316203083128316B100BA
:100CF0002D0B842E2A08B4000A30B500831220265A
:100D000030307807862E8316203083128316B20087
:100D10002D0B942E2A08B4000A30B5008312202629
:100D200030307707962E8316203083128316B30057
:100D30002608B4002708B5008312132383162E0853
:100D4000B7008312322383162F08B7008312322391
:100D5000C03003178D0000308F0003134F2383161C
:100D60003008B7008312322383163108B70083128C
:100D70003223C13003178D0000308F0003134F233F
:100D800083163208B7008312322383163308B70064
:100D900083123223080083162308B4002408B50008
:100DA0008312132383162208AD002108AC00AF0183
:100DB0000A30AE0083120B2579088316AA00780842
:100DC000A90030302907A7002208AD002108AC0097
:100DD000AF010A30AE0083120B2577088316A900F5
:100DE0007A08AA0030302907A800250BFD2E270815
:100DF000303C031DFD2E2030A700260B082FC230EB
:100E0000831203178D0000308F0003134F238316C6
:100E10002708B7008312322383162808B7008312ED
:100E20003223080074088316B4007508B5008312D5
:100E30001323C43003178D0000308F0003134F239A
:100E400004307407F6007C088316A2007B08A1001A
:100E50007608A3007508A4000130A500A60183123E
:100E6000CB2606307407F6007E088316A2007D08A4
:100E7000A1007608A3007508A400A5010130A60012
:100E80002308B4002408B500831213238316220814
:100E9000AD002108AC00AF016430AE0083120B2519
:100EA00079088316AB007808AA0030302A07A7001B
:100EB0002208AD002108AC00AF010A30AE00831259
:100EC0000B2579088316AB007808AA002B08AD0023
:100ED0002A08AC00AF010A30AE0083120B25770858
:100EE0008316AA007A08AB0030302A07A80022082F
:100EF000AD002108AC00AF010A30AE0083120B2513
:100F000077088316AA007A08AB0030302A07A900B8
:100F1000250B962F2708303C031D962F2030A70065
:100F20002808303C031D962F2030A800260BA12F47
:100F3000C330831203178D0000308F0003134F233B
:100F400083162708B7008312322383162808B700B8
:100F50008312322383162908B70083123223C73045
:100F600003178D0000308F0003134F2308008C30CF
:100F700003178D0000308F000313E9230800750864
:100F80008316B4000A30B50083122026780EF600CE
:100F9000F030F60575088316B4000A30B5008312E8
:100FA000202677087607F80008007508F60001305B
:100FB000FB00FD018030FC003B247508F600FC01BD
:100FC000FB015B247818F12F2C18DA0A74085A02F6
:100FD000031CEE2FDA010130F800F32F0030F80087
:080FE000F32F0030F8000800B7
:10100000B30803192D28330B06280A283308043C9B
:10101000031D0F280430AC06AC152C162C28330801
:10102000023C031917283308053C031D1C282C1506
:101030000830AC062C162C283308033C031924284E
:101040003308063C031D29282C15AC151030AC06BE
:101050002C282C15AC152C1630282C15AC152C165C
:1010600008006D088316A2008A1183120B268A15C8
:1010700078088316A00083126C088316A2008A11D8
:1010800083120B268A1578088316A10083126B0839
:101090008316A2008A1183120B268A1578088316FC
:1010A000A200003083122C1A01308316A3000030F6
:1010B0008312AC1901308316A400003083122C195E
:1010C00001308316A5000430A6000130A7002008D7
:1010D000A8002108A9002208AA002308AB002408C0
:1010E000AC002508AD008A11831237268A15080046
:1010F0006F088316A2008A1183120B268A157808BE
:101100008316A0007008A2008A1183120B268A158C
:1011100078088316A1007108A2008A1183120B2699
:101120008A1578088316A200003083122C1A013029
:101130008316A30000308312AC1901308316A4007B
:10114000003083122C1901308316A5000430A6004C
:101150000130A7002008A8002108A9002208AA0041
:101160002308AB002408AC002508AD008A118312C7
:1011700037268A1508006E088316A2008A1183128A
:101180000B268A157808F4000030AC190130F50000
:1011900004308316A6000130A700A8017808A90032
:1011A000AA01AB017508AC00AD018A118312372684
:1011B0008A150800B308031DEC28B2080319E228B9
:1011C000320BE32831203208023C03197820320820
:1011D000033C0319BB200029B31BF2283308033C4E
:1011E000031CF42831200029B31BFA283308063CDD
:1011F000031CFC28782000293308073C0319BB2076
:101200000800740EFC000F30FC0574080F39FB0059
:101210007C088316A5000A30A6008A118312E425F3
:101220008A157B087807F600F508031D1929F60AC8
:101230001A29F60376088316B4000A30B5008A111D
:10124000831220268A157808FC0076088316B400DD
:101250000A30B5008A11831220268A157708FB0010
:101260007C0EF700F030F70577087B04FD007D0861
:10127000F80008008316111411183C29D030C7005B
:101280008A11831245218A1574088316C7008A11B2
:10129000831245218A1575088316C7008A118312A7
:1012A00045218A1583161115111954298312080036
:1012B000740875068039FC00F41F6029F409F40AEB
:1012C000F51F6429F509F50A7508F8017402031879
:1012D0006C297408F7007829F7010830FB00F40D39
:1012E000F70D750877020318F700F80DFB0B6F294F
:1012F000FC1F7C29F809F80A080035088316A200AB
:101300008A1183120B268A1578088316A00083128F
:1013100036088316A2008A1183120B268A157808D4
:101320008316A100831237088316A2008A11831244
:101330000B268A1578088316A200003083122C1A17
:1013400001308316A30000308312AC1901308316DC
:10135000A400003083122C1901308316A50004303C
:10136000A6000130A7002008A8002108A900220833
:10137000AA002308AB002408AC002508AD008A11A0
:08138000831237268A150800CC
:1020000003081F398300FF30AB00AB152B08831684
:10201000870083122B162B0883168700313093001C
:10202000283083129400831694171413813099007A
:10203000A63098009030831298002C10AC10193004
:10204000AD00B201B301B401B801B901BA01D401C4
:10205000D501D601D801D701D901DA0183161F14A1
:102060009F141F159F1107309C0083138312C20118
:10207000C301C4013130E2001530E300E400043054
:10208000E5002530E6001030E7002330E80090300E
:10209000E9009130EA003030EB00EC001030ED0048
:1020A0000830EE002030EF000230F0002030F10068
:1020B0009030F2009130F3000A120B290A160A122E
:1020C00095290A160A12672A0A160A12ED220A161A
:1020D0000A12C32B0A16FF3003178D0000308F0041
:1020E0000A120313E9230A16F4013030F5007508CB
:1020F000F6000130FB00FD018030FC000A123B2499
:102100000A167508F600FC01FB010A125B240A1688
:102110007818C4282C1C8D28D90A5908003C0318AB
:10212000C1287508F6000130FB00FD018030FC007D
:102130000A123B240A167508F600FC01FB010A127C
:102140005B240A167818BE28F408031DBA287508FF
:10215000F6000130FB00FD018030FC000A123B2438
:102160000A167508F600FC01FB010A125B240A1628
:10217000781CA728D9010130F800C6280030F800E3
:10218000C6280030F800C6280030F800F808031907
:10219000CA28B80A3808053C0318CF28B8013908FE
:1021A00038020319D8283808B9000A125E220A1624
:1021B00038080319E828013A0319502A033A031989
:1021C000B32A013A03197C2D073A0319B52EEB2ED9
:1021D0000830F4000A1267210A160A1232250A167C
:1021E0006D088316A2000A1283120B260A167808BD
:1021F000F4006C088316A2000A1283120B260A163A
:102200007808F5006B088316A2000A1283120B26C9
:102210000A167808F60004308316A600A701740891
:10222000A8007508A9007808AA000130AB00AC002E
:10223000AD000A12831237260A160230F40001306C
:10224000F500FC013D08FB003F08FE003E08FD00D4
:102250000A1212270A163D08F4002D08F50074082A
:10226000750203183C290817831608138312881374
:1022700083168813432983120813831608138312C5
:1022800088178316881383126D088316A2000A121A
:1022900083120B260A167808F40035088316A2006C
:1022A0000A1283120B260A1678087402031D81296C
:1022B0006C088316A2000A1283120B260A167808ED
:1022C000F40036088316A2000A1283120B260A169F
:1022D00078087402031D81296B088316A2000A1274
:1022E00083120B260A167808F40037088316A2001A
:1022F0000A1283120B260A1678087402031D81291C
:10230000AC16AC1EB729F4017408313C031CB62985
:102310008714AB102B08831687000130F5000A12D2
:102320008312D1210A160230F500F9308316A1007C
:102330000A128312DC220A16F50B95298710AB10BE
:102340002B08831687001230F5000A128312D12160
:102350000A160230F500F9308316A1000A12831222
:10236000DC220A16F50BAB29F40A8429BA290A12D1
:10237000ED220A16D50803194F2AD501D401D6013A
:102380004408733C031DDF294508743C031DDF2905
:1023900046083A3C031DDF2930304702F50083161A
:1023A000A5000A30A6000A128312E4250A1630306E
:1023B00048027807AD000A12B7270A164F2A4408C8
:1023C000733C031D3A2A4508613C031D3A2A46081E
:1023D0003A3C031D3A2A4708673C031D392A48083E
:1023E000703C031D392A4908673C031D392A3030E7
:1023F0004B02F5008316A5000A30A6000A128312CC
:10240000E4250A167808F400F5000A12BF270A1618
:1024100030304C027807B50030304E02F50083169C
:10242000A5000A30A6000A128312E4250A167808CD
:10243000F400F5000A12BF270A1630304F02780761
:10244000B60030305102F5008316A5000A30A60010
:102450000A128312E4250A167808F400F5000A121D
:10246000BF270A16303052027807B7000A12B72782
:102470000A164F2A4408633C031D4F2A4508733C43
:10248000031D4F2A46083A3C031D4F2A30304702AD
:10249000F800AC127818AC160A12B7270A16192FD2
:1024A0000A1232250A160130F4003230F5000A1201
:1024B000D5270A167808AD070130F4003130F50051
:1024C0000A12D5270A167808AD020230F400F50189
:1024D000FC013D08FB003F08FE003E08FD000A121B
:1024E00012270A160230F4000130F500FC012D0815
:1024F000FB0074088316B4007508B5000A12831235
:1025000013230A16C93003178D0000308F000A12FA
:1025100003134F230A1607307407F6007C0883164E
:10252000A2007B08A1007608A3007508A400013072
:10253000A500A6010A128312CB260A16CD30031776
:102540008D0000308F000A1203134F230A1601304A
:10255000F4003330F5000A12D5270A16F8080319DB
:10256000B22AB801192F0830F4000A1267210A169E
:1025700001308316B400B5010A12831213230A1620
:10258000DB3003178D0000308F000A1203134F2336
:102590000A163108043C031CDF2CB3080319D52AA2
:1025A0000A128A1500200A168A110230F40033300C
:1025B000F5000A12D5270A16F8080319062B013070
:1025C000B200320B002BB30AB31BEA2A3308033CD8
:1025D000031CED2A0130B200002BB31BF32A330891
:1025E000063C031CF62A0230B200002B3308073CDD
:1025F000031DFD2A0330B200002BB301B201B80164
:10260000B4010A128A15DA200A168A110130F40080
:102610003130F5000A12D5270A16F8080319F12BF4
:10262000B401B31B172B3308033C031C712B330875
:10263000013A0319222B033A03193B2B013A0319E0
:10264000552B6F2B6B08593C031D282BEB01322BAC
:102650006B08F400F5010A128A1501210A168A1185
:102660007808EB00F4016B08F5000A128A153A218C
:102670000A168A11702B6C08593C031D412BEC0182
:102680004B2B6C08F400F5010A128A1501210A1679
:102690008A117808EC000130F4006C08F5000A1289
:1026A0008A153A210A168A11702B6D08233C031DE6
:1026B0005B2BED01652B6D08F400F5010A128A15FC
:1026C00001210A168A117808ED000230F4006D0825
:1026D000F5000A128A153A210A168A11702B702BFE
:1026E000E92BB31B772B3308063C031CD42B330890
:1026F000043A0319822B013A03199C2B033A03195C
:10270000B72BD22B7108993C031D882BF101922B1A
:102710007108F400F5010A128A1501210A168A11BE
:102720007808F1000630F4007108F5000A128A15E5
:102730003A210A168A11D32B7008123C031DA32BD1
:102740000130F000AD2B7008F400F5010A128A1573
:1027500001210A168A117808F0000530F40070088B
:10276000F5000A128A153A210A168A11D32B6F082E
:10277000313C031DBE2B0130EF00C82B6F08F40065
:10278000F5010A128A1501210A168A117808EF004C
:102790000430F4006F08F5000A128A153A210A166F
:1027A0008A11D32BD32BE92B3308073C031DE92BCC
:1027B0006E08083C031DDF2B0230EE00E02BEE0A12
:1027C0000330F4006E08F5000A128A153A210A1641
:1027D0008A112C15AC152C160A128A15DA200A1645
:1027E0008A110130F4003230F5000A12D5270A169A
:1027F000F8080319DE2CB401B31B022C3308033C88
:10280000031C5F2C3308013A03190D2C033A0319FA
:10281000272C013A0319422C5D2CEB08031D132CC5
:102820005930EB001E2C6B08F4000130F5000A1241
:102830008A1501210A168A117808EB00F4016B0849
:10284000F5000A128A153A210A168A115E2CEC0844
:10285000031D2D2C5930EC00382C6C08F40001308D
:10286000F5000A128A1501210A168A117808EC006F
:102870000130F4006C08F5000A128A153A210A1694
:102880008A115E2CED08031D482C2330ED00532CDB
:102890006D08F4000130F5000A128A1501210A16AC
:1028A0008A117808ED000230F4006D08F5000A1274
:1028B0008A153A210A168A115E2C5E2CD62CB31B7F
:1028C000652C3308063C031CC12C3308013A03195C
:1028D000702C033A03198B2C013A0319A52CBF2C39
:1028E000F108031D762C9930F100812C7108F40059
:1028F0000130F5000A128A1501210A168A1178089A
:10290000F1000630F4007108F5000A128A153A2128
:102910000A168A11C02C700B902C0C30F0009B2CE6
:102920007008F4000130F5000A128A1501210A1618
:102930008A117808F0000530F4007008F5000A12DA
:102940008A153A210A168A11C02C6F0BAA2C153051
:10295000EF00B52C6F08F4000130F5000A128A155B
:1029600001210A168A117808EF000430F4006F087C
:10297000F5000A128A153A210A168A11C02CC02CB9
:10298000D62C3308073C031DD62C6E08023C031DD1
:10299000CC2C0830EE00CD2CEE030330F4006E0892
:1029A000F5000A128A153A210A168A112C15AC155F
:1029B0002C160A128A15DA200A168A11F72C310809
:1029C000093C0318F72CB101B41BEA2C3408133C62
:1029D000031CEC2CB40AF12CB301B2012C15AC157C
:1029E0002C166B0830020319F72C6B08B0000A1282
:1029F0008A15DA200A168A118316B4010130B5004F
:102A00000A12831213230A16B208031D112DCF30A8
:102A100003178D0000308F000A1203134F230A168C
:102A2000382D320B1D2DD13003178D0000308F0053
:102A30000A1203134F230A16382D3208023C031DD5
:102A40002B2DD33003178D0000308F000A12031393
:102A50004F230A16382D3208033C031D382DD5307C
:102A600003178D0000308F000A1203134F230A163C
:102A70000D308316B4000130B5000A1283121323FF
:102A80000A1630303307F4008316B7000A12831297
:102A900032230A16B3080319722D3408F4000A30E1
:102AA000F5000A128A1558210A168A113030780763
:102AB000F4008316B7000A12831232230A16340870
:102AC000F4000A30F5000A128A1558210A168A11F4
:102AD00030307707F4008316B7000A1283123223CE
:102AE0000A167B2DD73003178D0000308F000A1295
:102AF00003134F230A16192F01308316B400B501B2
:102B00000A12831213230A16E33003178D000030D4
:102B10008F000A1203134F230A163108043C031CCA
:102B20005B2EB3080319992D0A128A1500200A1684
:102B30008A110230F4003330F5000A12D5270A1644
:102B4000F8080319B32DB31BA92D3308023C031C4D
:102B5000AB2DB30AAD2DB301B801B4010A128A1529
:102B60007D210A168A110130F4003130F5000A1275
:102B7000D5270A16F8080319052EB4013308013ABF
:102B80000319C92D033A0319DA2D013A0319EB2D64
:102B9000FC2D3708593C031DCF2DB701D92D37081F
:102BA000F400F5010A128A1501210A168A11780823
:102BB000B700FD2D3608593C031DE02DB601EA2D66
:102BC0003608F400F5010A128A1501210A168A1145
:102BD0007808B600FD2D3508233C031DF12DB50105
:102BE000FB2D3508F400F5010A128A1501210A1699
:102BF0008A117808B500FD2DFD2D2C15AC152C166D
:102C00000A128A157D210A168A110130F400323029
:102C1000F5000A12D5270A16F80803195A2EB4012E
:102C20003308013A03191B2E033A03192D2E013ADA
:102C300003193F2E512EB708031D212E5930B7001E
:102C40002C2E3708F4000130F5000A128A150121F4
:102C50000A168A117808B700522EB608031D332EC3
:102C60005930B6003E2E3608F4000130F5000A1245
:102C70008A1501210A168A117808B600522EB50865
:102C8000031D452E2330B500502E3508F4000130C9
:102C9000F5000A128A1501210A168A117808B50072
:102CA000522E522E2C15AC152C160A128A157D2187
:102CB0000A168A116C2E3108093C03186C2EB101DA
:102CC000B41B662E3408133C031C682EB40A6C2E09
:102CD000B3012C15AC152C160A128A157D210A1683
:102CE0008A110D308316B4000130B5000A12831228
:102CF00013230A1630303307F4008316B7000A1284
:102D0000831232230A16B3080319AB2E3408F400D9
:102D10000A30F5000A128A1558210A168A11303035
:102D20007807F4008316B7000A12831232230A16BA
:102D30003408F4000A30F5000A128A1558210A16E0
:102D40008A1130307707F4008316B7000A12831215
:102D500032230A16B42ED93003178D0000308F00AD
:102D60000A1203134F230A16192F01308316B400D9
:102D7000B5010A12831213230A16EA3003178D00D5
:102D800000308F000A1203134F230A1601308316F6
:102D9000B400B5000A12831213230A163030560706
:102DA000F4008316B7000A12831232230A16D508DC
:102DB0000319DF2ED501D4010A125E220A16013052
:102DC000F4003330F5000A12D5270A16F808031963
:102DD000EA2EB801192F02308316B400B5010A1289
:102DE000831213230A16F13003178D0000308F0071
:102DF0000A1203134F230A168316B4010130B500DB
:102E00000A12831213230A16F73003178D000030BD
:102E10008F000A1203134F230A160130F4003330D7
:102E2000F5000A12D5270A16F8080319182FB80159
:062E3000192F7428630055
:02400E00723FFF
:00000001FF
;PIC16F877A
;CRC=591D  CREATED="09-Jun-24 16:11"
