:1000000008308A0000280000FF00030E8301A100D1
:100010000A08A0008A010408A2007708A300780853
:10002000A4007908A5007A08A60003170D08031399
:10003000A70003170F080313A80003170C080313E6
:10004000A90003170E080313AA00831383128C3030
:100050008400001C2D280C184E2822088400230838
:10006000F7002408F8002508F9002608FA002708F8
:1000700003178D000313280803178F0003132908A3
:1000800003178C0003132A0803178E00031320089C
:100090008A00210E8300FF0E7F0E09008A110A12CA
:1000A00051288E01E7308F0096308E00000001301D
:1000B000AC06AF0A0319B00AB008031D63282F0865
:1000C000093C03187028B20AB001AF01AC1E7028B9
:1000D0003B08633C031C6E28BB0A7028BB01AC12B2
:1000E0000C108A110A122D28C437A0306E1031105E
:1000F0002D10C825C924000053284B2A2D2A50242E
:10010000C32600002D002D002E002E004E223A1096
:100110000001A03743004E22AD23481D2000A03728
:10012000430020272000472847004E2A4E00202A5F
:100130002000DF2F0000DF2F0000E3306910E430E3
:100140007410E437EE3320346F00F4176710633413
:100150006F10E330A0306E004937E637F236613A6F
:10016000E9376E00D632F239E9376E1D202B311790
:1001700030173000B53090008E01E7308F00963098
:100180008E000000C0308B0483160C14FF308500F5
:10019000DF308600003088008801831288018316D2
:1001A0000910891009110910891009118312890198
:1001B000831687008312AB00AB008316870183127E
:1001C00087012C10AC10AE011930AD002C15AC1508
:1001D0002C161630B600B7010130B8008A150A1285
:1001E000592894138C1183162D0883129300023022
:1001F000941B012983161419FB280030111B0130B0
:100200008312F8000800141383169115911906291A
:1002100077189112771C91161116111A0D29831255
:100220001308F80008008316111411181529D0308E
:10023000AD008312F1208316AD018312F1208316E5
:10024000911491182129D130AD008312F120E101E0
:100250006008610203183729503061078400831356
:100260000130F700032178088000E10A2829F7010E
:1002700003217808E1008316111511193D29831215
:1002800008000930E000132158084F0203197A29A9
:100290000130E0008316111411184C29D030AD0044
:1002A0008312F1208316AD018312F120E101610870
:1002B000083C031C7529E0080319692947306107C8
:1002C000840083130008E2008316AD008312F1203E
:1002D000732950306107840083130008E2008316FD
:1002E000AD008312F120E10A572983161115111967
:1002F000772983128A150A125C28613084008313DF
:100300000008031990290630F800F701F70B862939
:10031000F80B85297B30F700F70B8C29800B83299C
:10032000080083162708AA002A08831244048316AB
:10033000AB002B08AC00911491189C294E30AD00F5
:100340008312F12083162C08AD008312F12083164E
:1003500011151119A9292708A80028080438A9008F
:100360002908AA002A08831244048316AB002B082C
:10037000AC0091149118BA294E30AD008312F120CF
:1003800083162C08AD008312F12083161115111964
:10039000C729CA29CB2900002808FB39A900290848
:1003A000AA002A08831244048316AB002B08AC0071
:1003B00091149118D9294E30AD008312F120831683
:1003C0002C08AD008312F120831611151119E629AE
:1003D0005330F700F70BEA2983120800831621082F
:1003E000A200A3012208F039A400220EF700F03089
:1003F000F7057708F039A50024082304A600A70014
:1004000083129121831625082304A600A7008312D6
:100410009121080001308316A1008312EE211430CF
:10042000E1007D2108001030C2000230C300C40189
:100430008316111411181A2A4E30AD008312F120C0
:10044000BE01BE154308C1002830E1007D214408EB
:100450008316AA002A08831244048316AB002B08D3
:10046000AC0091149118322A4E30AD008312F12065
:1004700083162C08AD008312F12083161115111973
:100480003F2A64308312E1007D2130308316A700BB
:10049000831291210530E1007D2130308316A700C1
:1004A000831291210530E1007D2130308316A700B1
:1004B000831291210530E1007D2120308316A700B1
:1004C000831291213E082038E0008316A100831298
:1004D000EE210430BF003F153F080838E0008316C6
:1004E000A1008312EE210A220230C0004008043825
:1004F000E0008316A1008312EE2102308316A100D2
:100500008312EE211430E1007D218A150A125F2842
:100510000330E302031C962A63308400831300082F
:100520000319962A942A942A800B932A0800E00142
:100530006008313C031CB72A8714AB102B088316C4
:10054000870004308312E100C730E3008822E10B0A
:10055000A42A8710AB102B08831687001330831250
:10056000E1007D21C830E3008822E00A982A0800D3
:10057000FB014030FC001430FD005430FE007508D3
:1005800041020318C62A01304102F5007B3075078D
:1005900084008313000874078038F6008316A100D6
:1005A0008312EE2108007E088316A2000130A3000A
:1005B0002208F039A400220EF700F030F705770882
:1005C000F039A50024082304A600A7008312912176
:1005D000831625082304A600A70083129121080092
:1005E0000B08FB008B13831603178C170C140000E9
:1005F0000000FB1F002B831203138B1783160317B6
:1006000083120C087F3903193E2BFB000D08FC00F8
:100610000F08FD007B08FE000313D3227C0803179C
:100620008D007D088F0003130B08FE008B138316CB
:1006300003178C170C1400000000FE1F242B8312DC
:1006400003138B178316031783120C0D0E0D7F39BE
:1006500003193E2BFB000D08FC000F08FD007B0872
:10066000FE000313D3227C0803178D007D088F0042
:100670008D0A03198F0A0313F02A031703130800C6
:100680000130F400F501B822743003178D000030FA
:100690008F000313F0220330F4000130F500B8227C
:1006A0007C3003178D0000308F000313F0220830D8
:1006B000E000FA30E1007D21E00B592B0A228A1577
:1006C0000A12652862080739F700620CF800F80C76
:1006D000F80C1F30F8057808640784008313651848
:1006E0008317F801F80AF70A762BF80DF70B752B2C
:1006F000E30803197E2B78088004812BF809780819
:100700008005080062080739F700620CF800F80C51
:10071000F80C1F30F8057808630784008313641809
:1007200083170008F800F70A962BF80CF70B952BA7
:100730000130F80508008316051083120510831692
:10074000051002308312E200F930E3008822E20B48
:10075000A42B83160514A630F700F70BAD2B000071
:10076000051483120518BE2B0230E200C730E300E7
:100770008822E20BB62B0130F800C02B0030F800C5
:100780000800E3016308073C031CF52B6208F7002F
:100790006308F8000319D02B0310F70CF80BCC2BCF
:1007A000003077180130E4006408E5008316051076
:1007B00083120510831605100330F700F70BDE2BAC
:1007C0008312E508031DE62B0510E72B051483169D
:1007D00005108530F700F70BEB2B05140330F700FD
:1007E000F70BF02B8312E30AC22B0800E601E701A6
:1007F0006708073C031C222C831605108312051082
:10080000831605100330F700F70B042C051408308D
:10081000F700F70B092C05148312681005186814EB
:10082000A630F700F70B122C0000003068180130DA
:10083000F800F808031D1E2C03101F2C0314E60CEF
:10084000E70AF82B6608F8000800F801F901F7013B
:10085000FA017508031D2F2C74080319492C103058
:10086000F6000310F20DF30DF70DFA0D75087A027C
:10087000031D3C2C74087702031C452C7408F702F6
:10088000031CFA037508FA020314F80DF90DF60BB0
:10089000312C0800E1015930E0009B23F808031DCA
:1008A000542C0030F800A22CCC30E200C12344309C
:1008B000E200C123F623F80803195A2C9B23F808F9
:1008C000031D652C0030F800A22CCC30E200C123BF
:1008D000BE30E200C1236108FA006008E20061084E
:1008E000E300F62362088400831363188317840AE5
:1008F00080018403780880006108FA006008E20043
:100900006108E30060088400831361188317840A78
:100910000008E50084030008E400F623E701003046
:100920006404F70078086504FA0062088400831301
:1009300063188317840A7A0880008403770880008C
:100940000130F800F8080319E72CAC145A0CFA002F
:10095000590CF900FA0CF90CFA0CF90CFA0CF90C18
:100960007908DB0059080F39F700FA017708DE0033
:100970007A08DF005F08E1005E08E0000230E30073
:100980007130E2001030E400F701FA01E10CE00CF4
:10099000031CD02C6208F7070318FA0A6308FA0749
:1009A000FA0CF70CF90CF80CE40BC62C7908E100F2
:1009B0007808E0007908F3007808F200F5010A30C1
:1009C000F40025247908DD007808DC00E82CAC1060
:1009D0000800F701F801660803106718F707F70C1D
:1009E000F80CE718F707F70CF80C6719F707F70C7E
:1009F000F80CE719F707F70CF80C671AF707F70C6C
:100A0000F80CE71AF707F70CF80C671BF707F70C59
:100A1000F80CE71BF707F70CF80C0800620EF7005C
:100A20000F30F7057708E400E6000A30E700E92414
:100A30007808E30062080F397807F80008007508A5
:100A4000F80174020318272D7408F700332DF701FD
:100A50000830F600F40DF70D750877020318F7005B
:100A6000F80DF60B2A2D08006B0B3E2D6808F400DC
:100A70000A30F5001F25303078073F2D2030EE007A
:100A80006B0B4A2D6808F4000A30F5001F25303042
:100A900077074B2D2030EF006C0B562D6908F400C2
:100AA0000A30F5001F2530307807572D2030F00030
:100AB0006C0B622D6908F4000A30F5001F253030F8
:100AC0007707632D2030F1006D0B6E2D6A08F4005E
:100AD0000A30F5001F25303078076F2D2030F200E6
:100AE0006D0B7A2D6A08F4000A30F5001F253030AE
:100AF00077077B2D2030F3006608F4006708F500C7
:100B0000B8226E08FE00D3226F08FE00D322823086
:100B100003178D0000308F000313F0227008FE00D1
:100B2000D3227108FE00D322833003178D000030DA
:100B30008F000313F0227208FE00D3227308FE0018
:100B4000D32208006908F4006A08F500B822680892
:100B5000F3006708F200F5010A30F4002524303074
:100B60007807ED006808F3006708F200F5010A3025
:100B7000F400252430307707EE006B0BC52D6D088F
:100B8000303C031DC52D2030ED006C0BCE2D843084
:100B900003178D0000308F000313F0226D08FE0054
:100BA000D3226E08FE00D32208006008F40061081A
:100BB000F500B822863003178D0000308F00031334
:100BC000F02204306007E6006308E8006208E700EE
:100BD0006608E9006108EA000130EB00EC01A2259B
:100BE00006306007E6006508E8006408E70066086C
:100BF000E9006108EA00EB010130EC006908F4004B
:100C00006A08F500B8226808F3006708F200F501E9
:100C10006430F400252430307807ED006808F300D4
:100C20006708F200F5010A30F40025247908F10084
:100C30007808F0007908F3007808F200F5010A302E
:100C4000F400252430307707EE006808F3006708C9
:100C5000F200F5010A30F400252430307707EF0068
:100C60006B0B3E2E6D08303C031D3E2E2030ED00F8
:100C70006E08303C031D3E2E2030EE006C0B472EDC
:100C8000853003178D0000308F000313F0226D08AC
:100C9000FE00D3226E08FE00D3226F08FE00D3228E
:100CA000893003178D0000308F000313F0220800F5
:100CB0006108E2000130E300E5018030E4006223D6
:100CC0006108E200E401E30182237818742E2C18F5
:100CD000BD0A60083D02031C712EBD010130F80001
:100CE000762E0030F800762E0030F8000800B408A8
:100CF0000319A42E340B7D2E812E3408043C031DD1
:100D0000862E0430AC06AC152C16A32E3408023CFB
:100D100003198E2E3408053C031D932E2C15083024
:100D2000AC062C16A32E3408033C03199B2E340862
:100D3000063C031DA02E2C15AC151030AC06A32EBE
:100D40002C15AC152C16A72E2C15AC152C1608003E
:100D50005208E2000E257808E0005108E2000E2556
:100D60007808E1005008E2000E257808E200003023
:100D70002C1A0130E3000030AC190130E4000030DF
:100D80002C190130E5000430E6000130E70060086E
:100D9000E8006108E9007808EA006308EB006408ED
:100DA000EC006508ED00342508005408E2000E252B
:100DB0007808E0005508E2000E257808E1005608A2
:100DC000E2000E257808E20000302C1A0130E30022
:100DD0000030AC190130E40000302C190130E5007E
:100DE0000430E6000130E7006008E8006108E9002F
:100DF0007808EA006308EB006408EC006508ED0081
:100E0000342508005308E2000E257808E000003081
:100E1000AC190130E1000430E6000130E700E801E0
:100E20007808E900EA01EB016108EC00ED013425E6
:100E30000800B408031D2B2FB3080319212F330B0F
:100E4000222FA8263308023C0319D5263308033C79
:100E5000031902273F2FB41B312F3408033C031C16
:100E6000332FA8263F2FB41B392F3408063C031C10
:100E70003B2FD5263F2F3408073C031902270800D3
:100E8000600EE4000F30E40560080F39E3006408E9
:100E9000E6000A30E700E92463087807E200E10889
:100EA000031D542FE20A552FE2036208F4000A30B2
:100EB000F5001F257808E4006208F4000A30F50008
:100EC0001F257708E300640EF700F030F705770878
:100ED0006304E5006508F800080083161114111872
:100EE0006F2FD030AD008312F12060088316AD0063
:100EF0008312F12061088316AD008312F12083165E
:100F000011151119812F83120800600861068039BC
:100F1000E300E01F8D2FE009E00AE11F912FE109B6
:100F2000E10A6108F80160020318992F6008F700D0
:100F3000A52FF7010830E200E00DF70D61087702F8
:100F40000318F700F80DE20B9C2FE31FA92FF809F7
:100F5000F80A08003608E2000E257808E000370895
:100F6000E2000E257808E1003808E2000E25780836
:100F7000E20000302C1A0130E3000030AC190130DF
:100F8000E40000302C190130E5000430E6000130A7
:100F9000E7006008E8006108E9007808EA006308F3
:0E0FA000EB006408EC006508ED003425080045
:1010000003081F398300FF30AB00AB152B08831694
:10101000870083122B162B0883168700313093002C
:10102000283083129400831694171413813099008A
:10103000A63098009030831298002C10AC10AE01AE
:101040001930AD00B301B401B501B901BA01BB015A
:10105000BC01BD01C601C50183161F149F141F15D5
:101060009F1107309C00831331308312C700153065
:10107000C800C9000430CA002530CB001030CC00B5
:101080002330CD009030CE009130CF003030D000F2
:10109000D1001030D2000830D3002030D40002300C
:1010A000D5002030D6009030D7009130D8008A117A
:1010B000BA288A158A1141298A158A11132A8A1594
:1010C0008A1197228A158A11402B8A15E001303047
:1010D000E1006108E2000130E300E5018030E40056
:1010E0008A1162238A156108E200E401E3018A1192
:1010F00082238A157818B6282C1C7F28BC0A3C0845
:10110000003C0318B3286108E2000130E300E50168
:101110008030E4008A1162238A156108E200E4014C
:10112000E3018A1182238A157818B028E008031D8C
:10113000AC286108E2000130E300E5018030E40002
:101140008A1162238A156108E200E401E3018A1131
:1011500082238A15781C9928BC010130F800B82830
:101160000030F800B8280030F800B8280030F80047
:10117000F8080319BC28B90A3908043C0318C12827
:10118000B9013A0839020319CA283908BA008A1184
:101190000A228A1539080319DA28013A0319952910
:1011A000033A0319FB29013A03197A2C073A031968
:1011B0008F2D902D0830E0008A1113218A158A1195
:1011C0004A248A155208E2008A110E258A157808E9
:1011D000E0005108E2008A110E258A157808E10026
:1011E0005008E2008A110E258A157808E2000430C2
:1011F000E600E7016008E8006108E9007808EA0015
:101200000130EB00EC00ED008A1134258A15023024
:10121000E0000130E100E3015B08E2005D08E50069
:101220005C08E4008A11D5258A155B08E0002D08CA
:10123000E1006008610203182629081783160813C5
:1012400083128813831688132D298312081383169B
:101250000813831288178316881383125208E2003A
:101260008A110E258A157808E0003608E2008A11F6
:101270000E258A1578086002031D5F295108E200D7
:101280008A110E258A157808E0003708E2008A11D5
:101290000E258A1578086002031D5F295008E200B8
:1012A0008A110E258A157808E0003808E2008A11B4
:1012B0000E258A1578086002031D5F29AC16AC1E46
:1012C0009129E0016008313C031C90298714AB1080
:1012D0002B088316870001308312E1008A117D21DB
:1012E0008A150230E100F930E3008A1188228A155C
:1012F000E10B73298710AB102B088316870012307F
:101300008312E1008A117D218A150230E100F93053
:10131000E3008A1188228A15E10B8729E00A6229F5
:1013200094298A1197228A15BA2D8A114A248A157E
:101330000130E0003230E1008A1158268A15780821
:10134000AD070318AE0A0130E0003130E1008A1128
:1013500058268A157808AD020030031C0130AE0211
:101360000230E000E101E3015B08E2005D08E50016
:101370005C08E4008A11D5258A150230E0000130AE
:10138000E1002E08E3002D08E2006008F400610887
:10139000F5008A11B8228A158B3003178D000030B2
:1013A0008F008A110313F0228A1507306007E400CA
:1013B0006308E8006208E7006408E9006108EA00E1
:1013C0000130EB00EC018A11A2258A158F3003173A
:1013D0008D0000308F008A110313F0228A1501302E
:1013E000E0003330E1008A1158268A15F808031905
:1013F000FA29B901BA2D0830E0008A1113218A15A3
:101400000130F400F5018A11B8228A159D300317C6
:101410008D0000308F008A110313F0228A153208E4
:10142000043C031CED2BB4080319192A8A117726F2
:101430008A150230E0003330E1008A1158268A15FF
:10144000F8080319482A0130B300330B442AB40AC0
:10145000B41B2E2A3408033C031C312A0130B3008C
:10146000442AB41B372A3408063C031C3A2A0230AB
:10147000B300442A3408073C031D412A0330B3005B
:10148000442AB401B301B901B5018A1119278A159B
:101490000230E0003130E1008A1158268A15F80840
:1014A00003191D2BB501B41B592A3408033C031C36
:1014B000AA2A3408013A0319642A033A03197A2A3A
:1014C000013A0319912AA82A5008583C03186A2A9D
:1014D000D001732A5008E0000130E1008A11402752
:1014E0008A157808D000E0015008E1008A116D27C4
:1014F0008A15A92A5108583C0318802AD101892A43
:101500005108E0000130E1008A1140278A1578086F
:10151000D1000130E0005108E1008A116D278A15E1
:10152000A92A5208223C0318972AD201A02A52085D
:10153000E0000130E1008A1140278A157808D200C6
:101540000230E0005208E1008A116D278A15A92AAD
:10155000A92A172BB41BB02A3408063C031C042B01
:101560003408043A0319BB2A013A0319D22A033A70
:101570000319EA2A022B5608983C0318C12AD601FF
:10158000CA2A5608E0000130E1008A1140278A1576
:101590007808D6000630E0005608E1008A116D2771
:1015A0008A15032B5508113C0318D92A0130D500A0
:1015B000E22A5508E0000130E1008A1140278A152F
:1015C0007808D5000530E0005508E1008A116D2744
:1015D0008A15032B5408303C0318F12A0130D4003B
:1015E000FA2A5408E0000130E1008A1140278A15E8
:1015F0007808D4000430E0005408E1008A116D2717
:101600008A15032B032B172B3408073C031D172BBC
:101610005308083C031D0F2B0230D300102BD30AB4
:101620000330E0005308E1008A116D278A152C155C
:10163000AC152C168A1119278A150230E0003230B9
:10164000E1008A1158268A15F8080319EC2BB50118
:10165000B41B2E2B3408033C031C7C2B3408013AAA
:101660000319392B033A03194E2B013A0319642B42
:101670007A2BD008031D3F2B5930D000472B500840
:10168000E000E1018A1140278A157808D000E001C6
:101690005008E1008A116D278A157B2BD108031DA4
:1016A000542B5930D1005C2B5108E000E1018A1124
:1016B00040278A157808D1000130E0005108E10088
:1016C0008A116D278A157B2BD208031D6A2B2330C4
:1016D000D200722B5208E000E1018A1140278A15DE
:1016E0007808D2000230E0005208E1008A116D272C
:1016F0008A157B2B7B2BE62BB41B822B3408063CF4
:10170000031CD32B3408013A03198D2B033A031918
:10171000A32B013A0319BA2BD12BD608031D932B07
:101720009930D6009B2B5608E000E1018A11402732
:101730008A157808D6000630E0005608E1008A11C4
:101740006D278A15D22B5508013C031CAA2B0C309F
:10175000D500B22B5508E000E1018A1140278A1517
:101760007808D5000530E0005508E1008A116D27A2
:101770008A15D22B5408013C031CC12B1530D40010
:10178000C92B5408E000E1018A1140278A15780826
:10179000D4000430E0005408E1008A116D278A1556
:1017A000D22BD22BE62B3408073C031DE62B530823
:1017B000023C031DDE2B0830D300DF2BD3030330A4
:1017C000E0005308E1008A116D278A152C15AC152D
:1017D0002C168A1119278A15052C3208093C031882
:1017E000052CB201B51BF82B3508133C031CFA2B52
:1017F000B50AFF2BB401B3012C15AC152C165008FB
:1018000031020319052C5008B1008A1119278A15D5
:10181000F4010130F5008A11B8228A15B308031DBE
:101820001B2C913003178D0000308F008A11031399
:10183000F0228A15422C330B272C933003178D008E
:1018400000308F008A110313F0228A15422C3308CE
:10185000023C031D352C953003178D0000308F009E
:101860008A110313F0228A15422C3308033C031D0E
:10187000422C973003178D0000308F008A1103131C
:10188000F0228A150D30F4000130F5008A11B822DB
:101890008A1530303407E000FE008A11D3228A1501
:1018A000B4080319702C3508E0000A30E1008A11F1
:1018B00085278A1530307807E000FE008A11D32290
:1018C0008A153508E0000A30E1008A1185278A155B
:1018D00030307707E000FE008A11D3228A15792C78
:1018E000993003178D0000308F008A110313F02206
:1018F0008A15BA2D0130F400F5018A11B8228A1533
:10190000A53003178D0000308F008A110313F022D9
:101910008A153208043C031C432DB4080319932C88
:101920008A1177268A150130E0003330E1008A11F0
:1019300058268A15F8080319AB2CB41BA32C3408BD
:10194000023C031CA52CB40AA72CB401B901B501B3
:101950008A11AA278A150130E0003130E1008A118E
:1019600058268A15F8080319F82CB5013408013AED
:101970000319C12C033A0319D12C013A0319E12CA4
:10198000F12C3808583C0318C72CB801D02C380863
:10199000E0000130E1008A1140278A157808B8007C
:1019A000F22C3708583C0318D72CB701E02C370825
:1019B000E0000130E1008A1140278A157808B7005D
:1019C000F22C3608223C0318E72CB601F02C36081E
:1019D000E0000130E1008A1140278A157808B6003E
:1019E000F22CF22C2C15AC152C168A11AA278A156C
:1019F0000130E0003230E1008A1158268A15F808DB
:101A00000319422DB5013408013A03190E2D033A8A
:101A100003191D2D013A03192C2D3B2DB808031D68
:101A2000142D5930B8001C2D3808E000E1018A114E
:101A300040278A157808B8003C2DB708031D232DD0
:101A40005930B7002B2D3708E000E1018A114027FB
:101A50008A157808B7003C2DB608031D322D2330B7
:101A6000B6003A2D3608E000E1018A1140278A15B8
:101A70007808B6003C2D3C2D2C15AC152C168A117F
:101A8000AA278A15542D3208093C0318542DB20197
:101A9000B51B4E2D3508133C031C502DB50A542D93
:101AA000B4012C15AC152C168A11AA278A150D30F5
:101AB000F4000130F5008A11B8228A15303034075D
:101AC000E000FE008A11D3228A15B4080319852D7F
:101AD0003508E0000A30E1008A1185278A15303088
:101AE0007807E000FE008A11D3228A153508E0004D
:101AF0000A30E1008A1185278A1530307707E00027
:101B0000FE008A11D3228A158E2D9B3003178D007B
:101B100000308F008A110313F0228A15BA2DBA2DD6
:101B20000230F400F5018A11B8228A15AC3003178F
:101B30008D0000308F008A110313F0228A15F40102
:101B40000130F5008A11B8228A15B23003178D00D2
:101B500000308F008A110313F0228A150130E00053
:101B60003330E1008A1158268A15F8080319B92D77
:081B7000B901BA2D66286300DB
:02400E00723FFF
:00000001FF
;PIC16F877A
;CRC=423E  CREATED="02-Jun-24 11:34"
