:1000000010308A0000280000FF00030E8301A100C9
:100010000A08A0008A010408A2007708A300780853
:10002000A4007908A5007A08A60003170D08031399
:10003000A70003170F080313A80003170C080313E6
:10004000A90003170E080313AA00831383128C3030
:100050008400801E2D288C1A54288C308400001CAB
:1000600033280C185728220884002308F700240896
:10007000F8002508F9002608FA00270803178D0064
:100080000313280803178F000313290803178C0094
:1000900003132A0803178E00031320088A00210E79
:1000A0008300FF0E7F0E09008A110A125A288A1156
:1000B0000A128F288C1E86288C1E5C281A0883162C
:1000C000CB004B080D3C031969284B080A3C031D63
:1000D0007528463083125607840083138001560822
:1000E000D8000130D70086288316831256080E3CAC
:1000F000031C84285608D60A463E840083138316C0
:100100004B088000872883120F30D6008316831295
:100110008C128A110A123328F339BA376B008E0118
:10012000E7308F0096308E0000000130AC06AE0A3A
:100130000319AF0AAF08031DA1282E08093C0318B4
:10014000BE28B30AAF01AE01B108031DAF283008C5
:10015000633C031CAF28B00A0319B10AB228B101ED
:10016000B001AC142C1FBD283C08633C031CBA280A
:10017000BC0ABC28BC012C13BE282C130C108A11FD
:100180000A123328C437A0306E1031102D10C82544
:10019000C924000053284B2A2D2A5024C3260000CE
:1001A0002D002D002E002E004E223A100001A03707
:1001B00043004E22AD23481D2000A03743002027D6
:1001C0002000472847004E2A4E00202A2000DF2F1B
:1001D0000000DF2F0000643A3A39741D0010643AC1
:1001E0003A36741D0001643A3A39611D0001643ADF
:1001F0003A39631D0001E3306910E4307410E437CC
:10020000EE3320346F00F417671063346F10E3305F
:10021000A0306E006334E5316B10E3376D10E539C3
:1002200070004937E637F236613AE9376E00D63268
:10023000F239E9376E1D202B311730173000C832E4
:100240006C366F106639EF362028C921311B461CE9
:10025000B71BC1100000B53090008E01E7308F0051
:1002600096308E000000C0308B0483160C148C1660
:10027000FF308500DF3086000030880009108910CB
:1002800009119830870083122C10AC102C111930F2
:10029000AD00AC152C16AC160930B7003030B800E4
:1002A000B9008A110A165F2894138C118316480826
:1002B000831293000230941B6429831614195E295B
:1002C0000030111B01308312F8000800141383164C
:1002D00091159119692977189112771C91161116A9
:1002E000111A702983121308F800080083161114DC
:1002F00011187829D030C800831254218316C80100
:10030000831254218316911491188429D130C80086
:1003100083125421FB0176087B0203189A296D3061
:100320007B07840083130130F70066217808800082
:10033000FB0A8B29F70166217808FB00831611154B
:100340001119A029831208000930F60076217508DA
:100350006C020319DD290130F600831611141118FF
:10036000AF29D030C800831254218316C8018312EC
:100370005421FB017B08083C031CD829F60803190B
:10038000CC2964307B07840083130008FC008316AB
:10039000C80083125421D6296D307B078400831353
:1003A0000008FC008316C80083125421FB0ABA29F6
:1003B000831611151119DA2983128A110A16622877
:1003C0007C308400831300080319F3290630F800F9
:1003D000F701F70BE929F80BE8297B30F700F70B59
:1003E000EF29800BE629080083164208C50045085E
:1003F000831263048316C6004608C700911491183F
:10040000FF294E30C8008312542183164708C800C4
:10041000831254218316111511190C2A4208C300A6
:1004200043080438C4004408C50045088312630427
:100430008316C6004608C700911491181D2A4E3035
:10044000C8008312542183164708C8008312542120
:100450008316111511192A2A2D2A2E2A0000430865
:10046000FB39C4004408C5004508831263048316A1
:10047000C6004608C700911491183C2A4E30C800A7
:100480008312542183164708C8008312542183160F
:1004900011151119492A5330F700F70B4D2A831211
:1004A000080083163C08BD00BE013D08F039BF00BE
:1004B0003D0EF700F030F7057708F039C0003F082F
:1004C0003E04C100C2008312F421831640083E049A
:1004D000C100C2008312F421080001308316BC0061
:1004E000831251221430FC00E02108001030E1009A
:1004F0000230E200E3018316111411187D2A4E30F8
:10050000C80083125421DD01DD156208E0002830A7
:10051000FC00E02163088316C500450883126304CC
:100520008316C6004608C70091149118952A4E30CC
:10053000C8008312542183164708C800831254212F
:10054000831611151119A22A6430FC008312E021D0
:1005500030308316C2008312F4210530FC00E02104
:1005600030308316C2008312F4210530FC00E021F4
:1005700030308316C2008312F4210530FC00E021E4
:1005800020308316C2008312F4215D082038F60063
:100590008316BC00831251220430DE005E155E0813
:1005A0000838F6008316BC00831251226D220230F7
:1005B000DF005F080438F6008316BC008312512266
:1005C00002308316BC00831251221430FC00E0215B
:1005D0008A110A16652803308316A302031CFA2A1F
:1005E000A3308400831300080319FA2AF82AF82A92
:1005F000800BF72A83120800F6017608313C031CB1
:10060000162B87140430FB00C7308316A300831217
:10061000EB22FB0B042B87101330FC00E021C830C9
:100620008316A3008312EB22F60AFD2A0800831624
:10063000B7014030B8001430B9005430BA00360861
:10064000831260020318292B013060028316B60062
:100650008312B730831636078400831300083507EA
:100660008038BB00BC008312512208008316380872
:10067000BD000130BE003D08F039BF003D0EF7005F
:10068000F030F7057708F039C0003F083E04C1009C
:10069000C2008312F421831640083E04C100C20048
:1006A0008312F42108000B088316B50083128B1304
:1006B000831603178C170C14000000000313B51FDA
:1006C000642B83128B178316831203170C087F3950
:1006D0000319C52B83160313B500831203170D08E6
:1006E00083160313B600831203170F088316031330
:1006F000B7003508B80083123623831636088312F4
:1007000003178D00831603133708831203178F0016
:1007100003130B088316B80083128B138316031779
:100720008C170C14000000000313B81F9A2B8312BF
:100730008B178316831203170C0D0E0D7F390319C7
:10074000C52B83160313B500831203170D088316F8
:100750000313B600831203170F0883160313B700A1
:100760003508B80083123623831636088312031720
:100770008D00831603133708831203178F008D0A29
:1007800003198F0A0313532B0317031308000130B7
:100790008316B500B60183121723C23003178D00EC
:1007A00000308F000313532303308316B50001304C
:1007B000B60083121723CA3003178D0000308F0054
:1007C000031353230830F600FA30FC00E021F60B47
:1007D000E42B6D228A110A166B280B088316A000E1
:1007E00083128B13831603178C170C140000000060
:1007F0000313A01FFE2B83128B178316831203177C
:100800000C087F390319612C83160313A00083128F
:1008100003170D0883160313A100831203170F0893
:1008200083160313A200200883120C1E152C9900B6
:1008300083162108831203178D00831603132208E1
:10084000831203178F0003130B088316A300831270
:100850008B13831603178C170C140000000003136E
:10086000A31F352C83128B178316831203170C0DCD
:100870000E0D7F390319612C83160313A000831218
:1008800003170D0883160313A100831203170F0823
:1008900083160313A200200883120C1E4D2C99000E
:1008A00083162108831203178D0083160313220871
:1008B000831203178F008D0A03198F0A0313ED2B80
:1008C0000317031308007D080739F7007D0CF800B3
:1008D000F80CF80C1F30F805780883162007840000
:1008E0008313211883170008F800F70A782CF80CF6
:1008F000F70B772C0130F8058312080005108316DA
:1009000005100230A200F930A3008312EB228316F7
:10091000A20B832C0514A630F700F70B8D2C0000DA
:1009200083120518A12C02308316A200C730A30041
:100930008312EB228316A20B962C0130F800A42C14
:1009400083120030F8008316831208008316A30177
:100950002308073C031CD92C2208F7002308F800C1
:100960000319B62C0310F70CF80BB22C00307718D3
:100970000130A4002408A500831205108316051079
:100980000330F700F70BC22CA508031DCB2C8312F4
:100990000510CD2C8316831205148530F700F70B54
:1009A000CF2C831605140330F700F70BD52CA30AC0
:1009B000A82C831208008316A601A7012708073C6C
:1009C000031C092D83120510831605100330F70050
:1009D000F70BE82C05140830F700F70BED2C281066
:1009E0008312051CF62C831628148312A630F700F8
:1009F000F70BF82C00000030831628180130F8009F
:100A0000F808031D052D0310062D0314A60CA70AD4
:100A1000DE2C2608F80083120800F801F901F7011E
:100A2000FA0183163208031D182D31080319322DDF
:100A30001030B3000310AF0DB00DF70DFA0D3208F2
:100A40007A02031D252D31087702031C2E2D310853
:100A5000F702031CFA033208FA020314F80DF90D29
:100A6000B30B1A2D83120800FC013D30FB007E24DD
:100A7000F808031D3E2D0030F800A12DCC30831660
:100A8000A2008312A62444308316A2008312A62457
:100A9000DB24F8080319482D7E24F808031D532D84
:100AA0000030F800A12DCC308316A2008312A624BA
:100AB000BE308316A2008312A6247C08FA007B08AD
:100AC0008316A0007C08A1008312DB248316200873
:100AD0008400831321188317840A80018403780813
:100AE00080007C08FA007B08A0007C08A100200898
:100AF0008400831321188317840A0008A300840349
:100B00000008A2008312DB248316A5017808A40044
:100B1000FA0000302204F7007A082304FA0077086C
:100B2000A2007A08A30020088400831321188317E9
:100B3000840A230880008403220880000130F80022
:100B40008312F8080319E42D2C153E0CFA003D0C15
:100B5000F900FA0CF90CFA0CF90CFA0CF90C7908FA
:100B6000BF003D080F39C200C3014308FC00420822
:100B7000FB000230FE007130FD0010308316A00033
:100B8000F701FA01FC0CFB0C031CCC2D7D08F707C8
:100B90000318FA0A7E08FA07FA0CF70CF90CF80C9D
:100BA000A00BC22D7908FC007808FB007908B00082
:100BB0007808AF00B2010A30B10083120D25790820
:100BC000C1007808C000E52D2C110800F701F801DC
:100BD0008316260803102718F707F70CF80CA71838
:100BE000F707F70CF80C2719F707F70CF80CA719FB
:100BF000F707F70CF80C271AF707F70CF80CA71AE9
:100C0000F707F70CF80C271BF707F70CF80CA71BD6
:100C1000F707F70CF80C831208008316230EF70071
:100C20000F30F7057708A500A6000A30A700831249
:100C3000E62578088316A40023080F392407F80056
:100C40008312080083163608F801350203182B2E8C
:100C50003508F700372EF7010830B700B50DF70D4E
:100C6000360877020318F700F80DB70B2E2E831203
:100C7000080083162C0B462E2908B5000A30B60052
:100C80008312222630307807482E831620308312B4
:100C90008316AF002C0B562E2908B5000A30B6007B
:100CA0008312222630307707582E83162030831285
:100CB0008316B0002D0B662E2A08B5000A30B60048
:100CC0008312222630307807682E83162030831254
:100CD0008316B1002D0B762E2A08B5000A30B60017
:100CE0008312222630307707782E83162030831225
:100CF0008316B2002E0B862E2B08B5000A30B600E4
:100D00008312222630307807882E831620308312F3
:100D10008316B3002E0B962E2B08B5000A30B600B2
:100D20008312222630307707982E831620308312C4
:100D30008316B4002708B5002808B60083121723CD
:100D400083162F08B8008312362383163008B800A4
:100D500083123623D03003178D0000308F00031329
:100D6000532383163108B8008312362383163208C2
:100D7000B80083123623D13003178D0000308F0066
:100D80000313532383163308B800831236238316C4
:100D90003408B80083123623080083162608B500ED
:100DA0002708B6008312172383162508B0002408ED
:100DB000AF00B2010A30B10083120D257908831605
:100DC000AD007808AC0030302C07AA002508B00030
:100DD0002408AF00B2010A30B10083120D25770854
:100DE0008316AC007A08AD0030302C07AB00280B1E
:100DF000FF2E2A08303C031DFF2E2030AA00290BAD
:100E00000A2FD230831203178D0000308F00031396
:100E1000532383162A08B8008312362383162B081F
:100E2000B80083123623080076088316B5007B08C5
:100E3000B60083121723D43003178D0000308F00C3
:100E40000313532304307607FE007D088316A500A4
:100E50007C08A4007E08A6007B08A7000130A8003B
:100E6000A9018312CD2606307607FE0083162108DD
:100E7000A5002008A4007E08A6007B08A700A80102
:100E80000130A9002608B5002708B60083121723F1
:100E900083162508B0002408AF00B2016430B10009
:100EA00083120D2579088316AE007808AD00303026
:100EB0002D07AA002508B0002408AF00B2010A30AF
:100EC000B10083120D2579088316AE007808AD00B5
:100ED0002E08B0002D08AF00B2010A30B100831215
:100EE0000D2577088316AD007A08AE0030302D0747
:100EF000AB002508B0002408AF00B2010A30B100F1
:100F000083120D2577088316AD007A08AE003030C5
:100F10002D07AC00280B982F2A08303C031D982F72
:100F20002030AA002B08303C031D982F2030AB0046
:100F3000290BA32FD330831203178D0000308F00AD
:100F40000313532383162A08B8008312362383160B
:100F50002B08B8008312362383162C08B80083129E
:100F60003623D73003178D0000308F00031353232F
:100F700008008C3003178D0000308F000313ED2321
:100F800008007D088316B5000A30B60083122226B9
:100F9000780EFE00F030FE057D088316B5000A309D
:100FA000B6008312222677087E07F80008007B0827
:100FB000FD008316A101A001831263247818ED2F90
:100FC0002C18DC0A76085C02031CEA2FDC010130D5
:100FD000F800EF2F0030F800EF2F0030F800080085
:1010000020308316201E3030A1007E08F700FE1F1E
:101010001128F709F70A7708FE002D30A100A01764
:1010200020147E08B5006430B6008A11831222268F
:101030008A157708FE00303078078316A2007E08F4
:10104000B5000A30B6008A11831222268A15303084
:1010500077078316A40030307807A3002108F70033
:101060003030220203193828A014A01B20154C2868
:101070002108A2002030A1003030230203194428A7
:101080002014A01BA0144C28031D2014031D4C2861
:101090002208A3002030A20020195328A0185928A4
:1010A00020185F286528210883120C1E55289900F6
:1010B0008316220883120C1E5B28990083162308CE
:1010C00083120C1E612899008316240883120C1EBB
:1010D000672899000800B50803199828350B71286E
:1010E00075283508043C031D7A280830AC062C16F8
:1010F000AC1697283508023C031982283508053CB0
:10110000031D8728AC151030AC06AC16972835089F
:10111000033C03198F283508063C031D9428AC15A1
:101120002C162030AC069728AC152C16AC169B2834
:10113000AC152C16AC1608006F088316A3008A1194
:1011400083120D268A1578088316A00083126E0874
:101150008316A3008A1183120D268A157808831638
:10116000A10083126D088316A3008A1183120D2635
:101170008A1578088316A20000308312AC1A013059
:101180008316A300003083122C1A01308316A400AA
:1011900000308312AC1901308316A5000430A7007B
:1011A0000130A8002008A9002108AA002208AB00ED
:1011B0002308AC002408AD002508AE008A11831274
:1011C00039268A15080071088316A3008A11831234
:1011D0000D268A1578088316A0007208A3008A11CC
:1011E00083120D268A1578088316A1007308A300C0
:1011F0008A1183120D268A1578088316A200003002
:101200008312AC1A01308316A300003083122C1A0B
:1012100001308316A40000308312AC19013083160C
:10122000A5000430A7000130A8002008A90021086B
:10123000AA002208AB002308AC002408AD00250852
:10124000AE008A11831239268A15080070088316A9
:10125000A3008A1183120D268A157808FB0000303E
:101260002C1A0130FC0004308316A7000130A800BE
:10127000A9017808AA00AB01AC017C08AD00AE0161
:101280008A11831239268A150800B508031D5729CB
:10129000B40803194D29340B4E299C203408023C14
:1012A0000319E3203408033C031926216B29B51BDD
:1012B0005D293508033C031C5F299C206B29B51B65
:1012C00065293508063C031C6729E3206B2935088E
:1012D000073C031926210800760EFE000F30FE059C
:1012E00076080F39FD007E088316A6000A30A70095
:1012F0008A118312E6258A157D087807FC00FB0811
:10130000031D8429FC0A8529FC037C088316B5008B
:101310000A30B6008A11831222268A157808FE0048
:101320007C088316B5000A30B6008A118312222683
:101330008A157708FD007E0EF700F030F705770874
:101340007D048316A0002008F8008312080083168D
:1013500011141118A929D030C8008A118312542100
:101360008A1576088316C8008A11831254218A15BB
:101370007B088316C8008A11831254218A158316AC
:1013800011151119C129831208007B087C068039C8
:10139000FE00FB1FCD29FB09FB0AFC1FD129FC091C
:1013A000FC0A7C08F8017B020318D9297B08F700A6
:1013B000E529F7010830FD00FB0DF70D7C087702E9
:1013C0000318F700F80DFD0BDC29FE1FE929F809C9
:1013D000F80A080037088316A3008A1183120D2625
:1013E0008A1578088316A000831238088316A30094
:1013F0008A1183120D268A1578088316A10083129C
:1014000039088316A3008A1183120D268A157808DD
:101410008316A20000308312AC1A01308316A30099
:10142000003083122C1A01308316A400003083127E
:10143000AC1901308316A5000430A7000130A800C4
:101440002008A9002108AA002208AB002308AC004C
:101450002408AD002508AE008A11831239268A15AA
:02146000080082
:1020000003081F398300FF30AB00AB152B08831684
:10201000870083122B162B0883168700313093001C
:10202000283083129400831694171413813099007A
:10203000A63098009030831298002C10AC102C1110
:102040001930AD00B401B501B601BA01BB01BC0144
:10205000D601D701D801DA01D901DB01DC018316F1
:102060001F149F141F159F1107309C0083138312A8
:10207000C401C501C6013130E4001530E500E600B9
:102080000430E7002530E8001030E9002330EA0092
:102090009030EB009130EC003030ED00EE0010306D
:1020A000EF000830F0002030F1000230F200203064
:1020B000F3009030F4009130F5000A122B290A1633
:1020C0000A12A4290A160A12762A0A160A12FC22F1
:1020D0000A160A12C72B0A161F3003178D0001308B
:1020E0008F000A120313ED230A16F6013030FB00AD
:1020F0007B08FD008316A101A0010A12831263244C
:102100000A167818AD282C1C8628DB0A5B08003CD0
:102110000318AA287B08FD008316A101A0010A125A
:10212000831263240A167818A728F608031DA3282B
:102130007B08FD008316A101A0010A12831263240B
:102140000A16781C9828DB010130F800AF2800300F
:10215000F800AF280030F800AF280030F800F80889
:102160000319B328BA0A3A08053C0318B828BA017B
:102170003B083A020319C1283A08BB000A126D2233
:102180000A163A080319D128013A03190C2B033A0D
:102190000319732B013A03193C2E073A0319752FC3
:1021A000A32F0830F6000A1276210A160A123425E7
:1021B0000A166F088316A3000A1283120D260A1648
:1021C0007808FB006E088316A3000A1283120D26FE
:1021D0000A167808FC006D088316A3000A12831201
:1021E0000D260A167808FD0004308316A700A80102
:1021F0007B08A9007C08AA007808AB000130AC007D
:10220000AD00AE000A12831239260A160230F6001B
:102210000130FB00FD013F08FC0041088316A100CE
:10222000831240088316A0000A12831214270A168C
:102230003F08FB002D08FC007B087C0203182329C3
:10224000081788132529081388176F088316A30019
:102250000A1283120D260A167808FB003708831627
:10226000A3000A1283120D260A1678087B02031DAA
:1022700062296E088316A3000A1283120D260A161D
:102280007808FB0038088316A3000A1283120D2673
:102290000A1678087B02031D62296D088316A300C5
:1022A0000A1283120D260A167808FB0039088316D5
:1022B000A3000A1283120D260A1678087B02031D5A
:1022C00062292C172C1F8E29FB017B08313C031C33
:1022D0008D2987140130FC000A12E0210A16023011
:1022E000FC00F9308316A3000A128312EB220A16AF
:1022F000FC0B712987101230FC000A12E0210A162B
:102300000230FC00F9308316A3000A128312EB227C
:102310000A16FC0B8229FB0A652991290A12FC2264
:102320000A16D7080319262AD701D601D80146086C
:10233000733C031DB6294708743C031DB6294808A1
:102340003A3C031DB62930304902FC008316A60032
:102350000A30A7000A128312E6250A1630304A0214
:102360007807AD000A12B9270A16262A4608733CD8
:10237000031D112A4708613C031D112A48083A3CF5
:10238000031D112A4908673C031D102A4A08703CA6
:10239000031D102A4B08673C031D102A30304D02E4
:1023A000FC008316A6000A30A7000A128312E62555
:1023B0000A167808FB00FD000A12C1270A16303001
:1023C0004E027807B70030305002FC008316A6009A
:1023D0000A30A7000A128312E6250A167808FB00C5
:1023E000FD000A12C1270A16303051027807B800E2
:1023F00030305302FC008316A6000A30A7000A12F0
:102400008312E6250A167808FB00FD000A12C12790
:102410000A16303054027807B9000A12B9270A1692
:10242000262A4608633C031D262A4708733C031DE1
:10243000262A48083A3C031D262A30304902F80073
:102440002C1378182C170A12B9270A16AC1C0B2B60
:10245000AC10EB3003178D0000308F000A1203130D
:10246000ED230A163F08FE0018308316A0000A125A
:102470008A15831200200A168A110D300C1E3E2A7E
:1024800099000A300C1E422A9900EF3003178D0084
:1024900000308F000A120313ED230A162D08FE00E8
:1024A00018308316A0000A128A15831200200A161B
:1024B0008A110D300C1E5A2A99000A300C1E5E2A11
:1024C000990037088316A3000A1283120D260A16F4
:1024D0007808FB0038088316A3000A1283120D2621
:1024E0000A167808FC0039088316A3000A12831222
:1024F0000D260A167808FD00F33003178D00003012
:102500008F000A120313ED230A167B08FE00183011
:102510008316A0000A128A15831200200A168A1157
:102520002D300C1E912A99007C08FE00183083166D
:10253000A0000A128A15831200200A168A112D3073
:102540000C1EA02A99007D08FE0018308316A000FA
:102550000A128A15831200200A168A110D300C1EE9
:10256000AF2A99000A300C1EB32A99006F0883160F
:10257000A3000A1283120D260A167808FB006E08C3
:102580008316A3000A1283120D260A167808FC008F
:102590006D088316A3000A1283120D260A16780806
:1025A000FD00F73003178D0000308F000A1203136F
:1025B000ED230A167B08FE0018308316A0000A12CD
:1025C0008A15831200200A168A112D300C1EE62A65
:1025D00099007C08FE0018308316A0000A128A15A4
:1025E000831200200A168A112D300C1EF52A99003C
:1025F0007D08FE0018308316A0000A128A15831287
:1026000000200A168A110D300C1E042B99000A3086
:102610000C1E082B9900D12F0A1234250A160130FE
:10262000F6003230FB000A12D7270A167808AD07E9
:102630000130F6003130FB000A12D7270A1678085D
:10264000AD020230F600FB01FD013F08FC0041082D
:102650008316A100831240088316A0000A12831279
:1026600014270A160230F6000130FB00FD012D0888
:10267000FC0076088316B5007B08B6000A128312A8
:1026800017230A16D93003178D0000308F000A1265
:10269000031353230A1607307607FE007D088316BE
:1026A000A5007C08A4007E08A6007B08A7000130D6
:1026B000A800A9010A128312CD260A16DD300317DD
:1026C0008D0000308F000A12031353230A160130C5
:1026D000F6003330FB000A12D7270A16F808031950
:1026E000722BBA01D12F0830F6000A1276210A1691
:1026F00001308316B500B6010A12831217230A1699
:10270000FB3003178D0000308F000A120313532390
:102710000A163308043C031C9F2DB5080319952B9A
:102720000A128A156B200A168A110230F60033301D
:10273000FB000A12D7270A16F8080319C62B013026
:10274000B400340BC02BB50AB51BAA2B3508033CCB
:10275000031CAD2B0130B400C02BB51BB32B3508C7
:10276000063C031CB62B0230B400C02B3508073CD6
:10277000031DBD2B0330B400C02BB501B401BA0159
:10278000B6010A128A1545210A168A110130F6008F
:102790003130FB000A12D7270A16F8080319B12CAA
:1027A000B601B51BD72B3508033C031C312C35086B
:1027B000013A0319E22B033A0319FB2B013A0319DF
:1027C000152C2F2C6D08593C031DE82BED01F22B25
:1027D0006D08F600FB010A128A156C210A168A118F
:1027E0007808ED00F6016D08FB000A128A15A72192
:1027F0000A168A11302C6E08593C031D012CEE017B
:102800000B2C6E08F600FB010A128A156C210A16C1
:102810008A117808EE000130F6006E08FB000A12FB
:102820008A15A7210A168A11302C6F08233C031D34
:102830001B2CEF01252C6F08F600FB010A128A15EC
:102840006C210A168A117808EF000230F6006F0832
:10285000FB000A128A15A7210A168A11302C302C87
:10286000A92CB51B372C3508063C031C942C3508C5
:10287000043A0319422C013A03195C2C033A031958
:10288000772C922C7308993C031D482CF301522C91
:102890007308F600FB010A128A156C210A168A11C8
:1028A0007808F3000630F6007308FB000A128A1558
:1028B000A7210A168A11932C7208123C031D632C5F
:1028C0000130F2006D2C7208F600FB010A128A1525
:1028D0006C210A168A117808F2000530F600720899
:1028E000FB000A128A15A7210A168A11932C710877
:1028F000313C031D7E2C0130F100882C7108F6005C
:10290000FB010A128A156C210A168A117808F10057
:102910000430F6007108FB000A128A15A7210A1676
:102920008A11932C932CA92C3508073C031DA92C44
:102930007008083C031D9F2C0230F000A02CF00A08
:102940000330F6007008FB000A128A15A7210A1648
:102950008A11AC152C16AC160A128A1545210A16D6
:102960008A110130F6003230FB000A12D7270A160E
:10297000F80803199E2DB601B51BC22C3508033C7F
:10298000031C1F2D3508013A0319CD2C033A0319F6
:10299000E72C013A0319022D1D2DED08031DD32C40
:1029A0005930ED00DE2C6D08F6000130FB000A12F4
:1029B0008A156C210A168A117808ED00F6016D0857
:1029C000FB000A128A15A7210A168A111E2DEE088D
:1029D000031DED2C5930EE00F82C6E08F600013086
:1029E000FB000A128A156C210A168A117808EE007B
:1029F0000130F6006E08FB000A128A15A7210A169C
:102A00008A111E2DEF08031D082D2330EF00132D12
:102A10006F08F6000130FB000A128A156C210A16B5
:102A20008A117808EF000230F6006F08FB000A12E6
:102A30008A15A7210A168A111E2D1E2D962DB51B4B
:102A4000252D3508063C031C812D3508043A031951
:102A5000302D013A03194B2D033A0319652D7F2DB3
:102A6000F308031D362D9930F300412D7308F6004D
:102A70000130FB000A128A156C210A168A117808A7
:102A8000F3000630F6007308FB000A128A15A7212E
:102A90000A168A11802D720B502D0C30F2005B2D1E
:102AA0007208F6000130FB000A128A156C210A1622
:102AB0008A117808F2000530F6007208FB000A124D
:102AC0008A15A7210A168A11802D710B6A2D1530DF
:102AD000F100752D7108F6000130FB000A128A150D
:102AE0006C210A168A117808F1000430F60071088A
:102AF000FB000A128A15A7210A168A11802D802D43
:102B0000962D3508073C031D962D7008023C031DC9
:102B10008C2D0830F0008D2DF0030330F600700886
:102B2000FB000A128A15A7210A168A11AC152C1669
:102B3000AC160A128A1545210A168A11B72D3308D8
:102B4000093C0318B72DB301B61BAA2D3608133C58
:102B5000031CAC2DB60AB12DB501B401AC152C1671
:102B6000AC166D0832020319B72D6D08B2000A12B7
:102B70008A1545210A168A118316B5010130B6005F
:102B80000A12831217230A16B408031DD12DDF3051
:102B900003178D0000308F000A12031353230A1607
:102BA000F82D340BDD2DE13003178D0000308F0040
:102BB0000A12031353230A16F82D3408023C031D8E
:102BC000EB2DE33003178D0000308F000A12031342
:102BD00053230A16F82D3408033C031DF82DE53065
:102BE00003178D0000308F000A12031353230A16B7
:102BF0000D308316B5000130B6000A128312172378
:102C00000A1630303507F6008316B8000A12831210
:102C100036230A16B5080319322E3608FB000A308F
:102C2000FC000A128A15C5210A168A11303078076D
:102C3000F6008316B8000A12831236230A163608E5
:102C4000FB000A30FC000A128A15C5210A168A11F7
:102C500030307707F6008316B8000A128312362345
:102C60000A163B2EE73003178D0000308F000A1242
:102C7000031353230A16D12F01308316B500B60172
:102C80000A12831217230A16033003178D0001302E
:102C90008F000A12031353230A163308043C031C43
:102CA0001B2FB5080319592E0A128A156B200A1614
:102CB0008A110230F6003330FB000A12D7270A16B9
:102CC000F8080319732EB51B692E3508023C031C46
:102CD0006B2EB50A6D2EB501BA01B6010A128A151E
:102CE000EA210A168A110130F6003130FB000A127F
:102CF000D7270A16F8080319C52EB6013508013A78
:102D00000319892E033A03199A2E013A0319AB2E9F
:102D1000BC2E3908593C031D8F2EB901992E390854
:102D2000F600FB010A128A156C210A168A1178082E
:102D3000B900BD2E3808593C031DA02EB801AA2E9B
:102D40003808F600FB010A128A156C210A168A114E
:102D50007808B800BD2E3708233C031DB12EB701FB
:102D6000BB2E3708F600FB010A128A156C210A16E1
:102D70008A117808B700BD2EBD2EAC152C16AC16E6
:102D80000A128A15EA210A168A110130F600323039
:102D9000FB000A12D7270A16F80803191A2FB601E2
:102DA0003508013A0319DB2E033A0319ED2E013AD7
:102DB0000319FF2E112FB908031DE12E5930B90058
:102DC000EC2E3908F6000130FB000A128A156C213E
:102DD0000A168A117808B900122FB808031DF32EBD
:102DE0005930B800FE2E3808F6000130FB000A12F8
:102DF0008A156C210A168A117808B800122FB708B4
:102E0000031D052F2330B700102F3708F6000130BF
:102E1000FB000A128A156C210A168A117808B7007D
:102E2000122F122FAC152C16AC160A128A15EA2195
:102E30000A168A112C2F3308093C03182C2FB301D2
:102E4000B61B262F3608133C031C282FB60A2C2F3E
:102E5000B501AC152C16AC160A128A15EA210A1611
:102E60008A110D308316B5000130B6000A128312A4
:102E700017230A1630303507F6008316B8000A12F9
:102E8000831236230A16B50803196B2F3608FB0088
:102E90000A30FC000A128A15C5210A168A11303040
:102EA0007807F6008316B8000A12831236230A1632
:102EB0003608FB000A30FC000A128A15C5210A16E2
:102EC0008A1130307707F6008316B8000A12831291
:102ED00036230A16742FE93003178D0000308F0057
:102EE0000A12031353230A16D12F01308316B5009B
:102EF000B6010A12831217230A160A3003178D002F
:102F000001308F000A12031353230A16013083166F
:102F1000B500B6000A12831217230A16303058077C
:102F2000FB008316B8000A12831236230A160130FA
:102F3000F6003330FB000A12D7270A16F8080319E7
:102F4000A22FBA01D12F02308316B500B6010A12A2
:102F5000831217230A16113003178D0001308F00DA
:102F60000A12031353230A168316B5010130B60063
:102F70000A12831217230A16173003178D00013027
:102F80008F000A12031353230A160130F600333060
:102F9000FB000A12D7270A16F8080319D02FBA0126
:062FA000D12F752863002B
:02400E00723FFF
:00000001FF
;PIC16F877A
;CRC=4153  CREATED="12-Jun-24 01:58"
