:1000000008308A0078280000FF00030E8301A10059
:100010000A08A0008A010408A2007708A300780853
:10002000A4007908A5007A08A60003170D08031399
:10003000A70003170F080313A80003170C080313E6
:10004000A90003170E080313AA00831383128C3030
:100050008400801E2D288C1A54288C308400001CAB
:1000600033280C185728220884002308F700240896
:10007000F8002508F9002608FA00270803178D0064
:100080000313280803178F000313290803178C0094
:1000900003132A0803178E00031320088A00210E79
:1000A0008300FF0E7F0E09008A110A127D288A1133
:1000B0000A125A288E01E7308F0096308E00000019
:1000C0000130AC06AF0A0319B00AB008031D6C2852
:1000D0002F08093C03187928B20AB001AF01AC1E01
:1000E00079283B08633C031C7728BB0A7928BB01AD
:1000F000AC120C108A110A1233288C1E7D281A08A3
:10010000BC008C128A110A123328C437A0306E103A
:1001100031102D10C825C924000053284B2A2D2A40
:100120005024C32600002D002D002E002E004E224C
:100130003A100001A03743004E22AD23481D200095
:10014000A037430020272000472847004E2A4E00B2
:10015000202A2000DF2F0000DF2F0000E33069108D
:10016000E4307410E437EE3320346F00F417671076
:1001700063346F10E330A0306E006334E5316B10F0
:10018000E3376D10E53970004937E637F236613AEA
:10019000E9376E00D632F239E9376E1D202B311760
:1001A00030173000C8326C366F106639EF362028B1
:1001B000C921311B461CB71BC1100D050000B5300D
:1001C00090008E01E7308F0096308E000000C03026
:1001D0008B0483160C148C16FF308500DF308600EC
:1001E0000030880088018312880183160910891065
:1001F00009110910891009118312890183168700DA
:100200008312AB00AB0083168701831287012C1089
:10021000AC10AE011930AD002C15AC152C16093000
:10022000B6003030B700B8008A150A12D1289413EE
:100230008C1183162D08831293000230941B2729FA
:100240008316141921290030111B01308312F80084
:10025000080014138316911591192C2977189112FF
:10026000771C91161116111A332983121308F800FE
:1002700008008316111411183B29D030AD008312E9
:1002800017218316AD01831217218316911491183B
:100290004729D130AD0083121721E20161086202C3
:1002A00003185D2951306207840083130130F70081
:1002B000292178088000E20A4E29F70129217808CF
:1002C000E200831611151119632983120800093001
:1002D000E1003921590850020319A0290130E10039
:1002E0008316111411187229D030AD008312172112
:1002F0008316AD0183121721E2016208083C031C3A
:100300009B29E10803198F29483062078400831371
:100310000008E3008316AD0083121721992951309C
:100320006207840083130008E3008316AD00831284
:100330001721E20A7D298316111511199D298312AF
:100340008A150A12D4286230840083130008031926
:10035000B6290630F800F701F70BAC29F80BAB29EA
:100360007B30F700F70BB229800BA9290800831610
:100370002708AA002A08831245048316AB002B081D
:10038000AC0091149118C2294E30AD008312172190
:1003900083162C08AD00831217218316111511192D
:1003A000CF292708A80028080438A9002908AA008E
:1003B0002A08831245048316AB002B08AC00911465
:1003C0009118E0294E30AD008312172183162C08B6
:1003D000AD0083121721831611151119ED29F0298B
:1003E000F12900002808FB39A9002908AA002A08D9
:1003F000831245048316AB002B08AC0091149118AE
:10040000FF294E30AD008312172183162C08AD0052
:10041000831217218316111511190C2A5330F70076
:10042000F70B102A8312080083162108A200A301EB
:100430002208F039A400220EF700F030F705770803
:10044000F039A50024082304A600A7008312B721D1
:10045000831625082304A600A7008312B7210800ED
:1004600001308316A100831214221430E200A3216C
:1004700008001030C3000230C400C50183161114F7
:100480001118402A4E30AD0083121721BF01BF154D
:100490004408C2002830E200A32145088316AA00C0
:1004A0002A08831245048316AB002B08AC00911474
:1004B0009118582A4E30AD008312172183162C084C
:1004C000AD0083121721831611151119652A6430A6
:1004D0008312E200A32130308316A7008312B721D4
:1004E0000530E200A32130308316A7008312B72124
:1004F0000530E200A32130308316A7008312B72114
:100500000530E200A32120308316A7008312B72113
:100510003F082038E1008316A10083121422043022
:10052000C000401540080838E1008316A10083127E
:10053000142230220230C10041080438E100831641
:10054000A1008312142202308316A1008312142208
:100550001430E200A3218A150A12D7280330E402DE
:10056000031CBC2A64308400831300080319BC2ACE
:10057000BA2ABA2A800BB92A0800E1016108313C85
:10058000031CDD2A8714AB102B0883168700043068
:100590008312E200C730E400AE22E20BCA2A8710C1
:1005A000AB102B088316870013308312E200A321BF
:1005B000C830E400AE22E10ABE2A0800FB01403048
:1005C000FC001430FD005430FE007608420203188F
:1005D000EC2A01304202F6007B3076078400831358
:1005E0000008750780388316A000A100831214222A
:1005F00008007E088316A2000130A3002208F0390B
:10060000A400220EF700F030F7057708F039A500B6
:1006100024082304A600A7008312B7218316250807
:100620002304A600A7008312B72108000B08FB00D3
:100630008B13831603178C170C1400000000FB1F8C
:10064000262B831203138B178316031783120C08B0
:100650007F390319642BFB000D08FC000F08FD0017
:100660007B08FE000313F9227C0803178D007D0828
:100670008F0003130B08FE008B13831603178C17D0
:100680000C1400000000FE1F4A2B831203138B176B
:100690008316031783120C0D0E0D7F390319642B7B
:1006A000FB000D08FC000F08FD007B08FE00031393
:1006B000F9227C0803178D007D088F008D0A03192D
:1006C0008F0A0313162B0317031308000130F500DC
:1006D000F601DE22853003178D0000308F000313F2
:1006E00016230330F5000130F600DE228D300317AB
:1006F0008D0000308F00031316230830E100FA301C
:10070000E200A321E10B7F2B30228A150A12DD289B
:100710000B08E1008B13831603178C170C140000D1
:10072000000083120313E11B8B1703170C087F399A
:100730000319DE2B0313E10003170D080313E20076
:1007400003170F080313E30061080C1EA52B990083
:10075000620803178D000313630803178F00031348
:100760000B08E4008B13831603178C170C1400007E
:10077000000083120313E41B8B1703170C0D0E0DDF
:100780007F390319DE2B0313E10003170D08031350
:10079000E20003170F080313E30061080C1ECE2BC1
:1007A0009900620803178D000313630803178F0075
:1007B0008D0A03198F0A0313882B031703138A1555
:1007C0000A12E62863080739F700630CF800F80CF2
:1007D000F80C1F30F8057808650784008313661845
:1007E0008317F801F80AF70AF62BF80DF70BF52B2B
:1007F000E4080319FE2B78088004012CF809780816
:100800008005080063080739F700630CF800F80C4E
:10081000F80C1F30F8057808640784008313651806
:1008200083170008F800F70A162CF80CF70B152CA4
:100830000130F80508008316051083120510831691
:10084000051002308312E300F930E400AE22E30B1E
:10085000242C83160514A630F700F70B2D2C00006E
:100860000514831205183E2C0230E300C730E40063
:10087000AE22E30B362C0130F800402C0030F8009B
:100880000800E4016408073C031C752C6308F700AA
:100890006408F8000319502C0310F70CF80B4C2CCB
:1008A000003077180130E5006508E6008316051072
:1008B00083120510831605100330F700F70B5E2C2A
:1008C0008312E608031D662C0510672C0514831699
:1008D00005108530F700F70B6B2C05140330F7007B
:1008E000F70B702C8312E40A422C0800E701E801A0
:1008F0006808073C031CA22C831605108312051000
:10090000831605100330F700F70B842C051408300C
:10091000F700F70B892C0514831269100518691468
:10092000A630F700F70B922C000000306918013058
:10093000F800F808031D9E2C03109F2C0314E70CED
:10094000E80A782C6708F8000800F801F901F701B7
:10095000FA017608031DAF2C75080319C92C103055
:10096000FB000310F30DF40DF70DFA0D76087A0273
:10097000031DBC2C75087702031CC52C7508F702F3
:10098000031CFA037608FA020314F80DF90DFB0BA9
:10099000B12C0800E2015A30E1001B24F808031DC5
:1009A000D42C0030F800222DCC30E3004124443018
:1009B000E30041247624F8080319DA2C1B24F808F4
:1009C000031DE52C0030F800222DCC30E30041243B
:1009D000BE30E30041246208FA006108E3006208C7
:1009E000E400762463088400831364188317840A60
:1009F00080018403780880006208FA006108E3003F
:100A00006208E40061088400831362188317840A73
:100A10000008E60084030008E5007624E8010030C1
:100A20006504F70078086604FA00630884008313FD
:100A300064188317840A7A0880008403770880008A
:100A40000130F800F8080319672DAC145B0CFA00AC
:100A50005A0CF900FA0CF90CFA0CF90CFA0CF90C16
:100A60007908DC005A080F39F700FA017708DF002F
:100A70007A08E0006008E2005F08E1000230E4006C
:100A80007130E3001030E500F701FA01E20CE10CEF
:100A9000031C502D6308F7070318FA0A6408FA07C5
:100AA000FA0CF70CF90CF80CE50B462D7908E2006E
:100AB0007808E1007908F4007808F300F6010A30BC
:100AC000F500A5247908DE007808DD00682DAC105B
:100AD0000800F701F801670803106818F707F70C1A
:100AE000F80CE818F707F70CF80C6819F707F70C7B
:100AF000F80CE819F707F70CF80C681AF707F70C69
:100B0000F80CE81AF707F70CF80C681BF707F70C56
:100B1000F80CE81BF707F70CF80C0800630EF70059
:100B20000F30F7057708E500E7000A30E80069258F
:100B30007808E40063080F397807F80008007608A1
:100B4000F80175020318A72D7508F700B32DF701FA
:100B50000830FB00F50DF70D760877020318F70053
:100B6000F80DFB0BAA2D08006C0BBE2D6908F500D3
:100B70000A30F6009F2530307807BF2D2030EF0077
:100B80006C0BCA2D6908F5000A30F6009F2530303D
:100B90007707CB2D2030F0006D0BD62D6A08F500BD
:100BA0000A30F6009F2530307807D72D2030F1002D
:100BB0006D0BE22D6A08F5000A30F6009F253030F3
:100BC0007707E32D2030F2006E0BEE2D6B08F50059
:100BD0000A30F6009F2530307807EF2D2030F300E3
:100BE0006E0BFA2D6B08F5000A30F6009F253030A9
:100BF0007707FB2D2030F4006708F5006808F60041
:100C0000DE226F08FE00F9227008FE00F922933000
:100C100003178D0000308F00031316237108FE00A8
:100C2000F9227208FE00F922943003178D0000307B
:100C30008F00031316237308FE00F9227408FE00C8
:100C4000F92208006A08F5006B08F600DE22690840
:100C5000F4006808F300F6010A30F500A5243030EE
:100C60007807EE006908F4006808F300F6010A301E
:100C7000F500A52430307707EF006C0B452E6E0889
:100C8000303C031D452E2030EE006D0B4E2E95306E
:100C900003178D0000308F00031316236E08FE002B
:100CA000F9226F08FE00F92208006108F5006208C9
:100CB000F600DE22973003178D0000308F000313FB
:100CC000162304306107E7006408E9006308E800C0
:100CD0006708EA006208EB000130EC00ED01222613
:100CE00006306107E7006608E9006508E800670864
:100CF000EA006208EB00EC010130ED006A08F50043
:100D00006B08F600DE226908F4006808F300F601BB
:100D10006430F500A52430307807EE006908F4004F
:100D20006808F300F6010A30F500A5247908F200FE
:100D30007808F1007908F4007808F300F6010A3029
:100D4000F500A52430307707EF006908F400680843
:100D5000F300F6010A30F500A52430307707F000E3
:100D60006C0BBE2E6E08303C031DBE2E2030EE00F4
:100D70006F08303C031DBE2E2030EF006D0BC72ED8
:100D8000963003178D0000308F00031316236E0872
:100D9000FE00F9226F08FE00F9227008FE00F92219
:100DA0009A3003178D0000308F00031316230800BC
:100DB0006208E3000130E400E6018030E500E22350
:100DC0006208E300E501E40102247818F42E2C18EF
:100DD000BE0A61083E02031CF12EBE010130F8007C
:100DE000F62E0030F800F62E0030F8000800B408A7
:100DF0000319242F340BFD2E012F3408043C031D4E
:100E0000062F0430AC06AC152C16232F3408023CF8
:100E100003190E2F3408053C031D132F2C15083021
:100E2000AC062C16232F3408033C03191B2F34085F
:100E3000063C031D202F2C15AC151030AC06232FBB
:100E40002C15AC152C16272F2C15AC152C160800BC
:100E50005308E3008E257808E1005208E3008E2550
:100E60007808E2005108E3008E257808E30000309E
:100E70002C1A0130E4000030AC190130E5000030DC
:100E80002C190130E6000430E7000130E800610869
:100E9000E9006208EA007808EB006408EC006508E5
:100EA000ED006608EE00B42508005508E3008E2525
:100EB0007808E1005608E3008E257808E20057081C
:100EC000E3008E257808E30000302C1A0130E4009E
:100ED0000030AC190130E50000302C190130E6007B
:100EE0000430E7000130E8006108E9006208EA0028
:100EF0007808EB006408EC006508ED006608EE0079
:100F0000B42508005408E3008E257808E10000307D
:100F1000AC190130E2000430E7000130E800E901DB
:100F20007808EA00EB01EC016208ED00EE01B4255F
:100F30000800B408031DAB2FB3080319A12F330B0E
:100F4000A22F28273308023C031955273308033CF6
:100F500003198227BF2FB41BB12F3408033C031C95
:100F6000B32F2827BF2FB41BB92F3408063C031C0E
:100F7000BB2F5527BF2F3408073C031982270800D1
:100F8000610EE5000F30E50561080F39E4006508E2
:100F9000E7000A30E800692564087807E300E20802
:100FA000031DD42FE30AD52FE3036308F5000A30AD
:100FB000F6009F257808E5006308F5000A30F60082
:100FC0009F257708E400650EF700F030F7057708F5
:0A0FD0006404E6006608F80008005B
:101000008316111411180228D030AD008A118312F2
:1010100017218A1561088316AD008A1183121721E2
:101020008A1562088316AD008A11831217218A156A
:101030008316111511191A28831208006108620617
:101040008039E400E11F2628E109E10AE21F2A288D
:10105000E209E20A6208F801610203183228610815
:10106000F7003E28F7010830E300E10DF70D6208B4
:1010700077020318F700F80DE30B3528E41F422828
:10108000F809F80A08003608E3008A118E258A1547
:101090007808E1003708E3008A118E258A15780860
:1010A000E2003808E3008A118E258A157808E300EB
:1010B00000302C1A0130E4000030AC190130E5009A
:1010C00000302C190130E6000430E7000130E80060
:1010D0006108E9006208EA007808EB006408EC00A7
:1010E0006508ED006608EE008A11B4258A1508002F
:1010F00003081F398300FF30AB00AB152B088316A4
:10110000870083122B162B0883168700313093003B
:101110002830831294008316941714138130990099
:10112000A63098009030831298002C10AC10AE01BD
:101130001930AD00B301B401B501B901BA01BB0169
:10114000BD01BE01C701C60183161F149F141F15E0
:101150009F1107309C00831331308312C800153073
:10116000C900CA000430CB002530CC001030CD00BF
:101170002330CE009030CF009130D0003030D100FD
:10118000D2001030D3000830D4002030D500023017
:10119000D6002030D7009030D8009130D9008A1185
:1011A000DF288A158A1167298A158A11392A8A1532
:1011B0008A11BD228A158A11662B8A15D23003172F
:1011C0008D0000308F008A110313882B8A15E101EE
:1011D0003030E2006208E3000130E400E6018030D4
:1011E000E5008A11E2238A156208E300E501E401C3
:1011F0008A1102248A15781836292C18BD0A3D0850
:10120000003C031833296208E3000130E400E601E2
:101210008030E5008A11E2238A156208E300E501C7
:10122000E4018A1102248A1578183029E108031D87
:101230002C296208E3000130E400E6018030E5007B
:101240008A11E2238A156208E300E501E4018A11AC
:1012500002248A15781C1929BD010130F8003829AB
:101260000030F80038290030F80038290030F80044
:10127000F808031DB90A3908053C031CB9013A08EE
:101280003902031948293908BA008A1130228A150F
:10129000390803195829013A0319122A033A031984
:1012A000772A013A0319CE2C073A0319D52DEF2DD1
:1012B0000830E1008A1139218A158A11CA248A1559
:1012C0005308E3008A118E258A157808E100520838
:1012D000E3008A118E258A157808E2005108E300A0
:1012E0008A118E258A157808E3000430E700E801AA
:1012F0006108E9006208EA007808EB000130EC00C0
:10130000ED00EE008A11B4258A150230E1000130AB
:10131000E200E4015C08E3005E08E6005D08E50029
:101320008A1155268A155C08E1002D08E200610843
:1013300062020318A429081783160813831288135E
:1013400083168813AB29831208138316081383129C
:1013500088178316881383125308E3008A118E2599
:101360008A157808E1003608E3008A118E258A156F
:1013700078086102031DDC295208E3008A118E25DA
:101380008A157808E1003708E3008A118E258A154E
:1013900078086102031DDC295108E3008A118E25BB
:1013A0008A157808E1003808E3008A118E258A152D
:1013B000780861020319AC16AC1E0E2AE10161081F
:1013C000313C031C0D2A8714AB102B0883168700B1
:1013D00001308312E2008A11A3218A150230E20053
:1013E000F930E4008A11AE228A15E20BF029871049
:1013F000AB102B088316870012308312E2008A118B
:10140000A3218A150230E200F930E4008A11AE22ED
:101410008A15E20B042AE10ADF29112A8A11BD226A
:101420008A15172E8A11CA248A150130E10032303C
:10143000E2008A11D8268A157808AD070318AE0A8B
:101440000130E1003130E2008A11D8268A1578088F
:10145000AD020030031C0130AE020230E100E201B7
:10146000E4015C08E3005E08E6005D08E5008A111F
:1014700055268A150230E1000130E2002E08E40012
:101480002D08E3006108F5006208F6008A11DE22EB
:101490008A159C3003178D0000308F008A110313CA
:1014A00016238A1507306107E5006408E900630820
:1014B000E8006508EA006208EB000130EC00ED018D
:1014C0008A1122268A15A03003178D0000308F0064
:1014D0008A11031316238A150130E1003330E2002C
:1014E0008A11D8268A15F808031DB901172E08306D
:1014F000E1008A1139218A150130F500F6018A11BF
:10150000DE228A15AE3003178D0000308F008A115D
:10151000031316238A153208043C031C452CB40817
:101520000319952A8A11F7268A150230E100333013
:10153000E2008A11D8268A15F8080319C42A013056
:10154000B300330BC02AB40AB41BAA2A3408033CE4
:10155000031CAD2A0130B300C02AB41BB32A3408DF
:10156000063C031CB62A0230B300C02A3408073CEC
:10157000031DBD2A0330B300C02AB401B301B90171
:10158000B5018A1199278A150130E1003130E20056
:101590008A11D8268A15F8080319832BB501B41BC4
:1015A000D52A3408033C031C1C2B3408013A0319C8
:1015B000E02A033A0319F32A013A0319072B1B2BDC
:1015C0005108593C031DE62AD101EE2A5108E100D9
:1015D000E2018A11C0278A157808D100E10151087B
:1015E000E20000201B2B5208593C031DF92AD201AE
:1015F000012B5208E100E2018A11C0278A15780800
:10160000D2000130E1005208E20000201B2B5308F9
:10161000233C031D0D2BD301152B5308E100E201E0
:101620008A11C0278A157808D3000230E1005308D8
:10163000E20000201B2B7D2BB41B222B3408063C20
:10164000031C6C2B3408043A03192D2B013A03199F
:10165000412B033A0319562B6B2B5708993C031D5A
:10166000332BD7013B2B5708E100E2018A11C02739
:101670008A157808D7000630E1005708E2000020FC
:101680006B2B5608123C031D482B0130D600502B03
:101690005608E100E2018A11C0278A157808D600B1
:1016A0000530E1005608E20000206B2B5508313C64
:1016B000031D5D2B0130D500652B5508E100E201CB
:1016C0008A11C0278A157808D5000430E100550832
:1016D000E20000206B2B7D2B3408073C031D7D2B83
:1016E0005408083C031D772B0230D400782BD40A11
:1016F0000330E1005408E20000202C15AC152C1634
:101700008A1199278A150130E1003230E2008A11EE
:10171000D8268A15F8080319442CB501B41B942B5C
:101720003408033C031CDE2B3408013A03199F2BB9
:10173000033A0319B32B013A0319C82BDD2BD10847
:10174000031DA52B5930D100AE2B5108E10001300B
:10175000E2008A11C0278A157808D100E1015108FA
:10176000E2000020DD2BD208031DB92B5930D20036
:10177000C22B5208E1000130E2008A11C0278A150D
:101780007808D2000130E1005208E2000020DD2B91
:10179000D308031DCE2B2330D300D72B5308E100F1
:1017A0000130E2008A11C0278A157808D300023080
:1017B000E1005308E2000020DD2B3E2CB41BE42B9B
:1017C0003408063C031C2D2C3408013A0319EF2B76
:1017D000033A0319042C013A0319182C2C2CD708AE
:1017E000031DF52B9930D700FE2B5708E10001307F
:1017F000E2008A11C0278A157808D7000630E10078
:101800005708E20000202C2C560B092C0C30D60077
:10181000122C5608E1000130E2008A11C0278A1517
:101820007808D6000530E1005608E20000202C2C94
:10183000550B1D2C1530D500262C5508E100013024
:10184000E2008A11C0278A157808D5000430E1002B
:101850005508E20000202C2C3E2C3408073C031DC8
:101860003E2C5408023C031D382C0830D400392C7F
:10187000D4030330E1005408E20000202C15AC151D
:101880002C168A1199278A155D2C3208093C0318F9
:101890005D2CB201B51B502C3508133C031C522C97
:1018A000B50A572CB401B3012C15AC152C165108F0
:1018B000310203195D2C5108B1008A1199278A154C
:1018C000F5010130F6008A11DE228A15B308031DE6
:1018D000732CA23003178D0000308F008A11031380
:1018E00016238A159A2C330B7F2CA43003178D00F6
:1018F00000308F008A11031316238A159A2C33089F
:10190000023C031D8D2CA63003178D0000308F0084
:101910008A11031316238A159A2C3308033C031DDE
:101920009A2CA83003178D0000308F008A11031302
:1019300016238A150D30F5000130F6008A11DE22DB
:101940008A1530303407E100FE008A11F9228A1529
:10195000B4080319C42C3508E1000A30E2001E2047
:1019600030307807E100FE008A11F9228A15350827
:10197000E1000A30E2001E2030307707E100FE006F
:101980008A11F9228A15CD2CAA3003178D00003058
:101990008F008A11031316238A15172E0130F500C4
:1019A000F6018A11DE228A15B63003178D00003049
:1019B0008F008A11031316238A153208043C031C76
:1019C0008F2DB4080319E72C8A11F7268A150230E7
:1019D000E1003330E2008A11D8268A15F80803198D
:1019E000FD2CB41BF72C3408023C031CF92CB40A60
:1019F000FB2CB401B901B50143200130E1003130C5
:101A0000E2008A11D8268A15F8080319442DB50179
:101A10003408013A0319132D033A0319222D013A10
:101A20000319312D402D3808593C031D192DB801DB
:101A3000212D3808E100E2018A11C0278A157808B3
:101A4000B800402D3708593C031D282DB701302D13
:101A50003708E100E2018A11C0278A157808B7002B
:101A6000402D3608233C031D372DB6013F2D360887
:101A7000E100E2018A11C0278A157808B600402DDE
:101A80002C15AC152C1643200130E1003230E20059
:101A90008A11D8268A15F80803198E2DB501340845
:101AA000013A03195A2D033A03196A2D013A031911
:101AB0007A2D8A2DB808031D602D5930B800692D84
:101AC0003808E1000130E2008A11C0278A15780841
:101AD000B8008A2DB708031D702D5930B700792D35
:101AE0003708E1000130E2008A11C0278A15780822
:101AF000B7008A2DB608031D802D2330B600892D2E
:101B00003608E1000130E2008A11C0278A15780802
:101B1000B6008A2D2C15AC152C164320A02D3208AA
:101B2000093C0318A02DB201B51B9A2D3508133CB2
:101B3000031C9C2DB50AA02DB4012C15AC152C1638
:101B400043200D30F5000130F6008A11DE228A159F
:101B500030303407E100FE008A11F9228A15B408FA
:101B60000319CB2D3508E1000A30E2001E20303089
:101B70007807E100FE008A11F9228A153508E10094
:101B80000A30E2001E2030307707E100FE008A11A3
:101B9000F9228A15D42DAC3003178D0000308F0048
:101BA0008A11031316238A15172E0130F500F6014A
:101BB0008A11DE228A15BD3003178D0000308F0098
:101BC0008A11031316238A150130E1003330E20035
:101BD0008A11D8268A15F808031DB901172E02307C
:101BE000F500F6018A11DE228A15C43003178D0034
:101BF00000308F008A11031316238A15F501013076
:101C0000F6008A11DE228A15CA3003178D000030D3
:101C10008F008A11031316238A150130E100333037
:101C2000E2008A11D8268A15F808031DB901E728B1
:021C300063004F
:02400E00723FFF
:00000001FF
;PIC16F877A
;CRC=8E41  CREATED="02-Jun-24 17:14"
