:1000000002308A00602A0000FF00030E8301A10075
:100010000A08A0008A010408A2007708A300780853
:10002000A4007908A5007A08A60003170D08031399
:10003000A70003170F080313A80003170C080313E6
:10004000A90003170E080313AA00831383128C3030
:100050008400801E2D288C1A54288C308400001CAB
:1000600033280C185728220884002308F700240896
:10007000F8002508F9002608FA00270803178D0064
:100080000313280803178F000313290803178C0094
:1000900003132A0803178E00031320088A00210E79
:1000A0008300FF0E7F0E09008A110A127D288A1133
:1000B0000A125A288E01E7308F0096308E00000019
:1000C0000130AC06AF0A0319B00AB008031D6C2852
:1000D0002F08093C03187928B20AB001AF01AC1E01
:1000E00079283B08633C031C7728BB0A7928BB01AD
:1000F000AC120C108A110A1233288C1E88288C1E10
:100100007F281A08BC008616831686128B28831255
:1001100086128316861283128C128A110A123328D1
:10012000C437A0306E1031102D10C825C92400002E
:1001300053284B2A2D2A5024C32600002D002D00C1
:100140002E002E004E223A100001A03743004E220E
:10015000AD23481D2000A03743002027200047285A
:1001600047004E2A4E00202A2000DF2F0000DF2FFC
:100170000000E3306910E4307410E437EE332034CB
:100180006F00F417671063346F10E330A0306E0017
:100190006334E5316B10E3376D10E5397000493792
:1001A000E637F236613AE9376E00D632F239E9378E
:1001B0006E1D202B311730173000E8326C366F007F
:1001C000B53090008E01E7308F0096308E00000031
:1001D000C0308B0483160C148C16FF308500DF3082
:1001E000860000308800091089100911403087000E
:1001F0008312AB002C10AC10AE011930AD002C15E1
:10020000AC152C160930B6003030B700B8008A1192
:100210000A12B82A94138C11740893000230941BAC
:1002200018298316141912290030111B013083126A
:10023000F8000800623084008313000803192D2998
:100240000630F800F701F70B2329F80B22297B3041
:10025000F700F70B2929800B2029080071084504B5
:10026000F2007208F30083169114911835294E306C
:10027000F40083120A217308F4000A218316111571
:1002800011194029831208006E08F1002E216E0812
:10029000EF006F080438F000F1002E214F2950299B
:1002A00000006F08FB39F000F1002E215330F700F9
:1002B000F70B582908006908F039EB00690EF700C0
:1002C000F030F7057708F039EC006B086A04ED00B0
:1002D000EE0044216C086A04ED00EE0044210800A1
:1002E0006808E900EA015B2108000130E80070219C
:1002F0001430E2001A2108001030C3000230C4009C
:10030000C50183161114111883294E30F40083128D
:100310000A21BF01BF154408C2002830E2001A219B
:100320004508F1002E216430E2001A213030EE0041
:1003300044210530E2001A213030EE00442105301E
:10034000E2001A213030EE0044210530E2001A218B
:100350002030EE0044213F082038E100E800702101
:100360000430C000401540080838E100E800702162
:1003700075210230C10041080438E100E800702115
:100380000230E80070211430E2001A218A110A12AA
:10039000B92AE3014030E4001430E5005430E600AF
:1003A000620842020318D72901304202E20063309A
:1003B000620784008313000861078038E700E800C3
:1003C000702108006408E9000130EA005B210800A0
:1003D0000B08E1008B13831603178C170C14000015
:1003E000000083120313E11B8B1703170C087F39DE
:1003F00003193C2A0313E10003170D080313E2005D
:1004000003170F080313E3006108E400E221620808
:1004100003178D000313630803178F0003130B08E2
:10042000E4008B13831603178C170C1400000000D4
:1004300083120313E41B8B1703170C0D0E0D7F396A
:1004400003193C2A0313E10003170D080313E2000C
:1004500003170F080313E3006108E400E2216208B8
:1004600003178D000313630803178F008D0A031908
:100470008F0A0313E8290317031308000130E10072
:10048000E201C921903003178D0000308F00031363
:10049000E8210330E1000130E200C9219830031760
:1004A0008D0000308F000313E8210830E100FA309E
:1004B000E2001A21E10B572A75218A110A12BA2A81
:1004C00003081F398300FF30AB00AB152B088316E0
:1004D000870083122B162B08831687003130930078
:1004E00028308312940083169417141381309900D6
:1004F000A63098009030831298002C10AC10AE01FA
:100500001930AD00B301B401B501B901BA01BB01A5
:10051000BD01BE01C701C60183161F149F141F151C
:100520009F1107309C00831331308312C8001530AF
:10053000C900CA000430CB002530CC001030CD00FB
:100540002330CE009030CF009130D0003030D10039
:10055000D2001030D3000830D4002030D500023053
:10056000D6002030D7009030D8009130D900E02854
:100570007C293E2AE101E201C921DD3003178D000B
:0C05800000308F000313E821BA2A63004A
:02400E00723FFF
:00000001FF
;PIC16F877A
;CRC=8ECE  CREATED="09-Jun-24 10:01"
