:1000000010308A0000280000FF00030E8301A100C9
:100010000A08A0008A010408A2007708A300780853
:10002000A4007908A5007A08A60003170D08031399
:10003000A70003170F080313A80003170C080313E6
:10004000A90003170E080313AA00831383128C3030
:100050008400801E2D288C1A54288C308400001CAB
:1000600033280C185728220884002308F700240896
:10007000F8002508F9002608FA00270803178D0064
:100080000313280803178F000313290803178C0094
:1000900003132A0803178E00031320088A00210E79
:1000A0008300FF0E7F0E09008A110A125A288A1156
:1000B0000A128F288C1E86288C1E5C281A0883162C
:1000C000CB004B080D3C031969284B080A3C031D63
:1000D0007528463083125607840083138001560822
:1000E000D8000130D70086288316831256080E3CAC
:1000F000031C84285608D60A463E840083138316C0
:100100004B088000872883120F30D6008316831295
:100110008C128A110A123328F339BA376B008E0118
:10012000E7308F0096308E0000000130AC06AE0A3A
:100130000319AF0AAF08031DA1282E08093C0318B4
:10014000BC28B30AAF01AE01B108031DAF283008C7
:10015000633C031CAF28B00A0319B10AB228B101ED
:10016000B001AC142C1FBC283C08633C031CBA280B
:10017000BC0ABC28BC012C130C108A110A123328AB
:10018000C437A0306E1031102D10C825C9240000CE
:1001900053284B2A2D2A5024C32600002D002D0061
:1001A0002E002E004E223A100001A03743004E22AE
:1001B000AD23481D2000A0374300202720004728FA
:1001C00047004E2A4E00202A2000DF2F0000DF2F9C
:1001D0000000643A3A39741D0010643A3A36741DCE
:1001E0000001643A3A39611D0001E3306910E430DE
:1001F0007410E437EE3320346F00F4176710633463
:100200006F10E330A0306E006334E5316B10E337DC
:100210006D10E53970004937E637F236613AE93753
:100220006E00D632F239E9376E1D202B31173017A8
:100230003000C8326C366F106639EF362028C9217D
:10024000311B461CB71BC1100000B53090008E0159
:10025000E7308F0096308E000000C0308B0483168C
:100260000C148C16FF308500DF30860000308800CB
:100270000910891009119830870083122C10AC10D6
:100280002C111930AD00AC152C16AC160930B70086
:100290003030B800B9008A110A165F2894138C1107
:1002A00083164808831293000230941B5E2983163C
:1002B000141958290030111B01308312F80008006E
:1002C0001413831691159119632977189112771CCD
:1002D00091161116111A6A2983121308F8000800E2
:1002E0008316111411187229D030C80083124E21C0
:1002F0008316C80183124E218316911491187E290A
:10030000D130C80083124E21FC017B087C02031807
:1003100094296D307C07840083130130F70060213D
:1003200078088000FC0A8529F70160217808FC0024
:100330008316111511199A29831208000930FB0040
:10034000702175086C020319D7290130F600831655
:1003500011141118A929D030C80083124E21831618
:10036000C80183124E21FB017B08083C031CD229E3
:10037000F6080319C62964307B078400831300083C
:10038000FC008316C80083124E21D0296D307B07F4
:10039000840083130008FC008316C80083124E21DA
:1003A000FB0AB429831611151119D42983128A1155
:1003B0000A1662287C308400831300080319ED2993
:1003C0000630F800F701F70BE329F80BE2297B3040
:1003D000F700F70BE929800BE02908008316420893
:1003E000C5004508831263048316C6004608C7008B
:1003F00091149118F9294E30C80083124E218316AA
:100400004708C80083124E21831611151119062AB8
:100410004208C30043080438C4004408C500450826
:10042000831263048316C6004608C700911491180E
:10043000172A4E30C80083124E2183164708C80081
:1004400083124E21831611151119242A272A282ACE
:1004500000004308FB39C4004408C5004508831266
:1004600063048316C6004608C70091149118362A03
:100470004E30C80083124E2183164708C8008312ED
:100480004E21831611151119432A5330F700F70B2B
:10049000472A8312080083163C08BD00BE013D08B0
:1004A000F039BF003D0EF700F030F7057708F0395E
:1004B000C0003F083E04C100C2008312EE21831633
:1004C00040083E04C100C2008312EE210800013042
:1004D0008316BC0083124B221430FC00DA21080082
:1004E0001030E1000230E200E3018316111411180C
:1004F000772A4E30C80083124E21DD01DD156208D7
:10050000E0002830FC00DA2163088316C5004508A6
:10051000831263048316C6004608C700911491181D
:100520008F2A4E30C80083124E2183164708C80018
:1005300083124E218316111511199C2A6430FC0078
:100540008312DA2130308316C2008312EE21053087
:10055000FC00DA2130308316C2008312EE21053010
:10056000FC00DA2130308316C2008312EE21053000
:10057000FC00DA2120308316C2008312EE215D08D0
:100580002038F6008316BC0083124B220430DE00B4
:100590005E155E080838F6008316BC0083124B22F5
:1005A00067220230DF005F080438F6008316BC00C3
:1005B00083124B2202308316BC0083124B2214306C
:1005C000FC00DA218A110A16652803308316A1027D
:1005D000031CF42AA1308400831300080319F42AB1
:1005E000F22AF22A800BF12A83120800FB017B0811
:1005F000313C031C102B87140430FC00C7308316D9
:10060000A1008312E522FC0BFE2A87101330FC00A8
:10061000DA21C8308316A1008312E522FB0AF72AEB
:1006200008008316B7014030B8001430B9005430C8
:10063000BA003608831260020318232B01306002CF
:100640008316B6008312B7308316360784008313EF
:10065000000835078038BB00BC0083124B2208001D
:1006600083163808BD000130BE003D08F039BF00D8
:100670003D0EF700F030F7057708F039C0003F086D
:100680003E04C100C2008312EE21831640083E04DE
:10069000C100C2008312EE2108000B088316B500CA
:1006A00083128B13831603178C170C1400000000A1
:1006B0000313B51F5E2B83128B1783168312031748
:1006C0000C087F390319BF2B83160313B50083125F
:1006D00003170D0883160313B600831203170F08C0
:1006E00083160313B7003508B8008312302383162E
:1006F0003608831203178D008316031337088312FD
:1007000003178F0003130B088316B80083128B1393
:10071000831603178C170C14000000000313B81F76
:10072000942B83128B178316831203170C0D0E0D57
:100730007F390319BF2B83160313B50083120317E8
:100740000D0883160313B600831203170F088316D0
:100750000313B7003508B800831230238316360818
:10076000831203178D0083160313370883120317B0
:100770008F008D0A03198F0A03134D2B03170313E0
:10078000080001308316B500B60183121123C03072
:1007900003178D0000308F0003134D2303308316A1
:1007A000B5000130B60083121123C83003178D0045
:1007B00000308F0003134D230830F600FA30FC00A0
:1007C000DA21F60BDE2B67228A110A166B280B083A
:1007D0008316A00083128B13831603178C170C1437
:1007E000000000000313A01FF82B83128B17831641
:1007F000831203170C087F3903195B2C831603132C
:10080000A000831203170D0883160313A10083129F
:1008100003170F0883160313A200200883120C1E6F
:100820000F2C990083162108831203178D0083165D
:1008300003132208831203178F0003130B08831678
:10084000A30083128B13831603178C170C1400005C
:1008500000000313A31F2F2C83128B178316831200
:1008600003170C0D0E0D7F3903195B2C8316031330
:10087000A000831203170D0883160313A10083122F
:1008800003170F0883160313A200200883120C1EFF
:10089000472C990083162108831203178D008316B5
:1008A00003132208831203178F008D0A03198F0A7E
:1008B0000313E72B0317031308007D080739F7001C
:1008C0007D0CF800F80CF80C1F30F805780883163A
:1008D000200784008313211883170008F800F70A03
:1008E000722CF80CF70B712C0130F80583120800FC
:1008F0000510831605100230A000F930A100831204
:10090000E5228316A00B7D2C0514A630F700F70B0B
:10091000872C0000831205189B2C02308316A00040
:10092000C730A1008312E5228316A00B902C013062
:10093000F8009E2C83120030F80083168312080002
:100940008316A1012108073C031CD32C2008F700C3
:100950002108F8000319B02C0310F70CF80BAC2C8D
:10096000003077180130A2002208A300831205107E
:10097000831605100330F700F70BBC2CA308031DEA
:10098000C52C83120510C72C8316831205148530DD
:10099000F700F70BC92C831605140330F700F70B8B
:1009A000CF2CA10AA22C831208008316A401A50152
:1009B0002508073C031C032D831205108316051020
:1009C0000330F700F70BE22C05140830F700F70BA3
:1009D000E72C26108312051CF02C83162614831294
:1009E000A630F700F70BF22C000000308316261813
:1009F0000130F800F808031DFF2C0310002D03142C
:100A0000A40CA50AD82C2408F80083120800F801C9
:100A1000F901F701FA0183163108031D122D300880
:100A200003192C2D1030B2000310AE0DAF0DF70DD1
:100A3000FA0D31087A02031D1F2D30087702031CBE
:100A4000282D3008F702031CFA033108FA020314B8
:100A5000F80DF90DB20B142D83120800FC013D3086
:100A6000FB007824F808031D382D0030F8009B2D7A
:100A7000CC308316A0008312A02444308316A0003B
:100A80008312A024D524F8080319422D7824F808ED
:100A9000031D4D2D0030F8009B2DCC308316A00097
:100AA0008312A024BE308316A0008312A0247C08E9
:100AB000FA007B088316A0007C08A1008312D524CD
:100AC000831620088400831321188317840A800169
:100AD0008403780880007C08FA007B08A0007C086A
:100AE000A10020088400831321188317840A0008BA
:100AF000A30084030008A2008312D5248316A50155
:100B00007808A400FA0000302204F7007A082304D1
:100B1000FA007708A2007A08A30020088400831353
:100B200021188317840A2308800084032208800088
:100B30000130F8008312F8080319DE2D2C153E0C45
:100B4000FA003D0CF900FA0CF90CFA0CF90CFA0C4D
:100B5000F90C7908BF003D080F39C200C3014308F2
:100B6000FC004208FB000230FE007130FD00103036
:100B70008316A000F701FA01FC0CFB0C031CC62D28
:100B80007D08F7070318FA0A7E08FA07FA0CF70C33
:100B9000F90CF80CA00BBC2D7908FC007808FB00C0
:100BA0007908AF007808AE00B1010A30B0008312B6
:100BB00007257908C1007808C000DF2D2C11080036
:100BC000F701F8018316260803102718F707F70C1A
:100BD000F80CA718F707F70CF80C2719F707F70C0C
:100BE000F80CA719F707F70CF80C271AF707F70CFA
:100BF000F80CA71AF707F70CF80C271BF707F70CE8
:100C0000F80CA71BF707F70CF80C831208008316E3
:100C1000230EF7000F30F7057708A500A6000A306D
:100C2000A7008312E02578088316A40023080F3953
:100C30002407F8008312080083163608F8013502ED
:100C40000318252E3508F700312EF7010830B700BC
:100C5000B50DF70D360877020318F700F80DB70B3E
:100C6000282E8312080083162C0B402E2908B5006D
:100C70000A30B60083121C2630307807422E8316C5
:100C8000203083128316AF002C0B502E2908B5009C
:100C90000A30B60083121C2630307707522E831696
:100CA000203083128316B0002D0B602E2A08B50069
:100CB0000A30B60083121C2630307807622E831665
:100CC000203083128316B1002D0B702E2A08B50038
:100CD0000A30B60083121C2630307707722E831636
:100CE000203083128316B2002E0B802E2B08B50005
:100CF0000A30B60083121C2630307807822E831605
:100D0000203083128316B3002E0B902E2B08B500D3
:100D10000A30B60083121C2630307707922E8316D5
:100D2000203083128316B4002708B5002808B600C7
:100D30008312112383162F08B800831230238316E1
:100D40003008B80083123023CE3003178D000030F6
:100D50008F0003134D2383163108B800831230230C
:100D600083163208B80083123023CF3003178D006A
:100D700000308F0003134D2383163308B80083120D
:100D8000302383163408B8008312302308008316FA
:100D90002508B5002608B6008312112383162408FF
:100DA000AF002308AE00B1010A30B000831207255E
:100DB00079088316AC007808AB0030302B07A90007
:100DC0002408AF002308AE00B1010A30B00083123E
:100DD000072577088316AB007A08AC0030302B0764
:100DE000AA00270BF92E2908303C031DF92E2030CC
:100DF000A900280B042FD030831203178D00003078
:100E00008F0003134D2383162908B8008312302363
:100E100083162A08B8008312302308007B08831643
:100E2000B5007C08B60083121123D23003178D0061
:100E300000308F0003134D2304307B078316A2007C
:100E40007E08A4007D08A3002208A5007C08A60057
:100E50000130A700A8018312C72606307B0783163E
:100E6000A2002108A4002008A3002208A5007C08F5
:100E7000A600A7010130A8002508B5002608B60085
:100E80008312112383162408AF002308AE00B1019A
:100E90006430B0008312072579088316AD00780806
:100EA000AC0030302C07A9002408AF002308AE00A6
:100EB000B1010A30B0008312072579088316AD000E
:100EC0007808AC002D08AF002C08AE00B1010A3044
:100ED000B0008312072577088316AC007A08AD00AE
:100EE00030302C07AA002408AF002308AE00B1015F
:100EF0000A30B0008312072577088316AC007A0801
:100F0000AD0030302C07AB00270B922F2908303C66
:100F1000031D922F2030A9002A08303C031D922F78
:100F20002030AA00280B9D2FD130831203178D008B
:100F300000308F0003134D2383162908B800831255
:100F4000302383162A08B8008312302383162B0817
:100F5000B80083123023D53003178D0000308F0086
:100F600003134D2308008C3003178D0000308F00D1
:100F70000313E72308007D088316B5000A30B60086
:100F800083121C26780EFE00F030FE057D088316C5
:100F9000B5000A30B60083121C2677087E07F800D9
:100FA00008007B08FD008316A101A00183125D24C7
:100FB0007818E72F2C18DC0A76085C02031CE42F53
:100FC000DC010130F800E92F0030F800E92F003093
:040FD000F80008001D
:1010000020308316201E3030A1007E08F700FE1F1E
:101010001128F709F70A7708FE002D30A100A01764
:1010200020147E08B5006430B6008A1183121C2695
:101030008A157708FE00303078078316A2007E08F4
:10104000B5000A30B6008A1183121C268A1530308A
:1010500077078316A40030307807A3002108F70033
:101060003030220203193828A014A01B20154C2868
:101070002108A2002030A1003030230203194428A7
:101080002014A01BA0144C28031D2014031D4C2861
:101090002208A3002030A20020195328A0185928A4
:1010A00020185F286528210883120C1E55289900F6
:1010B0008316220883120C1E5B28990083162308CE
:1010C00083120C1E612899008316240883120C1EBB
:1010D000672899000800B50803199828350B71286E
:1010E00075283508043C031D7A280830AC062C16F8
:1010F000AC1697283508023C031982283508053CB0
:10110000031D8728AC151030AC06AC16972835089F
:10111000033C03198F283508063C031D9428AC15A1
:101120002C162030AC069728AC152C16AC169B2834
:10113000AC152C16AC1608006F088316A3008A1194
:10114000831207268A1578088316A00083126E087A
:101150008316A3008A11831207268A15780883163E
:10116000A10083126D088316A3008A11831207263B
:101170008A1578088316A20000308312AC1A013059
:101180008316A300003083122C1A01308316A400AA
:1011900000308312AC1901308316A5000430A7007B
:1011A0000130A8002008A9002108AA002208AB00ED
:1011B0002308AC002408AD002508AE008A11831274
:1011C00033268A15080071088316A3008A1183123A
:1011D00007268A1578088316A0007208A3008A11D2
:1011E000831207268A1578088316A1007308A300C6
:1011F0008A11831207268A1578088316A200003008
:101200008312AC1A01308316A300003083122C1A0B
:1012100001308316A40000308312AC19013083160C
:10122000A5000430A7000130A8002008A90021086B
:10123000AA002208AB002308AC002408AD00250852
:10124000AE008A11831233268A15080070088316AF
:10125000A3008A11831207268A157808FB00003044
:101260002C1A0130FC0004308316A7000130A800BE
:10127000A9017808AA00AB01AC017C08AD00AE0161
:101280008A11831233268A150800B508031D5729D1
:10129000B40803194D29340B4E299C203408023C14
:1012A0000319E3203408033C031926216B29B51BDD
:1012B0005D293508033C031C5F299C206B29B51B65
:1012C00065293508063C031C6729E3206B2935088E
:1012D000073C0319262108007B0E8316A0000F305F
:1012E000A0057B080F39FE002008A6000A30A700E1
:1012F0008A118312E0258A157E087807FD00FC0814
:10130000031D8429FD0A8529FD037D088316B50088
:101310000A30B6008A1183121C268A1578088316B3
:10132000A0007D08B5000A30B6008A1183121C2681
:101330008A157708FE008316200EF700F030F705B7
:1013400077087E04A1002108F800831208008316A4
:1013500011141118A929D030C8008A1183124E2106
:101360008A157B088316C8008A1183124E218A15BC
:101370007C088316C8008A1183124E218A158316B1
:1013800011151119C129831208007B087C068039C8
:10139000FE00FB1FCD29FB09FB0AFC1FD129FC091C
:1013A000FC0A7C08F8017B020318D9297B08F700A6
:1013B000E529F7010830FD00FB0DF70D7C087702E9
:1013C0000318F700F80DFD0BDC29FE1FE929F809C9
:1013D000F80A080037088316A3008A11831207262B
:1013E0008A1578088316A000831238088316A30094
:1013F0008A11831207268A1578088316A1008312A2
:1014000039088316A3008A11831207268A157808E3
:101410008316A20000308312AC1A01308316A30099
:10142000003083122C1A01308316A400003083127E
:10143000AC1901308316A5000430A7000130A800C4
:101440002008A9002108AA002208AB002308AC004C
:101450002408AD002508AE008A11831233268A15B0
:02146000080082
:1020000003081F398300FF30AB00AB152B08831684
:10201000870083122B162B0883168700313093001C
:10202000283083129400831694171413813099007A
:10203000A63098009030831298002C10AC102C1110
:102040001930AD00B401B501B601BA01BB01BC0144
:10205000D601D701D801DA01D901DB01DC018316F1
:102060001F149F141F159F1107309C0083138312A8
:10207000C401C501C6013130E4001530E500E600B9
:102080000430E7002530E8001030E9002330EA0092
:102090009030EB009130EC003030ED00EE0010306D
:1020A000EF000830F0002030F1000230F200203064
:1020B000F3009030F4009130F5000A1225290A1639
:1020C0000A129E290A160A12702A0A160A12F62203
:1020D0000A160A12C12B0A16193003178D00013097
:1020E0008F000A120313E7230A16F6013030FB00B3
:1020F0007B08FD008316A101A0010A1283125D2452
:102100000A167818AD282C1C8628DB0A5B08003CD0
:102110000318AA287B08FD008316A101A0010A125A
:1021200083125D240A167818A728F608031DA32831
:102130007B08FD008316A101A0010A1283125D2411
:102140000A16781C9828DB010130F800AF2800300F
:10215000F800AF280030F800AF280030F800F80889
:102160000319B328BA0A3A08053C0318B828BA017B
:102170003B083A020319C1283A08BB000A12672239
:102180000A163A080319D128013A0319B72A033A63
:1021900003191E2B013A0319E72D073A0319202FC3
:1021A000562F0830FB000A1270210A160A122E253B
:1021B0000A166F088316A3000A12831207260A164E
:1021C0007808FB006E088316A3000A128312072604
:1021D0000A167808FC006D088316A3000A12831201
:1021E00007260A167808FD0004308316A700A80108
:1021F0007B08A9007C08AA007808AB000130AC007D
:10220000AD00AE000A12831233260A160230FB001C
:102210000130FC00FE013F08FD0041088316A100CB
:10222000831240088316A0000A1283120E270A1692
:102230003F08F6002D08FB0076087B0203182329CF
:10224000081788132529081388176F088316A30019
:102250000A12831207260A167808FB00370883162D
:10226000A3000A12831207260A1678087B02031DB0
:1022700062296E088316A3000A12831207260A1623
:102280007808FB0038088316A3000A128312072679
:102290000A1678087B02031D62296D088316A300C5
:1022A0000A12831207260A167808FB0039088316DB
:1022B000A3000A12831207260A1678087B02031D60
:1022C00062292C172C1F8E29F6017608313C031C3D
:1022D0008D2987140130FC000A12DA210A16023017
:1022E000FB00F9308316A1000A128312E5220A16B8
:1022F000FB0B712987101230FC000A12DA210A1632
:102300000230FB00F9308316A1000A128312E52285
:102310000A16FB0B8229F60A652991290A12F62270
:102320000A16D7080319262AD701D601D80146086C
:10233000733C031DB6294708743C031DB6294808A1
:102340003A3C031DB62930304902FC008316A60032
:102350000A30A7000A128312E0250A1630304A021A
:102360007807AD000A12B3270A16262A4608733CDE
:10237000031D112A4708613C031D112A48083A3CF5
:10238000031D112A4908673C031D102A4A08703CA6
:10239000031D102A4B08673C031D102A30304D02E4
:1023A000FC008316A6000A30A7000A128312E0255B
:1023B0000A167808FB00FD000A12BB270A16303007
:1023C0004E027807B70030305002FC008316A6009A
:1023D0000A30A7000A128312E0250A167808FB00CB
:1023E000FD000A12BB270A16303051027807B800E8
:1023F00030305302FC008316A6000A30A7000A12F0
:102400008312E0250A167808FB00FD000A12BB279C
:102410000A16303054027807B9000A12B3270A1698
:10242000262A4608633C031D262A4708733C031DE1
:10243000262A48083A3C031D262A30304902F80073
:102440002C1378182C170A12B3270A16AC1CB62ABC
:10245000AC10E93003178D0000308F000A1203130F
:10246000E7230A163F08FE0018308316A0000A1260
:102470008A15831200200A168A110D300C1E3E2A7E
:1024800099000A300C1E422A9900ED3003178D0086
:1024900000308F000A120313E7230A162D08FE00EE
:1024A00018308316A0000A128A15831200200A161B
:1024B0008A110D300C1E5A2A99000A300C1E5E2A11
:1024C000990037088316A3000A12831207260A16FA
:1024D0007808FB0038088316A3000A128312072627
:1024E0000A167808FC0039088316A3000A12831222
:1024F00007260A167808FD00F13003178D0000301A
:102500008F000A120313E7230A167B08FE00183017
:102510008316A0000A128A15831200200A168A1157
:102520002D300C1E912A99007C08FE00183083166D
:10253000A0000A128A15831200200A168A112D3073
:102540000C1EA02A99007D08FE0018308316A000FA
:102550000A128A15831200200A168A110D300C1EE9
:10256000AF2A99000A300C1EB32A9900842F0A1250
:102570002E250A160130F6003230FB000A12D12750
:102580000A167808AD070130F6003130FB000A1258
:10259000D1270A167808AD020230FB00FC01FE01CB
:1025A0003F08FD0041088316A100831240088316EE
:1025B000A0000A1283120E270A160230FB00013017
:1025C000FC00FE012D08FD007B088316B5007C0889
:1025D000B6000A12831211230A16D73003178D0092
:1025E00000308F000A1203134D230A1607307B07B1
:1025F0008316A0007E08A4007D08A3002008A50083
:102600007C08A6000130A700A8010A128312C72681
:102610000A16DB3003178D0000308F000A120313F7
:102620004D230A160130F6003330FB000A12D12781
:102630000A16F80803191D2BBA01842F0830FB0075
:102640000A1270210A1601308316B500B6010A126B
:10265000831211230A16F53003178D0000308F0006
:102660000A1203134D230A163308043C031C4A2D97
:10267000B5080319402B0A128A156B200A168A1115
:102680000230F6003330FB000A12D1270A16F80890
:102690000319712B0130B400340B6B2BB50AB51B39
:1026A000552B3508033C031C582B0130B4006B2B11
:1026B000B51B5E2B3508063C031C612B0230B400B1
:1026C0006B2B3508073C031D682B0330B4006B2BC4
:1026D000B501B401BA01B6010A128A1545210A16DC
:1026E0008A110130F6003130FB000A12D1270A1698
:1026F000F80803195C2CB601B51B822B3508033C86
:10270000031CDC2B3508013A03198D2B033A0319FE
:10271000A62B013A0319C02BDA2B6D08593C031D77
:10272000932BED019D2B6D08FB00FC010A128A150D
:102730006C210A168A117808ED00FB016D08FC0077
:102740000A128A15A7210A168A11DB2B6E08593C3A
:10275000031DAC2BEE01B62B6E08FB00FC010A1228
:102760008A156C210A168A117808EE000130FB00E8
:102770006E08FC000A128A15A7210A168A11DB2BA3
:102780006F08233C031DC62BEF01D02B6F08FB0005
:10279000FC010A128A156C210A168A117808EF00CA
:1027A0000230FB006F08FC000A128A15A7210A16E6
:1027B0008A11DB2BDB2B542CB51BE22B3508063C96
:1027C000031C3F2C3508043A0319ED2B013A031979
:1027D000072C033A0319222C3D2C7308993C031D46
:1027E000F32BF301FD2B7308FB00FC010A128A1581
:1027F0006C210A168A117808F3000630FB00730872
:10280000FC000A128A15A7210A168A113E2C7208AA
:10281000123C031D0E2C0130F200182C7208FB0034
:10282000FC010A128A156C210A168A117808F20036
:102830000530FB007208FC000A128A15A7210A164F
:102840008A113E2C7108313C031D292C0130F10006
:10285000332C7108FB00FC010A128A156C210A1640
:102860008A117808F1000430FB007108FC000A129C
:102870008A15A7210A168A113E2C3E2C542C3508A5
:10288000073C031D542C7008083C031D4A2C0230E1
:10289000F0004B2CF00A0330FB007008FC000A1219
:1028A0008A15A7210A168A11AC152C16AC160A1225
:1028B0008A1545210A168A110130F6003230FB00D4
:1028C0000A12D1270A16F8080319492DB601B51BBB
:1028D0006D2C3508033C031CCA2C3508013A03193A
:1028E000782C033A0319922C013A0319AD2CC82C09
:1028F000ED08031D7E2C5930ED00892C6D08FB007E
:102900000130FC000A128A156C210A168A11780817
:10291000ED00FB016D08FC000A128A15A7210A16BA
:102920008A11C92CEE08031D982C5930EE00A32CF7
:102930006E08FB000130FC000A128A156C210A1691
:102940008A117808EE000130FB006E08FC000A12C4
:102950008A15A7210A168A11C92CEF08031DB32C6A
:102960002330EF00BE2C6F08FB000130FC000A1280
:102970008A156C210A168A117808EF000230FB00D4
:102980006F08FC000A128A15A7210A168A11C92CA1
:10299000C92C412DB51BD02C3508063C031C2C2D11
:1029A0003508013A0319DB2C033A0319F62C013AD6
:1029B0000319102D2A2DF308031DE12C9930F30083
:1029C000EC2C7308FB000130FC000A128A156C2104
:1029D0000A168A117808F3000630FB007308FC0021
:1029E0000A128A15A7210A168A112B2D720BFB2CAD
:1029F0000C30F200062D7208FB000130FC000A12B8
:102A00008A156C210A168A117808F2000530FB003D
:102A10007208FC000A128A15A7210A168A112B2DAA
:102A2000710B152D1530F100202D7108FB000130C0
:102A3000FC000A128A156C210A168A117808F10026
:102A40000430FB007108FC000A128A15A7210A163F
:102A50008A112B2D2B2D412D3508073C031D412DAF
:102A60007008023C031D372D0830F000382DF003AC
:102A70000330FB007008FC000A128A15A7210A1611
:102A80008A11AC152C16AC160A128A1545210A16A5
:102A90008A11622D3308093C0318622DB301B61B5D
:102AA000552D3608133C031C572DB60A5C2DB50175
:102AB000B401AC152C16AC166D0832020319622D48
:102AC0006D08B2000A128A1545210A168A1183166A
:102AD000B5010130B6000A12831211230A16B40898
:102AE000031D7C2DDD3003178D0000308F000A128E
:102AF00003134D230A16A32D340B882DDF30031743
:102B00008D0000308F000A1203134D230A16A32DE7
:102B10003408023C031D962DE13003178D00003070
:102B20008F000A1203134D230A16A32D3408033C09
:102B3000031DA32DE33003178D0000308F000A1210
:102B400003134D230A160D308316B5000130B6006D
:102B50000A12831211230A1630303507F600831645
:102B6000B8000A12831230230A16B5080319DD2DA6
:102B70003608FB000A30FC000A128A15C5210A1625
:102B80008A1130307807F6008316B8000A128312D3
:102B900030230A163608FB000A30FC000A128A1598
:102BA000C5210A168A1130307707F6008316B8005F
:102BB0000A12831230230A16E62DE53003178D0022
:102BC00000308F000A1203134D230A16842F0130A0
:102BD0008316B500B6010A12831211230A16FD30BE
:102BE00003178D0000308F000A1203134D230A16BD
:102BF0003308043C031CC62EB5080319042E0A1220
:102C00008A156B200A168A110230F6003330FB0059
:102C10000A12D1270A16F80803191E2EB51B142E06
:102C20003508023C031C162EB50A182EB501BA0150
:102C3000B6010A128A15EA210A168A110130F60035
:102C40003130FB000A12D1270A16F8080319702E3A
:102C5000B6013508013A0319342E033A0319452EFB
:102C6000013A0319562E672E3908593C031D3A2E96
:102C7000B901442E3908FB00FC010A128A156C21A7
:102C80000A168A117808B900682E3808593C031DC5
:102C90004B2EB801552E3808FB00FC010A128A158C
:102CA0006C210A168A117808B800682E3708233C70
:102CB000031D5C2EB701662E3708FB00FC010A12CB
:102CC0008A156C210A168A117808B700682E682EBA
:102CD000AC152C16AC160A128A15EA210A168A11AE
:102CE0000130F6003230FB000A12D1270A16F8082C
:102CF0000319C52EB6013508013A0319862E033A89
:102D00000319982E013A0319AA2EBC2EB908031DE7
:102D10008C2E5930B900972E3908FB000130FC0089
:102D20000A128A156C210A168A117808B900BD2E7C
:102D3000B808031D9E2E5930B800A92E3808FB0094
:102D40000130FC000A128A156C210A168A117808D3
:102D5000B800BD2EB708031DB02E2330B700BB2E20
:102D60003708FB000130FC000A128A156C210A1694
:102D70008A117808B700BD2EBD2EAC152C16AC16E6
:102D80000A128A15EA210A168A11D72E3308093C3D
:102D90000318D72EB301B61BD12E3608133C031CE3
:102DA000D32EB60AD72EB501AC152C16AC160A12C6
:102DB0008A15EA210A168A110D308316B5000130F2
:102DC000B6000A12831211230A1630303507FB00B1
:102DD0008316B8000A12831230230A16B5080319A5
:102DE000162F3608FB000A30FC000A128A15C5218E
:102DF0000A168A1130307807FB008316B8000A12D1
:102E0000831230230A163608FB000A30FC000A122F
:102E10008A15C5210A168A1130307707FB00831600
:102E2000B8000A12831230230A161F2FE730031747
:102E30008D0000308F000A1203134D230A16842FD1
:102E400001308316B500B6010A12831211230A1647
:102E5000043003178D0001308F000A1203134D2335
:102E60000A1601308316B500B6000A128312112328
:102E70000A1630305807FB008316B8000A12831276
:102E800030230A16D70803194A2FD701D6010A1290
:102E900067220A160130F6003330FB000A12D127F0
:102EA0000A16F8080319552FBA01842F0230831629
:102EB000B500B6010A12831211230A160B3003174C
:102EC0008D0001308F000A1203134D230A1683165A
:102ED000B5010130B6000A12831211230A1611300F
:102EE00003178D0001308F000A1203134D230A16B9
:102EF0000130F6003330FB000A12D1270A16F80819
:0C2F00000319832FBA01842F7528630089
:02400E00723FFF
:00000001FF
;PIC16F877A
;CRC=BC99  CREATED="09-Jun-24 18:21"
